:060000002AC0FECFFDCF77
:10000600FCCFFBCFFACFF9CFF8CF51C0F6CFF5CF63
:10001600F4CFF3CFF2CFF1CFF0CFEFCFEECFEDCFDE
:100026001027E80364000A00010000100001100018
:1000360001004672656B75656E7369203A0025305E
:100046003364002E000080C0020089014C000000CD
:10005600F894EE27ECBBF1E0FBBFEBBFE5BFF8E1A0
:10006600F1BDE1BD8DE0A2E0BB27ED938A95E9F7EE
:1000760080E094E0A0E6ED930197E9F7EEE4F0E086
:1000860085919591009761F0A591B5910590159090
:10009600BF01F00105900D920197E1F7FB01F0CF4A
:1000A600EFE5EDBFE4E0EEBFC0E6D1E084C00A9222
:1000B6001A92FA926A937A938A939A93AA93BA9324
:1000C600EA93FA93EFB7EA93D6D2E0916001F09102
:1000D60061016091620170916301E0936401F093A4
:1000E60065016093660170936701E0E0E09360014B
:1000F600E0936101E0936201E0936301E8E3F0E0DD
:10010600BFD2C1D2E0E0EA93E7D0BDD2BCD20ED0D6
:10011600E991EFBFF991E991B991A99199918991E5
:1001260079916991F99019900990189593D3AED267
:10013600E0E4F2E46FE070E04AD38F01B0D247D337
:100146009F01ADD249D3AF01B0D2B2D2F801B3D23A
:10015600B8D2B7D2B9D2EC5FBDD2BED0A6D2A8D2A1
:10016600F901A9D2E985EB5FB5D2AED2E85FB2D28A
:10017600B3D09BD29DD2FA019ED2E985E75FAAD27F
:100186009DD06FD328960895EFE7E5BBE0E0E4BB8A
:10019600E2BBEFEFE1BB0895E0E0EFBDE5E0EEBDC9
:1001A6006AD2E0E0E7BDE6BDEBBDEABDE9BDE8BD6C
:1001B600E4E0E9BF0895E8DFEFDFE0E1EA93ABD0E2
:1001C600E0E8E8B9E0E0E0BF7894809908C0A0E6EE
:1001D600B1E02DD3EF5FFF4F6F4F7F4F2DD3809B45
:1001E600FECFF3CFFFCFFFE0FA95F1F70895A1B365
:1001F600AF70A1BB919A9098F6DF929AF4DFA0B304
:100206009298F1DF929AEFDF9298A7FDF5CF0895C5
:10021600A07FAB2BA2BB929AE6DF9298E4DF08950B
:100226009198A1B3A76FA1BBB2B3BF70A881F0DF4D
:10023600A881A295EDDF919A98C0929AD4DFE0B397
:100246009298D1DFE07F0895CEDFF7DFAE2FF5DF9E
:100256009198E295EA2B0895CADFE881F0E0E75726
:10026600FE4FE081A981EA0F37D259804880229655
:100276000895BDDFE2E030D2BADFECE02DD2B7DF81
:1002860002D2CEDFE0E04E2E5E2E0895EF93FF936E
:10029600A8816894AA3019F0E894571430F0439472
:1002A600E0E0EA934A92D8DF36F05394A0DF909AC2
:1002B600A881AA93B5DFFF91EF9157C00FD2AB810A
:1002C600BC81ED91AB83BC831E2FE03019F01A93ED
:1002D600DDDFF5CF188175C001D2EB81FC81319647
:1002E600EB83FC833197E4911E2FE03019F01A93CB
:1002F600CDDFF3CF188165C0AA27BB271197F1F789
:1003060008959198A1B3A76FA1BBB2B3BF70A8819E
:100316007FDF919A2AC0929890987880E881E05879
:10032600E0938B01E881E054E0938C01DDD1DCD1D0
:10033600DBD1E2DFE0E2EA93E4DFDEDFE8E2CCD124
:10034600DBDFE4E0C9D1D8DFE5E8C6D1D5DFA1B36C
:10035600AF70A1BB919A78DFE53011F0E0E005C0FF
:1003660046DFE6E0B9D185DFE1E02196089576D251
:10037600BFD1129658D23097F1F0BAD1BCD18F01C5
:10038600309761F00230E0E01E07A0F0F8013197E7
:100396008F01AA81BB811496ED93FC93A9D1129685
:1003A600ADD13197AC81A083A3D13DD2FF2312F00A
:1003B6009FD1A4D105C09CD1EFEFFFEFED93FC9345
:1003C60054D225960895269745D210E0AC85BD8572
:1003D600E0E0F0E0ED93FC93EA89FB893196EA8B45
:1003E600FB8B3197E4912E2FE03009F4FEC0E12F0C
:1003F600E03031F4253211F411E001C085D1F4C0AA
:10040600E130A1F4253211F47FD1EDC012E040E0D5
:1004160000E02D3211F401E0E7C02B3211F44BE27B
:10042600E3C0203211F440E2DFC002C0E23039F40A
:1004360050E013E0203311F40068D6C003C0E33067
:1004460009F0D2C0203310F02A3308F007C0AAE022
:100456005A9F502DE22FE0535E0FC6C0E22FE336BF
:1004660039F45AD15CD158D1A481AA935CD1BBC0CE
:10047600E33731F45FD160D162D1E8D01E2F08C0D6
:10048600E03751F457D158D15AD1EAD01E2F08601F
:1004960002600F7730E02EC0E43611F0E93611F431
:1004A600046002C0E53729F4E6E2F0E04BD115E03E
:1004B6000BC0E83511F4086003C0E83709F093C0B3
:1004C600E0E3F0E03FD114E002FF11C033D134D1B4
:1004D6003CD1AB85AA232AF4EA85FB8542D135D1E6
:1004E6004DE2403011F01F5F01C00B7F03C022D1E7
:1004F60023D12BD100FD10C0151770F407FF08C0DB
:1005060002FF04C00B7F242F115001C020E301C05D
:1005160020E2FAD05150F0CF312F01FF15C0303014
:1005260091F003FF05C0EE81FF8125910BD105C037
:10053600AE81BF812D91AE83BF83E6D0503009F0E6
:1005460051503150ECCF46C020E3EE81FF8179D186
:10055600E887F987EE81FF813296F4D0E885F98540
:10056600AA85BB85AE17BF0748F02F5FA885B9855A
:10057600EA85FB85EA1BFB0BE8D0F0CF2A3328F08F
:1005860003FF02C0295F01C0295D04FD19C02133A4
:1005960020F4A885B985119709F409C0531710F0FE
:1005A60000FF01C011C020E207FF0AC020E300617E
:1005B60002FF06C00B7F4A93B6D0503009F0515067
:1005C600A3D0503009F051503150A885B985129703
:1005D60008F0BACF00FF07C0503029F05150E0E2D2
:1005E600EA93A1D0F9CF10E0F7CEAC85BD851BD13B
:1005F60038D164960895FF92F82E26972DD1A8D06B
:10060600309719F4EFEFFFEF1DC0DE011696A5D067
:100616008D019ED097D0E0E0E887E987DE011A9643
:100626009CD001D12DD01A930A93EAEBF1E028D0A1
:10063600FE013A9625D0C7DE9F01AE81BF81E0E07C
:10064600EC93F90110D12A96FF900895A991B991DA
:10065600EE27FF276D91662311F03196FBCF0895A3
:10066600AA27BB27E991F9910590002011F0119670
:10067600FBCFFD010895E2ECEDBDE7EFECBD08957B
:10068600FA93EA930895E1E0EA930895A09164014C
:10069600B091650180916601909167010895F6DF3A
:1006A600E8EEF3E060E070E00895E8E6F1E0E8CF18
:1006B600E4E4F0E0E5CF61D0C8D084E09CDF289682
:1006C600F4CFE985EA930895F9DDE9E4F0E0D8DFAF
:1006D600E9850895EA93F5CFEA93A2CD1A93EA81C4
:1006E600EA93EA81EA93B8CD07DEE0E3EA9309CE1E
:1006F600AA81BB810895149696D00895ED91FD9137
:100706003196FE93EE9308952A93ED85FE85B8DF24
:10071600E989FA8909950895E889F9890895349748
:10072600E88BF98B0895ED85FE85AADFE989FA89BC
:1007360009950895F1DFF3CFA889B989DCCFEE8357
:10074600FF839ECFEE83FF830895EA87FB87089594
:10075600DE011C9602D067D008950024AF0DB01DAF
:100766000895F195E195F0400895F095609570959E
:10077600E195FF4F6F4F7F4F08956F2F660F660B02
:10078600762F08953F934F935F93002411244427B7
:10079600552730E2AA0FBB1F881F991F001C111C8A
:1007A600441F551F0E1A1F0A460B570B28F40E0E30
:1007B6001F1E461F571F01C0A1603A9559F7FD013C
:1007C600BC01D001CA015F914F913F91089518D0A5
:1007D600D9DF0EF4CADF0895E89497FF09C0A09503
:1007E600B09580959095AF5FBF4F8F4F9F4F6894A0
:1007F60077FDBBDFC7DFFD01BC010EF4B6DF089550
:10080600E89477FF02C0B1DF689497FF0BC000241D
:10081600A095B095809590951196801D901D00F835
:10082600039400FA0895ED91FC9111970895ED91C6
:10083600FD916D917D9108957E936E93FE93EE9357
:1008460008950590F491E02D08957A936A93FA93AA
:10085600EA9308955A934A933A932A931A930A93DA
:1008660008955D814C813B812A8119810881089513
:00000001FF
