:0E00000051C0FECFF6C0FCCFFBCFFDC0F9CF44
:10000E00F8CFF7CFF6CFF5CFF4CFF3CFF2CFF1CFC6
:10001E00F0CFEFCFEECFEDCF070A0D0E0F0E0D0A7C
:10002E00070502010001020582A0B4A86466E0661D
:10003E006C6E60724072AE92888A624062AE928836
:10004E008A64406503F0797474744090829C88923F
:10005E00969E4050666C6E607252409A9E84929844
:10006E008A40A8A48286968AA4407474741A5ADEB2
:10007E00FD00606E686A5C7062A690626260646485
:10008E005C6A648A4C00000013008000800001004E
:10009E00030094000000F894EE27ECBBE5BFF8E1F6
:1000AE00A4B7A77FA4BFF1BDE1BD8DE0A2E0ED93A3
:1000BE008A95E9F780E8A0E6ED938A95E9F7E6E9F7
:1000CE00F0E085919591009761F0A591B59105901D
:1000DE001590BF01F00105900D920197E1F7FB011C
:1000EE00F0CFE0E0E3BBE4BBE5BBEFEDEDBFC0E876
:1000FE00DAC04CD1959A20E030E0283EE3E03E078E
:10010E0064F410E0103130F402D18AEA8A95F1F7E6
:10011E001F5FF8CF2F5F3F4FF0CF959813C036D1AA
:10012E00949A20E030E0203DE7E03E0754F410E0E2
:10013E00103120F4ECD0F2D01F5FFACF2F5F3F4F7B
:10014E00F2CF949828D124960895989902C0989A3F
:10015E0001C09898E0E09899E1E0EA9385D008957F
:10016E00FF921A9310E0183080F4E12FA98106D186
:10017E00E0FBF0F8F0FE05C0E0E09899E1E0EA93CC
:10018E0073D0F0FEE2DF1F5FEECF18812296FF9054
:10019E0008951A93C39AC6D010E0123320F4EEE7F6
:1001AE00C6D01F5FFACF10E01F3118F4C2D01F5F08
:1001BE00FBCF10E0133130F4A0E8A10FEC91B7D0D3
:1001CE001F5FF8CF1FE1193418F4B3D01F5FFBCFB8
:1001DE0010E0193120F4EEE7AAD01F5FFACFC398D2
:1001EE0019910895ACD094989598EAEFF0E0FA93AF
:1001FE00EA93B8D0CEDF0AC0A2D03394E5E0E3157F
:10020E0021F4332494989598C4DFA7D0E991EFBFD9
:10021E00F991E991B991A991999189917991699100
:10022E00F990199009901895E881E17011F4C7982A
:10023E0001C0C79AE881E695E17011F4C69801C035
:10024E00C69AE881E695E695E17011F4C59801C06D
:10025E00C59AE881E695E695E695E17011F4C498A5
:10026E0001C0C49A219608951A93E981E03051F4A1
:10027E0010E0103130F44BD08AEA8A95F1F71F5F07
:10028E00F8CF0EC010E0103120F441D047D01F5FE0
:10029E00FACF10E01D3020F43AD040D01F5FFACFD5
:1002AE00188122960895E0E8E6BDE0E0E6BDE8BBE1
:1002BE00E8EFE7BBE9E0E2BBE0E3E1BBE0E8E8B989
:1002CE00E0E0E1B9E0E8EBBFE8E0E5BFE0E8EABF77
:1002DE00E0E0EFBDE5E0EEBD40D0E0E0E5BDE4BD21
:1002EE00E0E8E9BFE8E3E1BDE8E2E1BD959A1AD0A6
:1002FE00949A18D0959816D094987894E0EDF7E0EB
:10030E00FA93EA932FD0F5DE0ADFF8CFFFCFE12F75
:10031E00F0E0EA5DFF4FE491EA9386CF81E58A959E
:10032E00F1F70895E4EFF1E0FA93EA931BC0EA9334
:10033E0017CFE12FF0E0EA5CFF4FE491F8CF0A927D
:10034E001A92FA926A937A938A939A93AA93BA9389
:10035E00EA93FA93EFB7EA930895E2E0EDBDE0EE8B
:10036E00ECBD0895E991F991309639F08DEC9AE053
:10037E000197F1F7A8953197C9F70895EE230E2E40
:10038E00EA2F19F0E6950A94E9F708953A932A931D
:10039E001A930A9308953B812A8119810881089541
:00000001FF
