:1000000023C0FECF3DC0FCCFFBCF41C0F9CFF8CF1E
:10001000F7CFF6CFF5CFF4CFF3CFF2CFF1CFF0CFCC
:10002000EFCFEECFEDCF070A0D0E0F0E0D0A07052D
:100030000201000102051027E80364000A00010024
:100040000010000110000100F894EE27ECBBE5BFA2
:10005000F8E1A4B7A77FA4BFF1BDE1BD8DE0A2E0A8
:10006000ED938A95E9F780E8A0E6ED938A95E9F7A4
:10007000E0E0E3BBE4BBE5BBEFEDEDBFC0E8BEC134
:10008000E6D1EAEFF0E0F2D12CD0949A1CC0DFD197
:10009000F0D1EF5F54D2E150ECD1E13011F421D036
:1000A0000EC0E7D1E17021F4959A26D1959807C04A
:1000B000E0D1E23121F4A2E7B0E0E0E040D2949A4E
:1000C000E2E0EA9384D1E991EFBFF991E991B99126
:1000D000A9919991899179916991F99019900990D3
:1000E00018951A93EFEFFFEF1F01C7D1EF5F27D2EB
:1000F000E150C39AC6D110E0183220F4EEE7C4D123
:100100001F5FFACFC3D110E01C3130F4C3D1A0502F
:10011000B040C3D11F5FF8CFE3E0B6D1E0EFB4D178
:10012000ACD1E43181F4EEE3AFD110E01F3230F412
:10013000B1D1AE5BBF4FB1D11F5FF8CFA1E7B0E047
:10014000E0E0FDD12DC0E1E29FD110E0183030F4A5
:10015000A1D1A45EBF4FA1D11F5FF8CFEFE294D130
:1001600010E0193030F496D1AC5DBF4F96D11F5FCF
:10017000F8CFECE689D181D1E53091F410E0173069
:1001800030F488D1A35DBF4F88D11F5FF8CF10E056
:100190001E3030F47FD1AC5CBF4F7FD11F5FF8CFF2
:1001A0000AD010E0123020F4EEE76ED11F5FFACFD4
:1001B000C39819910895EFEFE225E0938100E32DB4
:1001C000F070AFEFEA27E0938200E09181005CD10C
:1001D000E091820059D10895FF921A9310E01830EF
:1001E00010F5E12FA9817BD1E0FBF0F8AE3711F4D7
:1001F0004DD105C0E0E0F0FCE1E0EA9318D0F0FE5C
:100200000EC0E0E09899E1E0EA934FD0E0918000E1
:10021000EF5FE0938000A0918000A53011F41AD028
:1002200035D11F5FDCCF18812296FF900895E881B9
:1002300036D1E225F325E0938300F09384003694D1
:100240002794E0918300E17021F0E8E0F4E82E26A5
:100250003F2629C0989902C0989A01C09898E0E07A
:100260009899E1E0EA9321D00895E881E17011F4D2
:10027000C79801C0C79AE881E695E17011F4C69865
:1002800001C0C69AE881E695E695E17011F4C5983B
:1002900001C0C59AE881E695E695E695E17011F40E
:1002A000C49801C0C49A219608951A93E981E03058
:1002B00051F410E0103130F4F4D08AEA8A95F1F765
:1002C0001F5FF8CF12C010E0103130F4EAD081E5A2
:1002D0008A95F1F71F5FF8CF10E01D3030F4E1D0C0
:1002E00081E58A95F1F71F5FF8CF1881229608956E
:1002F000AAD0EC32E9F7089532D158D0A4D0E43234
:10030000E9F7A1D0A0D09FD0E23509F04DC09BD035
:10031000ED3409F049C097D0E33409F045C0E8DF77
:10032000E7DFE6DFC5D00730E0E01E0744F4E02F4A
:10033000EB57EF9388D0AF91EC93BDD0F4CFD8DFDB
:1003400082D0E0938C00D4DFB3D00830E0E01E0709
:1003500044F4E02FE357EF9376D0AF91EC93ABD01A
:10036000F4CFC6DF70D0E09395002AD0A1D008303A
:10037000E0E01E075CF4F801E45EFF4F0F01A5E822
:10038000A00FEC91D001DBD096D0F1CF91D0093005
:10039000E0E01E074CF4D801AC5DBF4FE02FE357FF
:1003A000E081CDD088D0F3CFE0D00895E0E0EBB984
:1003B000E0E1EAB9E6E0E3B9E0E0E2B9EFE805C080
:1003C000E0E0EBB9EAB9E3B9E2B9E9B90895C7D019
:1003D000AA81B0E0E0E3FAE28AD066277727A0E0BE
:1003E000B0E081E090E093D075D08F01E02FECBDBC
:1003F000E12FF070EDBDB6D023960895E0E8E6BD9C
:10040000E0E0E6BDE8BBE8EFE7BBE9E0E2BBE0E344
:10041000E1BBE0E8E8B9EBBFE8E0E5BFE0E8EABF50
:10042000E5E0EEBDEA93D3DFE0E8E9BFE9E3E1BD53
:10043000E9E2E1BD959A25D0949A23D0959821D0F0
:100440007894FFCFFFCF5F9BFECFECB108950A9267
:100450001A92FA926A937A938A939A93AA93BA9386
:10046000EA93FA93EFB7EA9394980895FA93EA938C
:1004700025C0A2E7B0E058D00895A1E7B0E054D07D
:100480000895E4EFF1E0F2CFEA93A6CEE0E0E09346
:1004900080000895A12FB0E0089546D0F5CFF0E098
:1004A0000895E12FFCDFEA5DFF4FE491EA93DDCE92
:1004B00000E010E008950F5F1F4F0895E991F99152
:1004C000309639F08DEC9AE00197F1F7A8953197C5
:1004D000C9F70895EA1BFB0B680B790B0895EE230F
:1004E0000E2EEA2F19F0E6950A94E9F708950A2EE0
:1004F0001B2E81E1AA27BB1B05C010F4A00DB11D66
:10050000B695A795F795E7958A95B9F70895182EAA
:10051000862F612D192E972F712D1B2EBF2FF12D98
:100520001A2EAE2FE12D0895E199FECFFF93FFB76C
:10053000F894AEBBE09AEDB3FFBFFF910895E19B45
:1005400002C0A895FCCF9FB7F894AEBBE09A8DB3DC
:10055000E81719F0EDBBE29AE19A9FBF08951A934C
:100560000A930895198108810895099119910895B0
:00000001FF
