:080000000C9401010C940000B6
:100008000C9400000C9400000C9400000C94D40490
:100018000C9400000C9400000C9400000C94000058
:100028000C9400000C94AC040C9400000C94000098
:100038000C9400000C9400000C9400000C94000038
:100048000C9400000C9400000C9400006018067FCB
:100058007F0618601027E80364000A0001000010FA
:10006800000110000100050064009C0054756C69D3
:1000780073206B6520454550524F4D20002E2E2E83
:100088002020202020202020202020202000536510
:1000980074204B70203A202020202020202000535C
:1000A8006574204B69203A20202020202020200041
:1000B800536574204B64203A2020202020202020E3
:1000C80000536574204D4158205370656564203A8B
:1000D8002000536574204D494E2053706565642097
:1000E8003A20005761726E6120476172697320205F
:1000F800203A200053656E734C696E65203A2020C3
:100108002020202000536B656E6172696F203A20B1
:1001180020202020200020205365742050494420AE
:100128002020202020200020205365742053706553
:10013800656420202020200020205365742047611A
:100148007269732020202020002020536B656E6187
:1001580072696F20202020202000202053746172B3
:100168007421212020202020200020204B702020D6
:10017800204B692020204B642020002020204D4166
:1001880058202020204D494E202020002020574173
:10019800524E41203A20507574696820002020573B
:1001A80041524E41203A20486974616D2000202058
:1001B80053656E734C203A202020202020202000F8
:1001C800536B656E2E20796720206470616B653AE9
:1001D80000256420202025640020202020202020C5
:1001E8002020202020202020200080C001008E0117
:1001F8006E000200B001F2010000F894EE27ECBB9B
:10020800F1E0FBBFEBBFE5BFF8E1F1BDE1BD8DE07B
:10021800A2E0BB27ED938A95E9F780E094E0A0E699
:10022800ED930197E9F7E4EFF1E085919591009757
:1002380061F0A591B59105901590BF01F001059069
:100248000D920197E1F7FB01F0CFEFE5EDBFE4E098
:10025800EEBFC0E6D1E00C949B07E881E062E7B905
:1002680088E28A95F1F7369A349BFECF349AE5B145
:10027800219608951A930A93EA81EE0FEE0FEE0F76
:10028800E0640E2F10E0183070F40A930395EC81A7
:10029800FD813196EC83FD833197E491EA930E94C6
:1002A800120A1F5FF0CF19810881259608951A93C5
:1002B800A981B0E0E4E6F0E00E94BD0AE4E6F0E0DF
:1002C8000E94040CE983A981B0E0EAE0F0E00E9412
:1002D800BD0AEAE0F0E00E94040CE983E05D1E2F0D
:1002E8001A930E94380A1881229608950E94C70A14
:1002F800E4E7F0E00E94CC0AE5E8F0E00E94CC0ACE
:10030800EA810E94D00AD1F4E9810E94D00A21F43E
:10031800E881A0E0B0E00FC0E230A0E0FA0721F4E5
:10032800E881A1E0B0E007C0E330A0E0FA0729F4D3
:10033800E881A2E0B0E00E94390C35C0E230A0E0CC
:10034800FA0791F4E9810E94D00A21F4E881A3E038
:10035800B0E007C0E230A0E0FA0729F4E881A4E0A1
:10036800B0E00E94390C1FC0E330A0E0FA0791F416
:10037800E9810E94D00A21F4E881A5E0B0E007C035
:10038800E230A0E0FA0729F4E881A6E0B0E00E9494
:10039800390C09C0E430A0E0FA0729F4E881A7E0A5
:1003A800B0E00E94390C0E94D50A239608950E9455
:1003B800500C00E03FEF0E94290A0E94C70AED8115
:1003C8000E94D00A21F5EC810E94D00A39F4E6E9AE
:1003D800F0E00E94CC0AA0E0B0E015C0E230A0E056
:1003E800FA0739F4E7EAF0E00E94CC0AA1E0B0E0AD
:1003F8000AC0E330A0E0FA0749F4E8EBF0E00E9415
:10040800CC0AA2E0B0E00E942D0C1E2F4BC0E230B7
:10041800A0E0FA07D1F401E0EC810E94D00A39F497
:10042800E9ECF0E00E94CC0AA3E0B0E00AC0E230B8
:10043800A0E0FA0749F4EAEDF0E00E94CC0AA4E053
:10044800B0E00E942D0C1E2F2DC0E330A0E0FA076B
:10045800D9F4EC810E94D00A41F431E0EBEEF0E0EF
:100468000E94CC0AA5E0B0E00BC0E230A0E0FA0799
:1004780051F433E0ECEFF0E00E94CC0AA6E0B0E0E3
:100488000E942D0C1E2F0EC0E430A0E0FA0751F494
:10049800EDE0F1E00E94CC0AA7E0B0E00E942D0C4C
:1004A8001E2F38E0839B37C00E94DB0A0E94E10AB6
:1004B8001A93FDDE859909C00E94290AED81EA9305
:1004C800ED81EA931A9312DF26C0869912C0003094
:1004D80049F0103011F41FEF04C0E12FF0E0359718
:1004E8001E2F07C0303021F0103011F4132F01C037
:1004F800115084990FC0003031F01F3F11F410E003
:1005080001C01B5F07C0303021F0311711F410E033
:1005180001C01F5FC7CFE4E6F0E00E94E70A0E942F
:10052800290A0E94570C269608950E94290A0E94BB
:10053800EB0A0E94C70AEEE1F1E00E94CC0A0E9491
:10054800E10AEFE2F1E00E94CC0A0E94C70A0E9489
:10055800EE0A859905C00E94290AE1E0CE2E87C0DF
:10056800869B06C0849903C00E94290A64C0DFCF15
:100578000E94EB0A0E94C70AEEE1F1E00E94CC0A51
:100588000E94E10AEFE2F1E00E94CC0A0E94E10A2F
:100598000E94EE0A859906C00E94290AE1E0E093CC
:1005A8008101B4C0849BC3CF869903C00E94290AE5
:1005B80001C0DECF0E94EB0A0E94C70AE0E4F1E026
:1005C8000E94CC0A0E94E10AE1E5F1E00E94CC0A0F
:1005D8000E94C70A0E94EE0A859906C00E94290A4D
:1005E800E1E0E0938201EAC0849903C00E94290AED
:1005F800BFCF869B01C0DECF0E94EB0A0E94C70ACC
:10060800E0E4F1E00E94CC0A0E94E10AE1E5F1E0B1
:100618000E94CC0A0E94E10A0E94EE0A859903C052
:100628000E94290A2DC1849BC5CF869903C00E94C8
:10063800290A01C0E1CF0E94EB0A0E94C70AE2E63C
:10064800F1E00E94CC0A0E94C70A0E94EE0A85992E
:1006580003C00E94290A32C1849903C00E94290A52
:10066800CBCF869903C00E94290A61CFE4CF0E94AC
:10067800DB0A0E94C70AE2E7F1E00E94CC0A0E9466
:10068800F20AA0E0B0E00E94F60A0E94F20AA1E095
:10069800B0E00E94F60A0E94F20AA2E0B0E00E94CE
:1006A800F60A0E94F20AEC2D0E94D00A11F4E1E049
:1006B8000BC0E230A0E0FA0711F4E6E005C0E33031
:1006C800A0E0FA0721F4EBE0EA930E94FC0A85997E
:1006D80005C0E1E0EA93CA920E94010B849907C021
:1006E800E3E0EC1519F4E1E0CE2E01C0C39486993D
:1006F80007C0E1E0EC1519F4E3E0CE2E01C0CA947E
:10070800839903C00E94290A12CFB1CF0E94DB0A45
:100718000E94C70AE3E8F1E00E94CC0A0E94F20AAC
:100728000E94F20A0E94F20AA3E0B0E00E94F60AD0
:100738000E94F20A0E94F20A0E94F20AA4E0B0E0C3
:100748000E94F60A0E94F20A0E94F20AE0918101D0
:100758000E94D00A11F4E2E005C0E230A0E0FA07F6
:1007680021F4E9E0EA930E94FC0A859907C0E2E0D7
:10077800EA93E0918101EA930E94010B84990BC0EE
:10078800A0918101A23011F4E1E003C0E091810160
:10079800EF5FE093810186990BC0A0918101A130A0
:1007A80011F4E2E003C0E0918101E150E09381019E
:1007B800839903C00E94290ADBCEA8CF0E94DB0AD6
:1007C8000E94C70AA5E0B0E00E942D0CE13019F4A0
:1007D800E4E9F1E002C0E5EAF1E0FA93EA930E9465
:1007E800630A0E94E10AE6EBF1E00E94CC0AEAE023
:1007F800EA93E1E0EA930E94180AA6E0B0E00E94BA
:100808002D0CEA9354DDE09182010E94D00A19F47C
:10081800E0E0EA9307C0E230A0E0FA0741F4E0E044
:10082800EA93E1E0EA930E94180A0E94EE0A859989
:1008380007C0E3E0EA93E0918201EA930E94010B8A
:1008480084990BC0A0918201A23011F4E1E003C0A9
:10085800E0918201EF5FE093820186990BC0A0913D
:100868008201A13011F4E2E003C0E0918201E1507D
:10087800E0938201839903C00E94290A9BCE9ECFF0
:100888000E94DB0A0E94C70AE8ECF1E00E94CC0A49
:100898000E94E10AA7E0B0E00E942D0CEA9307DD70
:1008A800859906C0E4E0EA93E0E0EA930E94010B30
:1008B800839903C00E94290A9FCEE2CF0E94290A89
:1008C8000895E2E0EA93E1E0EA930E94180AAA2078
:1008D80011F0E1E301C0E0E3EA930E94380ABB208B
:1008E80011F0E1E301C0E0E3EA930E94380A8820AE
:1008F80011F0E1E301C0E0E3EA930E94380A99208D
:1009080011F0E1E301C0E0E3EA930E94380A6620AF
:1009180011F0E1E301C0E0E3EA930E94380A77208E
:1009280011F0E1E301C0E0E3EA930E94380A4420B1
:1009380011F0E1E301C0E0E3EA930E94380A552090
:1009480011F0E1E301C0E0E3EA930E94380A089558
:10095800AA93BA93EA93FA93EFB7EA93E0918301E3
:10096800EF5FE0938301E0918401F09185010E949B
:10097800040B14F0979A01C09798E0918601F091C2
:1009880087010E94040B14F0949A01C09498EFEF29
:10099800E2BFE991EFBFF991E991B991A991189551
:1009A8000A921A92FA926A937A938A939A93AA93DA
:1009B800BA93EA93FA93EFB7EA93EEE7E4BDEDE76B
:1009C800E0938F01E0939001E0939101E09392010D
:1009D800E0939301E0939401E0939501E0939601ED
:1009E800E0E0EA933ADC5E2EE1E0EA9336DC4E2E54
:1009F800E2E0EA9332DC7E2EE3E0EA932EDC6E2E10
:100A0800E4E0EA932ADC9E2EE5E0EA9326DC8E2ECB
:100A1800E6E0EA9322DCBE2EE7E0EA931EDCAE2E87
:100A2800E0918F015E1610F4552402C0E1E05E2EBD
:100A3800E09190014E1610F4442402C0E1E04E2EDD
:100A4800E09191017E1610F4772402C0E1E07E2E39
:100A5800E09192016E1610F4662402C0E1E06E2E59
:100A6800E09193019E1610F4992402C0E1E09E2EB5
:100A7800E09194018E1610F4882402C0E1E08E2ED5
:100A8800E0919501BE1610F4BB2402C0E1E0BE2E31
:100A9800E0919601AE1610F4AA2402C0E1E0AE2E51
:100AA800E991EFBFF991E991B991A991999189914A
:100AB80079916991F990199009901895939A969A55
:100AC80015C093989698929A04C09398929A08950C
:100AD8009698959A0895E0E0E0938601E09387015F
:100AE800E0938401E093850193989698929895985D
:100AF8000895ED2DF0E0EE3FA0E0FA0729F4E9EFC4
:100B0800FFEF0E940A0BB9C0E83FA0E0FA0721F006
:100B1800EC3FA0E0FA0729F4EAEFFFEF0E940A0B86
:100B2800ACC0ED3FA0E0FA0729F4EBEFFFEF0E941D
:100B38000A0BA3C0E13FA0E0FA0721F0E93FA0E0DB
:100B4800FA0729F4ECEFFFEF0E940A0B96C0EB3F7F
:100B5800A0E0FA0729F4EDEFFFEF0E940A0B8DC021
:100B6800E33EA0E0FA0721F0E33FA0E0FA0729F40A
:100B7800EEEFFFEF0E940A0B80C0E73FA0E0FA0704
:100B880029F4EFEFFFEF0E940A0B77C0E73EA0E0E1
:100B9800FA0739F4E0E0E0939F01E093A0018EDFCB
:100BA8006CC0EF3EA0E0FA0729F4E1E0F0E00E9413
:100BB8000A0B63C0E73CA0E0FA0721F0EF3CA0E095
:100BC800FA0729F4E2E0F0E00E940A0B56C0EF3D74
:100BD800A0E0FA0729F4E3E0F0E00E940A0B4DC018
:100BE800EF38A0E0FA0721F0EF39A0E0FA0729F47E
:100BF800E4E0F0E00E940A0B40C0EF3BA0E0FA07F7
:100C080029F4E5E0F0E00E940A0B37C0EF31A0E0DC
:100C1800FA0721F0EF33A0E0FA0729F4E6E0F0E064
:100C28000E940A0B2AC0EF37A0E0FA0729F4E7E090
:100C3800F0E00E940A0B21C0EF3FA0E0FA07E9F4B8
:100C4800A091A001AA2342F40E94100BE9EBF0E066
:100C58000E94170B3DDFFDC0A0919F01B091A0013C
:100C68000E944A0C54F4E4EBF0E00E941C0BEBE900
:100C7800F0E00E94170B29DFECC0E091AD01F0E035
:100C8800A0919F01B091A001EA1BFB0BE093A10189
:100C9800F093A2010E94210BA091A701B091A80195
:100CA8000E94260BE0939901F0939A010E94210B70
:100CB800A0919B01B0919C01EA0FFB1FE0939B015F
:100CC800F0939C01E091A901F091AA01A0919B01E8
:100CD800B0919C010E94260BE0939B01F0939C012C
:100CE800A091A301B091A4010E94210BEA1BFB0B68
:100CF800E093A501F093A601E091AB01F091AC015E
:100D0800A091A501B091A6010E94260BE0939D0138
:100D1800F0939E010E94210BE093A301F093A4019C
:100D2800E0919B01F0919C01A0919901B0919A01E9
:100D3800EA0FFB1FA0919D01B0919E01EA0FFB1FD6
:100D4800E0939701F09398010E942E0B309751F48D
:100D5800E0918E01F0E00E94330BA0938401B093E0
:100D6800850171C00E943A0B0E944A0CDCF50E9472
:100D78003F0B0E94330BA0938601B09387010E941A
:100D8800480B0E94330B1F97E0918E01F0E0AE1BD9
:100D9800BF0BA0938401B09385010E94500B0E9461
:100DA800550BAE17BF0724F40E94500B0E941C0B72
:100DB8000E945A0B0E94550BEA17FB0724F40E9465
:100DC8005A0B0E941C0B0E945F0B24F40E94500BCC
:100DD8000E94170B0E94670B24F40E945A0B0E9472
:100DE800170B37C0A0919801AA239AF50E943F0BD0
:100DF8000E946F0B0E941C0B0E94480B3F970E9499
:100E08006F0B0E94170B0E94500B0E94550BAE17D8
:100E1800BF0724F40E94500B0E941C0B0E945A0B1F
:100E28000E94550BEA17FB0724F40E945A0B0E94F4
:100E38001C0B0E945F0B24F40E94500B0E94170B9E
:100E48000E94670B34F4E0918801F09189010E94B7
:100E5800170BE0E6F1E0FA93EA93E9EDF1E0FA9393
:100E6800EA93E0918401F09185010E94DA0B0E94D7
:100E7800280CE0918601F09187010E94DA0B0E940C
:100E8800280C88E00E94AB092C960E94C70AE1EE64
:100E9800F1E00E94CC0A0E94C70AE0E6F1E0FA936A
:100EA800EA930E94560AE5E0F0E00E94E70A0895F6
:100EB80012DEE8E7F0E00E941C0BE8E7F0E00E9491
:100EC800170BFFDD809B05C0819B03C0EFEFED157D
:100ED800C9F301DE0E94100BEBE9F0E00E94170B4A
:100EE800E881E03031F0EFEFED1511F4EEDDFBCFE6
:100EF80005C0EFEFED1511F4EBDDFBCFE0E0E0937B
:100F0800AE01E093AF01A091AE01B091AF01A63957
:100F1800E0E0BE0754F4EDDDE1E0F0E00E94E70A0E
:100F2800AEEAB1E00E94760BEECF0C94A60AE0E0A0
:100F3800EBBBEABBE8BBEFEFE7BBE3E0E5BBE0E018
:100F4800E4BBEFEFE2BBE0E0E1BBE1E4E9BFE0E8EE
:100F5800E8B9E0E0E0BFE0E2E7B9E4E8E6B9E0E1FB
:100F6800EA930E94740AE4E5F0E0FA93EA93E0E079
:100F7800EA9380D9E0E0E3BFAEDDC39AE8EEF3E0A0
:100F88000E94E70AC398E8EEF3E00E94E70AC39AD2
:100F9800CCDAE5E0E3BFE0E0E2BFECBFE2BDE7E0CA
:100FA800E5BDEFEFE4BDE0E0E3BDA0E0B0E00E9406
:100FB8007C0BE093A701F093A801A1E0B0E00E94A8
:100FC8007C0BE093A901F093AA01A2E0B0E00E9493
:100FD8007C0BE093AB01F093AC01A3E0B0E00E947E
:100FE8007C0B3196E0938801F0938901A4E0B0E08E
:100FF8000E947C0BE0938A01F0938B01A3E0B0E0A0
:101008000E942D0C0E2E1124A4E0B0E00E947C0B4F
:10101800D001AE1BBF0BE8E0F0E00E94FF0BE093AD
:101028008C01F0938D01E0E0E0939F01E093A00133
:10103800E093A101E093A201E093A301E093A4014E
:10104800C398E5E0E3BF789439DD3BDC809903C0C1
:10105800EFEFED1509F002C0E0E007C0819903C089
:10106800EFEFED1509F003C0E1E0EA9321DF41DD80
:10107800ECCFFFCF1A930A93AA81BB8112960E94E4
:10108800200C309729F1AA81BB8114960E94200C6C
:101098008F01309761F00230E0E01E07C0F0F801E0
:1010A80031978F01AA81BB811496ED93FC93AA8195
:1010B800BB8112960E94760B3197AC81A083AA81DE
:1010C800BB810E94200CFF2312F00E94760B06C001
:1010D800AA81BB81EFEFFFEFED93FC9319810881A3
:1010E8002596089526970E944E0C10E0AC85BD8584
:1010F800E0E0F0E0ED93FC93EA89FB893196EA8B16
:10110800FB8B3197E4912E2FE03011F40C94A30956
:10111800E12FE03039F4253211F411E002C00E94C9
:10112800800B0CC1E130A9F4253219F40E94800B20
:1011380004C112E040E000E02D3211F401E0FEC0ED
:101148002B3211F44BE2FAC0203211F440E2F6C01F
:1011580002C0E23039F450E013E0203311F40068A3
:10116800EDC004C0E33011F00C94A209203310F054
:101178002A3308F007C0AAE05A9F502DE22FE05307
:101188005E0FDCC0E22FE33649F40E94890BE88940
:10119800F989A481AA930E948F0BCFC0E33741F449
:1011A8000E94890B0E94970B0E94A80A1E2F0AC052
:1011B800E03761F40E94890B0E94970B0E94B20AE3
:1011C8001E2F086002600F7730E035C0E43611F05A
:1011D800E93611F4046002C0E53731F4ECE5F0E0DB
:1011E800EE83FF8315E00DC0E83511F4086004C0F4
:1011F800E83711F00C94A109E6E6F0E0EE83FF83EE
:1012080014E002FF14C00E94890B0E94A10BAB8559
:10121800AA233AF4EA85FB850E94D60BEA87FB8766
:101228004DE2403011F01F5F01C00B7F04C00E94E7
:10123800890B0E94A10B00FD11C0151778F407FF58
:1012480008C002FF04C00B7F242F115001C020E307
:1012580001C020E20E94800B5150EFCF312F01FFD7
:1012680017C03030A1F003FF06C0EE81FF81259141
:10127800EE83FF8305C0AE81BF812D91AE83BF830E
:101288000E94800B503009F051503150EACF4BC0CA
:1012980020E3EE81FF810E94240CE887F987EE8124
:1012A800FF813296EE83FF83E885F985AA85BB85A1
:1012B800AE17BF0750F02F5FA885B985EA85FB8573
:1012C800EA1BFB0BEA87FB87EFCF2A3328F003FFE3
:1012D80002C0295F01C0295D04FD1AC0213320F432
:1012E800A885B985119709F409C0531710F000FFB4
:1012F80001C013C020E207FF0BC020E3006102FF1A
:1013080007C00B7F4A930E948F0B503009F0515051
:101318000E94800B503009F051503150A885B98592
:10132800129708F0B5CF00FF08C0503031F0515087
:10133800E0E2EA930E948F0BF8CF10E0DDCEAC8597
:10134800BD850E94200C0E94550C64960895FF925A
:10135800F82E26970E94500C0E94A90B309719F47A
:10136800EFEFFFEF25C0DE0116960E94D20B8D012C
:101378000E94A90BEE83FF83E0E0E887E987DE019E
:101388001A960E94D20B0E94200CFA93EA931A93A1
:101398000A93EEE3F8E0FA93EA93FE013A96FA9399
:1013A800EA93A0DE9F01AE81BF81E0E0EC93F901F2
:1013B8000E94570C2A96FF900895E881E07111F079
:1013C800C49A01C0C498E881E07211F0C59A01C0BE
:1013D800C598E881E07411F0C69A01C0C698E88102
:1013E800E07811F0C79A01C0C79888E08A95F1F7AC
:1013F800C29A84E18A95F1F7C29884E18A95F1F757
:10140800A1C0E881EA93D9DFE881E295E883E88121
:10141800EA93D3DF88EC8A95F1F794C0E981EA93DF
:10142800F0DF0E94B00B0FC0E881F0E0E055FE4FFE
:10143800E081A981EA0FEA93E4DFE981E093B4014E
:10144800E881E093B50122960895E2E00E94B70B87
:10145800ECE0EA93D6DFE1E00E94B70BE0E0E0932E
:10146800B501E093B4010895A881AA3031F0E09164
:10147800B601A091B401AE1768F0E0E0EA93E091FC
:10148800B501EF5FE093B501EA93CEDFA881AA30FA
:1014980009F458C0E091B401EF5FE093B4010E94F1
:1014A800B00B50C01A93A981BA81ED91A983BA8370
:1014B8001E2FE03019F01A93D7DFF5CF0EC01A931C
:1014C800E981FA813196E983FA833197E4911E2FF5
:1014D800E03019F01A93C8DFF3CF188123960895E6
:1014E800BC9ABD9ABE9ABF9ABA9AB89AB99AC29843
:1014F800C098C198E881E093B601E058E093B20142
:10150800E881E054E093B301E4E1F0E00E94E70AE7
:101518000E94BD0B0E94BD0B0E94BD0BE0E2EA9346
:101528004CDF8CE291E00197F1F7E8E2EA9369DF9A
:10153800E4E0EA9366DFE5E8EA9363DFE6E0EA934E
:1015480060DF83DF21960895A991B991EE27FF27DF
:101558006D91662311F03196FBCF0895AA27BB271A
:10156800E991F9910590002011F01196FBCFFD014A
:1015780008950E94FF0B1E2F105D1A930E94380ACF
:10158800A981BB270895E0E0EA93EA930C94180A2E
:10159800FA93EA930C94630AF0E0E130A0E0FA07CA
:1015A8000895E8ECF0E0FA93EA930C94C60BE6E9A8
:1015B800F0E0FA93EA930C94C60BE0E0EA93E1E0DA
:1015C800EA930C94180AFA93EA930C94C60BEDE785
:1015D800F0E0F9CFE0E0EA930C94380AE0E2EA930D
:1015E8000C94380A0E942D0CEA930E945B01F6CFF6
:1015F800E0E0EA930E94180AEDCF0E94DB01D1CF08
:10160800A0918301B0E0EA17FB070895E0939F01DA
:10161800F093A0010C946205E6E9F0E0E093840100
:10162800F09385010895E0938601F093870108956A
:10163800E0938401F09385010895E091A101F09170
:10164800A20108950E94E70BDF01EAE0F0E00E94A2
:10165800FF0B0895E0919701F09198010895A091EA
:101668008801B0918901AE1BBF0B0895A091970125
:10167800B09198010895E0918C01F0918D017497D3
:10168800F5DF0E94E70B0895E5DFA0918C01B0918A
:101698008D010E94E70B0895E0918A01F0918B017A
:1016A8000895A0918401B09185010895E091880181
:1016B800F09189010895F0DFA0918601B09187012A
:1016C800AE17BF070895F2DFA0918601B091870198
:1016D800EA17FB070895A0918801B0918901EA0FE4
:1016E800FB1F0895ED91FD913196FE93EE930895B9
:1016F8000E942D0CF0E008952A93ED85FE85FA935B
:10170800EA93E989FA8909950895E889F989349766
:10171800E88BF98B0895ED85FE85FA93EA93E989BC
:10172800FA8909950895A889B98914960E94200C08
:10173800EE83FF83FA93EA930895A889B9891496EA
:101748000E94200CEA87FB870895DE011C960E9400
:10175800D20B0E94200C0895C09AE881EA930E9457
:10176800050AC0980895EA930E94050AE3E0F0E0AC
:101778002ACFE0E3EA930E94E1098CE291E0019725
:10178800F1F70895E991F991309639F088EB9BE0EB
:101798000197F1F7A8953197C9F708950024AF0D7F
:1017A800B01D0895F195E195F04008956F2F660FEB
:1017B800660B762F0895FA9FF02DEB9FF00DEA9FA8
:1017C800E02DF10D08952AD0F6DF0EF4EBDF089531
:1017D8000024112490E1AA0FBB1F001C111C0E1A33
:1017E8001F0A18F40E0E1F1E01C0A1609A9599F7E2
:1017F800FD01D001089512D0EBDF0EF4D3DF089578
:10180800E894B7FF04C0A095B09511966894F7FDC9
:10181800C9DFDEDFFD010EF4C5DF0895E894F7FFA8
:1018280002C0C0DF6894B7FF06C0A095B0951196B6
:1018380000F8039400FA0895ED91FC91119708952A
:101848000590F491E02D08957A936A93FA93EA93B8
:101858000895E199FECFFF93FFB7F894AEBBBFBBE5
:10186800E09AEDB3FFBFFF910895E19B02C0A895F0
:10187800FCCF9FB7F894AEBBBFBBE09A8DB3E81717
:1018880019F0EDBBE29AE19A9FBF089500240A1669
:101898000B0608955A934A933A932A931A930A93F4
:1018A80008955D814C813B812A81198108810895C1
:00000001FF
