:060000000C9438000C9482
:1000060000000C9400000C9400000C9400000C946A
:1000160000000C9400000C9400000C9400000C945A
:1000260000000C9400000C9400000C9400000C944A
:1000360000000C9400000C9400000C9400000C943A
:1000460000000C9400000C9400000C940000102793
:10005600E80364000A00010000100001100001001E
:1000660000000100050066000000F894EE27ECBBD6
:10007600F1E0FBBFEBBFE5BFF8E1F1BDE1BD8DE00F
:10008600A2E0BB27ED938A95E9F780E098E0A0E629
:10009600ED930197E9F7E8E6F0E0859195910097F1
:1000A60061F0A591B59105901590BF01F0010590FD
:1000B6000D920197E1F7FB01F0CFEFE5EDBFE8E028
:1000C600EEBFC0E6D2E00C947600E0E0EBB9E8EDD6
:1000D600EAB9E6E8E0BDE2E0E0BDEFE3E9B908959C
:1000E600A898A99A0895E0E0EBBBE1E8EABBE0E056
:1000F600E8BBE7BBE5BBE4BBE1E0E2BBE0E0E1BBBC
:10010600E4DFEEDF15D0E43211F4D89A0FC010D038
:10011600EE3761F4E3E0E51541F4D898EAEFF0E054
:10012600FA93EA930E949F0055245394EBCFFFCF96
:100136005F9BFECFECB10895E991F991309639F0C5
:100146008DEC9AE00197F1F7A8953197C9F70895D4
:00000001FF
