:100000000C94BF000C9400000C9400000C940000B1
:100010000C9400000C9400000C9400000C94000060
:100020000C9400000C9400000C9400000C94EF0061
:100030000C9400000C940A010C9400000C9429010B
:100040000C9400000C9400000C9400000C94000030
:100050000C9400001027E80364000A00010000105F
:100060000001100001000000000000004D6F6465F9
:10007000204D616E75616C20203C3D3D004D6F64EC
:1000800065204175746F6D617420202020004D6FD4
:100090006465204D616E75616C2020202020004D2C
:1000A0006F6465204175746F6D6174203C3D3D0047
:1000B00052554E203F3F3F00454E54455220414748
:1000C00041494E2E2E00486974756E67206D756E1D
:1000D0006475720077616B7475203D20256400574C
:1000E000414B545520484142495320212100414E63
:1000F000414C595A494E4700256420256420256407
:1001000020256400434F4D504C4554452E2E21214F
:10011000005761697420436F6D6D616E6400416EBC
:1001200074656E205020416E616C797A6572002092
:10013000546563686E6F2020416E74656E612000A7
:100140002054656B6E696B2020466973696B612072
:1001500000202020205520204720204D2020202036
:10016000000080C00100020066000D006002110165
:100170000400040068000200D40262010000F89448
:10018000EE27ECBBF1E0FBBFEBBFE5BFF8E1F1BD53
:10019000E1BD8DE0A2E0BB27ED938A95E9F780E011
:1001A00098E0A0E6ED930197E9F7E4E6F1E08591A8
:1001B0009591009761F0A591B59105901590BF01BB
:1001C000F00105900D920197E1F7FB01F0CFEFE50B
:1001D000EDBFE8E0EEBFC0E6D2E00C943C010E9427
:1001E0006A02EAE6E2BFF30131963F01E0E1F7E29D
:1001F000E615F70561F466247724F20131962F01A4
:10020000E8E7F0E0E415F50510F4442455240E94D5
:100210006F0218950E946A021A930A931BB10CB1DF
:10022000E12FEC7189F4E92DF0E0E359FD4F0083F3
:100230009394E8E0E91509F49924B394E8E0EB1508
:1002400019F4BB24689420F8099119910E946F0257
:1002500018950E946A02CC2061F0CA94ED2DF0E05E
:10026000EB58FD4FE081ECB9D394E8E0ED1509F4CB
:10027000DD240E946F021895E0E6EBBBE0E1EABBEB
:10028000E0E0E8BBEFEFE7BBE0E0E5BBEFEFE4BBAE
:10029000E3E0E2BBEEEFE1BBE2E0E3BFEAE6E2BFB0
:1002A000E0E0ECBFE1E0E9BFE0E0EBB9E8E1EAB9AA
:1002B000E6E8E0BDE0E0E0BDEDE4E9B9E0E8E8B99A
:1002C000E0E0E0BFE0E2E7B9E4E8E6B9E0E1EA93C4
:1002D000CDD08BD0EEE1F1E00E9474020E94780252
:1002E000EFE2F1E00E947402E4EFF1E00E947E028E
:1002F0007CD0E0E4F1E00E9474020E947802E1E523
:10030000F1E00E947402E0E0E0939D027894E0E066
:10031000E8BBC49A0E9482020E9486020E948B025D
:100320000E949002C398C59A0E9482020E9486028F
:100330000E948B020E949002C398C69A0E94820279
:100340000E9486020E948B020E949002C398C79A64
:100350000E9482020E9486020E948B020E949002EA
:10036000C398D5CFFFCFE881E07111F0AC9A01C0FE
:10037000AC98E881E07211F0AD9A01C0AD98E881C7
:10038000E07411F0AE9A01C0AE98E881E07811F007
:10039000AF9A01C0AF9888E08A95F1F7AA9A84E1F4
:1003A0008A95F1F7AA9884E18A95F1F791C0E881DE
:1003B000EA93D9DFE881E295E883E881EA93D3DF25
:1003C00088EC8A95F1F784C0E881F0E0EC52FD4FAB
:1003D000E081A981EA0FEA93EADFE981E093D8029C
:1003E000E881E093D90222960895E2E00E94950206
:1003F000ECE0EA93DCDFE1E00E949502E0E0E093CC
:10040000D902E093D8020895A881AA3031F0E09192
:10041000DA02A091D802AE1768F0E0E0EA93E0912A
:10042000D902EF5FE093D902EA93CEDFA881AA3028
:1004300009F44EC0E091D802EF5FE093D802A89A89
:10044000E881EA93B4DFA89843C01A93E981FA815E
:100450003196E983FA833197E4911E2FE03019F049
:100460001A93D2DFF3CF188123960895A49AA59A00
:10047000A69AA79AA29AA09AA19AAA98A898A99887
:10048000E881E093DA02E058E093D602E881E05494
:10049000E093D702E4E1F0E00E947E020E949B021A
:1004A0000E949B020E949B02E0E2EA935CDF8CE2E6
:1004B00091E00197F1F7E8E2EA9379DFE4E0EA936B
:1004C00076DFE5E8EA9373DFE6E0EA9370DF8DDF3D
:1004D00021960895EA93FA93EFB7EA930895E99184
:1004E000EFBFF991E9910895FA93EA930C942502EC
:1004F000E0E0EA93E1E0EA930C94E401FA93EA93F2
:100500000C94A402C09AE8EEF3E0F8CFC098C19A28
:10051000E8EEF3E0F3CFC198C29AE8EEF3E0EECF55
:10052000C298C39AE8EEF3E0E9CFEA930E94D701BC
:10053000E3E0F0E0E3CFE0E3EA930E94B3018CE272
:1005400091E00197F1F70895E991F991309639F02A
:1005500088EB9BE00197F1F7A8953197C9F70895CB
:00000001FF
