:0E0000000C944E000C9400000C9400000C9424
:10000E0000000C9400000C9400000C9400000C9462
:10001E0000000C9400000C9400000C9400000C9452
:10002E0000000C9400000C947E000C9400000C94C4
:10003E0000000C9400000C9400000C9400000C9432
:10004E0000000C94000080C0746573207472616EA1
:10005E00736665722073657269616C206461746188
:10006E0020737472696E67206D656C616C756920A2
:10007E006D6F64756C6173692046534B20230000CD
:10008E003700680156000200CC0154000000F894BD
:10009E00EE27ECBBF1E0FBBFEBBFE5BFF8E1F1BD36
:1000AE00E1BD8DE0A2E0BB27ED938A95E9F780E0F4
:1000BE0094E0A0E6ED930197E9F7EEE8F0E0859184
:1000CE009591009761F0A591B59105901590BF019E
:1000DE00F00105900D920197E1F7FB01F0CFEFE5EE
:1000EE00EDBFE4E0EEBFC0E6D1E00C940F01EA9361
:1000FE00FA93EFB7EA93992061F09A94E62DF0E027
:10010E00E05AFE4FE081ECB96394E8E0E61509F49D
:10011E006624E991EFBFF991E9911895E8E0E915A8
:10012E00E9F3F894992011F45D990DC0E72DF0E0F4
:10013E00E05AFE4FA881A0837394E8E0E71509F416
:10014E007724939402C0E881ECB9789421960895AF
:10015E0044245524E8E6F1E0FA93EA930E9419024A
:10016E004E165F0610F00C94FF00929AE4EFF1E049
:10017E000E9405020E940902EC91EA930E949500EA
:10018E00E4E1F0E04E165F061CF44A92E0E01DC07A
:10019E00E8E2F0E04E165F062CF4F2017497EA9353
:1001AE00E1E013C0ECE3F0E04E165F062CF4F20132
:1001BE00B897EA93E2E009C0E0E5F0E04E165F067C
:1001CE003CF4F201FC97EA93E3E0EA930E94790192
:1001DE000E940902AC91A33231F00E940902EC9107
:1001EE00EA930E949F01F20131962F013197B2CF0F
:1001FE009298ECE2F1E00E9405020E9489010895B6
:10020E00E881F981FA93EA930E94230222960895D7
:10021E00E0E0EBBBEFEFEABBE1E0E2BBE6E0E1BB27
:10022E00E0E0EBB9E8E4EAB9E6E8E0BDE9E0E0BD1C
:10023E00E3ECE9B9E0E8E8B9E0E0E0BFE4E1EA9335
:10024E000E94CA017894E4E1F5E00E9405020E9442
:10025E00AF00F9CFFFCFFFE0FA95F1F70895AAB3FB
:10026E00AF70AABBD99AD8980E943201DA9A0E942E
:10027E003201A9B3DA980E943201DA9A0E94320151
:10028E00DA98A7FDF1CF0895A07FAB2BABBBDA9A1E
:10029E000E943201DA980E9432010895D998AAB3C9
:1002AE00A76FAABBBBB3BF70A8810E944B01A881E8
:1002BE00A2950E944B01D99A21960895DA9A0E942E
:1002CE003201E9B3DA980E943201E07F08950E946C
:1002DE0032010E946501AE2F0E946501D998E29508
:1002EE00EA2B08950E943601E881F0E0E453FE4FB8
:1002FE00E081A981EA0FEA930E9455018980B880B6
:10030E00229608950E943601E2E0EA930E9455017A
:10031E000E943601ECE0EA930E9455010E943601DC
:10032E00E1E0EA930E945501E0E0BE2E8E2E089584
:10033E00EF93FF93A8816894AA3021F0E8948394F8
:10034E00A81438F4B394E0E0EA93BA920E947901CB
:10035E002EF085DFD89AA881AA93A0DFFF91EF91A6
:10036E0021960895AA27BB271197F1F70895D998DA
:10037E00AAB3A76FAABBBBB3BF70A8810E944B01E3
:10038E00D99A21960895DA98D898A880E881E058ED
:10039E00E093CE01E881E054E093CF010E940E027B
:1003AE000E940E020E940E020E94B901E0E2EA9340
:1003BE000E94BE010E94B901E8E20E941402E4E02C
:1003CE000E941402E5E80E941402AAB3AF70AABB01
:1003DE00D99A0E946E01E53011F0E0E009C00E944A
:1003EE003601E6E0EA930E9455010E948901E1E0A0
:1003FE00219608955F9BFECFECB10895FA93EA9390
:10040E000C940701A8E6B1E0A40DB51D08950E9455
:10041E00B901E0E3EA930C94BE01EA930E94550100
:10042E000C94B901A991B991EE27FF276D9166231E
:10043E0011F03196FBCF0895E991F991309639F08C
:10044E0088EB9BE00197F1F7A8953197C9F70895CE
:00000001FF
