:0400000039C1FECF35
:10000400FDCFFCCFFBCFFACFF9CFF8CFD7C8F6CFCF
:10001400F5CFF4CFF3CFF2CFF1CFF0CFEFCFEECFD8
:10002400EDCF1027E80364000A000100001000016E
:100034001000010000003032302E30433031332EB6
:10004400385621215700596F75722050726F5472BF
:10005400616B21206D6F64656C204120436F6E6677
:10006400696775726174696F6E2069733A004361E0
:100074006C6C7369676E00446967692050617468C9
:1000840028732900545820496E74657276616C0097
:100094007365636F6E642873290020697320746F1D
:1000A4006F206C6F6E670053796D626F6C202F2028
:1000B40049636F6E0053796D626F6C205461626C9A
:1000C40065202F204F7665726C617900436F6D6DEA
:1000D400656E740053746174757300537461747540
:1000E4007320496E74657276616C007472616E730C
:1000F4006D697373696F6E28732900424153452DEE
:100104003931203F2028592F4E29004E4F20475087
:100114005320436F6F7264696E6174650055736533
:1001240020475053203F2028592F4E2900446970FE
:100134006C6179204261747465727920566F6C74B5
:1001440061676520696E20436F6D6D656E74203F35
:100154002028592F4E29004469706C617920546518
:100164006D706572617475726520696E20436F6D80
:100174006D656E74203F2028592F4E290053656EFB
:100184006420416C746974756465203F2028592F7C
:100194004E290053656E642054656D7065726174F8
:1001A40075726520616E6420426174746572792091
:1001B400566F6C7461676520746F205043203F2034
:1001C40028592F4E2900454E544552494E47204345
:1001D4004F4E46494755524154494F4E204D4F4486
:1001E400452E2E2E00434F4E4649475552452E2E3E
:1001F4002E00534156494E4720434F4E46494755DA
:10020400524154494F4E2E2E2E00434F4E464947DD
:10021400205355434345535320210054656D706565
:10022400726174757265202020202020203A0042DB
:1002340061747465727920566F6C746167652020EF
:10024400203A000001002D4E414E00494E46000068
:1002540001000200380006001C033A0006002303D4
:10026400400003002A034600010032034802000054
:10027400F894EE27ECBBF1E0FBBFEBBFE5BFF8E180
:10028400F1BDE1BD8DE0A2E0BB27ED938A95E9F7CE
:1002940080E094E0A0E6ED930197E9F7E4E5F2E06D
:1002A40085919591009761F0A591B5910590159070
:1002B400BF01F00105900D920197E1F7FB01F0CF2A
:1002C400EFE5EDBFE4E0EEBFCCE1D3E0B5C777DE08
:1002D400E1E0EA930CD3A5E0B0E05AD9EFE6F2E10D
:1002E40063E87FE35CD911F4E0E202C0E32FE05D50
:1002F400E0931C03203011F4303009F002C0E0E236
:1003040002C0E22FE05DE0931D03E52FE05DE09382
:100314001E03E42FE05DE093200326C050DEE0E0FE
:10032400EA93E5D2AEE6B0E033D9EDECFCEC6CEC4C
:1003340072E435D911F4E0E202C0E32FE05DE0930A
:100344002303203011F4303009F002C0E0E202C08F
:10035400E22FE05DE0932403E52FE05DE0932503C5
:10036400E42FE05DE093270331DE269608952C9771
:1003740028DEA8EFB0E034D936D9A9EFB0E030D9FF
:10038400E00D1E2FAAEFB0E02BD92DD9ABEFB0E0D2
:1003940027D9E00D0E2FADEFB0E022D927D929D906
:1003A4007F936F93FF93EF93AEEFB0E019D927D902
:1003B400AF91BF918F919F91EEDB7F936F93FF93EA
:1003C400EF93AFEFB0E00CD921D9AF91BF918F91EA
:1003D4009F91E1DBEC87FD876E877F87AFEFB0E00D
:1003E400BFDDEE3411F419D901C01CD93E2FE02F22
:1003F400FDD81DD91FD9A12FFADC9EDDCCDB7F935C
:100404006F93FF93EF93EC85FD856E857F8518D9F7
:10041400AF91BF918F919F91BEDBEC83FD836E837F
:100424007F83E32F19D9E2D806DCA0E0B0E084EBA7
:1004340092E417D9A0ECBFEF89EB98E4FCDBE887E2
:10044400F9876A877B8710D914D918D9A3E1B1E059
:100454001CD923D9A4E1B1E018D928D9A5E1B1E088
:1004640014D930D9A6E1B1E039D9B2DD6096089546
:1004740064971A93A3E0B1E0B3D8A4E6EA02602D2E
:10048400A4E0B1E0ADD8AAE0EA02F001E60F0E2E36
:10049400A5E0B1E0A5D8E00DA9D8E98BFA8B6B8B68
:1004A4007C8BA6E0B1E09CD89ED8A7E0B1E098D8B8
:1004B400E00D9CD8ED87FE876F87788BA9E0B1E0CB
:1004C4008FD894D896D87F936F93FF93EF93AAE035
:1004D400B1E086D894D8AF91BF918F919F915BDBA7
:1004E4007F936F93FF93EF93ABE0B1E079D88ED80D
:1004F400AF91BF918F919F914EDBE987FA876B870C
:100504007C87ABE0B1E02CDDE53411F486D801C082
:1005140089D81E2FAD85BE858F8598898BD8A989EA
:10052400BA898B899C8937DB7F936F93FF93EF9311
:10053400E985FA856B857C8583D8AF91BF918F91CE
:100544009F9129DBE983FA836B837C83E12FA98163
:10055400BA818B819C814AD86EDBA0E0B0E084E351
:1005640093E47FD8A0ECBFEF89E398E464DBED83E8
:10057400FE836F837887AD81BE818F81988579D81A
:100584007DD8A7E1B1E0AAD8ACD887D8A8E1B1E07A
:10059400A5D8A7D88BD8A9E1B1E0A0D8A2D892D881
:1005A400AAE1B1E09BD81881659608950CDDAFE00F
:1005B400B1E0D2DC66277727B4DA99D83CDBB5DC26
:1005C4000FD7A0E0B0E48AEF93E435DB73DA8F0150
:1005D400D801EBE5F0E051DCEF5DE0932A03D801AC
:1005E400EBE5F0E04FDCEF5DE0932B03F6DC0895E0
:1005F40083D8173034F483D8AE5FBF4F83D81F5FDE
:10060400F8CFF4C279D8173034F479D8A75FBF4F44
:1006140079D81F5FF8CFEAC26FD816302CF46FD8A0
:1006240074D877D81F5FF9CFA8E1B0E099DCE03344
:1006340010F0EA3328F0E13410F0EB3508F040C054
:100644006BD867D810E016302CF459D869D861D823
:100654001F5FF9CFA0E2B0E083DCE03310F0EA33AF
:1006640028F0E13410F0EB3508F027C05DD851D8FC
:1006740010E016302CF443D85BD84BD81F5FF9CF69
:10068400A8E2B0E06DDCE03310F0EA3328F0E134A6
:1006940010F0EB3508F00DC04FD862DC3AD810E00A
:1006A40016302CF42CD84BD834D81F5FF9CF4BD844
:1006B40001C042D855DC4AD802C036D847D802C057
:1006C4002BD844D8E3E046D8E0EF44D88FC21A933D
:1006D4008FDFA2DFEEE33ED810E03ED84CF40FD813
:1006E40040D842D819F00BD83CD80CD81F5FF5CFAE
:1006F4007DC21A9387DF90DF10E02ED82CF4FFD749
:1007040030D800D81F5FF9CF71C21A93C59AE4E6B6
:10071400F0E02DD87BD910E01D3224F4E0E01AD8A3
:100724001F5FFACFEEE716D825D8EFEFFFEF7E2E46
:100734008F2E5CC21A93CBDDF1DD19DE99DE36DF34
:100744001DD86394E2DFE2E0E61509F469C0E3E052
:10075400E61511F4CEDF65C0E1E0E61519F011D815
:1007640009F45CC045DF58DFEDE3F4D7A0E0B0E066
:10077400C9D710E0143034F4C2D7AD5EBE4FC2D72F
:100784001F5FF8CF10E0143034F4B9D7A95EBE4F20
:10079400B9D71F5FF8CFA1E0B0E0B4D710E01330B1
:1007A4003CF4F9D7E65DFC4FE081D4D71F5FF7CF67
:1007B400AFE1B1E0F3D791F410E016306CF4EBD76D
:1007C400E45EFC4FA081A03229F0E5D7E45EFC4F43
:1007D400E081C0D71F5FF1CFE0E2BCD7AEE1B1E06A
:1007E400DDD791F410E016306CF4D5D7ED5DFC4FF5
:1007F400A081A03229F0CFD7ED5DFC4FE081AAD7CC
:100804001F5FF1CFE0E2A6D710E0CBD734F477D75F
:10081400A05DBF4F77D71F5FF8CF03C0B2D709F4ED
:1008240056DF0BD0EEE796D7EEE794D7E4E6E6156D
:1008340009F46624C598BAD7D9C1EFEFE725E09348
:100844002E03E82DF070AFEFEA27E0932F03E09139
:100854002E0380D7E0912F037DD70895FF924CD7C4
:100864001830F4F4E12FA981AADAE0FBF0F8AE37EE
:1008740011F480D705C0E0E0F0FCE1E0EA9314D085
:10088400F0FE0AC096D7E0912D03EF5FE0932D03AD
:10089400A0912D03A53011F41AD06CD71F5FE0CFBF
:1008A40018812296FF900895E88188D7E725F825D6
:1008B400E0933003F093310386947794E09130030E
:1008C400E17021F0E8E0F4E87E268F2602C5E1E03D
:1008D4002E266FD70895E881E03021F473D7C49AA7
:1008E40071D703C074D7C49872D7C498F2C4E8818E
:1008F400E7B985E28A95F1F7369A349BFECF349AAC
:10090400E4B1F5B1E6C4DDD4EC32E9F70895D9D405
:10091400E432E9F70895D5D4E232E9F708951A9359
:10092400F8942CD75ED75DD7EAE4F0E05DD759D7C9
:1009340058D7E2E7F0E058D759D758D757D756D702
:1009440055D754D756D710E016304CF4D8D6DDD648
:10095400E03219F0D4D6D9D64FD71F5FF5CFDCD605
:10096400E13328F04BD7A6E1B0E03AD649D739D7DE
:10097400EBE7F0E039D73AD739D738D737D736D776
:1009840035D737D7A8E1B0E0EFD6A1F010E01630A4
:100994004CF4B5D6C5D6E03219F0B1D6C1D62CD7B1
:1009A4001F5FF5CFC1D6E13328F028D7AEE1B0E020
:1009B40017D626D7A0E2B0E0D7D6B1F0ECE21CD728
:1009C40010E016304CF49BD6B3D6E03219F097D62B
:1009D400AFD612D71F5FF5CFAFD6C2DAE13320F01E
:1009E4000DD7AAD6FDD50CD7A8E2B0E0BDD6B1F09C
:1009F400ECE202D710E016304CF481D6A0D6E032F7
:100A040019F07DD69CD6F8D61F5FF5CF9CD6A8DA10
:100A1400E13320F0F3D697D6E3D5F2D6E2D6E8E870
:100A2400F0E0E2D6E3D6E2D6E1D6E0D6DFD6DED6F3
:100A3400E0D6F0D6F3D6E4E9F0E0D6D6EBD6E03152
:100A4400A7E2FA071CF0EEE9F0E0CED6CAD6EBEA4C
:100A5400F0E0CAD6CBD6CAD6C9D6C8D6C7D6C6D66B
:100A6400C8D6A1E0B0E0E5D6BCD6E9EBF0E0BCD650
:100A7400BDD6BCD6BBD6BAD6B9D6BBD6A0E0B0E0FC
:100A8400D8D6AFD6E0EDF0E0AFD6B0D6AFD6AED67E
:100A9400ADD6ACD6ABD6AAD6ACD610E082D65CF432
:100AA4002ED6A05DBF4F60D621F029D6A05DBF4FE2
:100AB400C0D61F5FF3CF95D6E8EDF0E095D696D675
:100AC40095D694D693D692D691D690D692D610E057
:100AD40043D64CF414D645D647D619F010D641D691
:100AE400A8D61F5FF5CF7DD6EFEDF0E07DD67ED69C
:100AF4007DD67CD67BD67AD679D67BD6A1E1B1E0F9
:100B04002BDA8CD6EFEEF0E06FD6A1E1B1E024DA77
:100B1400E436A0E0FA071CF0EEE9F0E065D661D611
:100B2400EFEFF0E061D662D661D660D65FD65ED6CE
:100B34005DD65FD6ADE1B1E07CD653D6EFE0F1E00F
:100B440053D654D653D652D651D650D652D610E098
:100B54001A3034F4D4D5A850BF4F6BD61F5FF8CFEA
:100B6400ECE24AD610E01B3034F4C9D5AD5FBE4F79
:100B740060D61F5FF8CF35D6E1E2F1E035D636D640
:100B840035D634D633D632D631D633D6A1E2B1E017
:100B940050D627D6E1E3F1E027D628D627D629D6A2
:100BA400AEE1B1E046D61DD6EBE5F1E01DD61ED68A
:100BB4001DD61CD61ED6AFE1B1E03BD612D6E1E875
:100BC400F1E012D613D612D611D610D60FD611D6FE
:100BD400A0E2B1E02ED605D6E7E9F1E005D606D6C7
:100BE40008D6A2E2B1E025D6E1D57894199108950A
:100BF400EF97EF97EF97EE97D150E1D9F894BED5E0
:100C04001AD6EFD5EAECF1E0EFD5EBD5E9EEF1E059
:100C1400EBD57DDE80DEF80111D613D6FF93EF937A
:100C240050D3AF91BF91EC930FD6A43241F00CD6C0
:100C3400A23209F470DEEEE2DFD50BD6ECCFD1D5CB
:100C4400E6EFF1E0D1D5F7D507D6FED5A23211F003
:100C540006D6FBCF11D64630E0E05E0734F4A0E1BF
:100C6400B0E010D612D614D6F6CFA6E1B0E013D673
:100C7400F3D514D6CCF417D618D679F419D612971E
:100C840021F4E6E1F0E019D60FC012D6139729F447
:100C940066E170E01CD623D607C0FA01E05FFF4F7F
:100CA4002DD62ED6F5D5E5CF2FD6CED5A23219F036
:100CB400CBD5AC3209F402C0D2D5F7CFDDD546305E
:100CC400E0E05E0734F4A8E1B0E0DCD5DED5E0D5A1
:100CD400F6CFC2D54730E0E05E0734F4A0E2B0E0DE
:100CE400D1D5D3D5D5D5F6CFB7D54730E0E05E071B
:100CF40034F4A8E2B0E0C6D5C8D5CAD5F6CFAEE183
:100D0400B0E0C9D519D5C7D51ED5C5D5A8E1B0E081
:100D1400FDD5A0E2B0E0FAD5A8E2B0E0F7D5AE8107
:100D2400BF8112970CF46BC097D5B8D5CCF4BBD562
:100D3400BCD579F4BDD5129721F4EEE1F0E0BDD530
:100D44000FC0B6D5139729F46EE170E0C0D5C7D5AE
:100D540007C0FA01E85EFF4FD1D5D2D599D5E5CFCA
:100D640073D5A23209F44BC0CFD56ED5A23219F097
:100D74006BD5AC3209F402C072D5F7CF7DD58ED5D0
:100D8400CCF491D592D579F493D5129721F4E6E277
:100D9400F0E093D50FC08CD5139729F466E270E088
:100DA40096D59DD507C0FA01E05EFF4FA7D5A8D51B
:100DB4006FD5E5CF49D5A23211F1A6D545D5A232DA
:100DC40011F04DD5FBCF58D569D5CCF46CD56DD584
:100DD40079F46ED5129721F4EEE2F0E06ED50FC0EF
:100DE40067D5139729F46EE270E071D578D507C002
:100DF400FA01E85DFF4F82D583D54AD5E5CF84D586
:100E04004530E0E05E0734F484D53CD5E0E0EC9373
:100E14003FD5F6CF21D518D5A23219F07DD519D5F5
:100E2400FACF85D588D5ABE1B1E089D5A1E0B0E0B2
:100E34008DD591D5A0E0B0E089D566D5A3E2B1E027
:100E440090D534F4A0E3B0E01DD560D521D5F6CF1C
:100E540003D5FAD4A23259F0FA01E05DFF4F87D5E9
:100E640017D5F7D4E42FA3E2B1E08ED8F2CF5FD543
:100E74004BD5A4E2B1E075D534F4A4E9B0E002D5D1
:100E840045D506D5F6CFE8D4DFD4A23259F0FA011D
:100E9400EC56FF4F6CD5FCD4DCD4E42FA4E2B1E0D3
:100EA40073D8F2CF44D530D54530E0E05E0734F452
:100EB40030D5E8D4E0E0EC93EBD4F6CFCDD4C4D471
:100EC400A23219F029D5C5D4FACF31D534D5A1E150
:100ED400B1E035D5ADE1B1E039D58901B5D4A2325F
:100EE400C1F0BAD4B1D4AC3239F0FA01E850FF4FB2
:100EF4003ED5CED4AED4F6CF1AD506D5A5D4A232DB
:100F040039F0FA01ED5FFE4F32D5C2D4A2D4F6CF48
:100F14000ED521D5A1E2B1E019D51DD5AEE1B1E0E0
:100F240015D519D5AFE1B1E011D515D5A0E2B1E0E1
:100F34000DD511D5A2E2B1E027D8F1DC37D451D4D4
:100F440050D4EEE0F2E050D44CD478943FD82196BB
:100F5400DE5F0895A19733D8F894B3D1E432E9F76A
:100F6400B0D15E2F573409F009C1ABD1AAD1E7340F
:100F740009F003C1A6D1E73409F0FFC0A2D1E134DE
:100F840009F0FBC09698979ABEDCBDDC54D40930B6
:100F9400E0E01E075CF4F801E850FF4FFF93EF9385
:100FA40090D1AF91BF91F0D754D4F1CF8AD1E1E081
:100FB400F1E0FF93EF9385D1AF91BF91E5D781D154
:100FC4003AD40A30E0E01E075CF4F801ED5FFE4F0E
:100FD400FF93EF9376D1AF91BF91D6D73AD4F1CFA7
:100FE40070D1EDE0F1E0FF93EF936BD1AF91BF913E
:100FF400CBD789DC88DC87DC86DC1DD40830E0E0D4
:101004001E075CF4F801B8D41CD4FF93EF9359D1B4
:10101400AF91BF91EC931DD4F1CF0DD40630E0E035
:101024001E0744F4ACD4E0E3F0E060E070E064D781
:1010340010D4F4CF00D40830E0E01E0764F5A6D441
:1010440051F1A4D431F0A8D4AC3219F0A5D4AD3404
:1010540009F41FC020E030E02630E0E03E079CF4B5
:10106400F901DE011696B3D6ECD30F01F9013196DE
:10107400DE011696ACD6AE0FBF1F33D7D0013CD7D6
:101084002F5F3F4FE9CF78D4A00FB11FEC91A4D6C6
:1010940088D4DFD3D0CFCFD30630E0E01E074CF4A2
:1010A4006ED425D7E053F040604070402AD7D1D3A6
:1010B400F3CF7CD4A0EAB6E881E090E0C6D67BD436
:1010C4007FD4A0E1B7E280E090E0BFD6EA87FB8757
:1010D4006C877D87EE85FF8568897989A8EEB3E002
:1010E40080E090E0B2D6EE87FF87688B798BEA893F
:1010F400FB896C897D89A4E6B0E080E090E0A5D608
:10110400EA8BFB8B6C8B7D8BEE89FF89688D798DE7
:10111400AAE0B0E080E090E098D6EE8BFF8B688F79
:10112400798F4ED452D43AD6AE85BF8588899989B1
:1011340035D6AA89BB898C899D8930D6AE89BF8969
:10114400888D998D2BD6AA8DBB8D8C8D9D8D26D6A1
:1011540028D4EA8DFB8D6C8D7D8DA3E0B0E080E01A
:1011640090E073D61ED4EA8DFB8DAFE0B1E004D7D6
:101174001DD3E6E9F0E02ED41DC01BC0533461F446
:10118400A0D0EF3441F49DD0EE3429F49AD0E63463
:1011940011F42EDD0FC00DC0553459F492D0E33450
:1011A40041F48FD0E83429F48CD0EF3411F4B7DB58
:1011B40001C0D3CE78940AD7A79608950A921A92BA
:1011C400FA926A937A938A939A93AA93BA93EA9334
:1011D400FA93EFB7EA93A1E2B1E0E0D219F4979859
:1011E400969803C0979A9698809BB4DEE92DFA2DC1
:1011F400F695E7950F010ED3E015F10519F49ADA87
:101204009924AA24E9D3E1E0F0E09E0EAF1EEFEFAB
:10121400FFEFE915FA0511F49924AA24E991EFBF27
:10122400F991E991B991A9919991899179916991EA
:10123400F990199009901895E0E0E8BBEFEFE7BB4F
:10124400E3E0E2BBEEEFE1BBE0E0EFBDE5E0EEBDE5
:10125400C3D3E4E0E9BFE0E0EBB9E8E1EAB9E6E8EA
:10126400E0BDE0E0E0BDEFE8E9B9E0E8E8B9E0E0DE
:10127400E7B9E4E8E6B982D2E8ECF0E0ABD39698BB
:10128400979AE8ECF0E0A6D3789454DAA2E2B1E0BD
:1012940085D2A9F41CD842D8A4D2EFE1F2E0A4D2BA
:1012A400ECE1F3E064D217D09CD2E3E3F2E09CD209
:1012B400E3E2F3E05CD20FD0E8EEF3E08BD3E6CFC9
:1012C400FFCF5F9BFECFECB108955D9BFECFE8811D
:1012D400ECB9219608951A93A981BA81ED91A98355
:1012E400BA831E2FE03019F01A93EFDFF5CF0EC04A
:1012F4001A93E981FA813196E983FA833197E4916B
:101304001E2FE03019F01A93E0DFF3CFEAE074D235
:101314001881239608957B816A81F981E88177FB9E
:10132400770F67FD7160972F9E5781F078F09831A1
:1013340090F4AA27BB27882708948795B795A79583
:101344009A95D1F7EA23FB23682305C0E89477270D
:10135400EE27FF2766276F77769508F4606877F99C
:10136400A991B99189919991EA17FB0768077907BF
:1013740097FB089536D337D311F433D30EC0EEF769
:1013840030D3B5D101D409C02CD32DD311F429D332
:1013940004C0EEF326D3ABD1FED32496089524974C
:1013A40026D303D611F428D319C021D35DD191D407
:1013B400B7D517D3FAD511F41FD310C0ACD5F9D5CE
:1013C40024F40FD3B2D5D6DF03C00BD3AED5DCDF04
:1013D400A7D507D341D12FD447D143D12C96089513
:1013E4002497F1D5F2D2E5D52CF0EFEFFFEF6FE7BC
:1013F4007FEF5EC0DBD299D5EDB7FEB73197B7D199
:101404001F930F930FD30F911F91D5D2DED2E3EF29
:10141400F4E065E37FE3A2D430F4C8D2D6D2BBD3E0
:10142400CAD201501040C2D262D1AED37F936F931F
:10143400FF93EF93BBD25BD1AED3AF91BF918F91AA
:101444009F9147D4B8D2B2D2C0D2F5D3EA83FB83FA
:101454006C837D83D6D2A6E2B2E485E69FE3EBD328
:10146400E6D0EEE4F1E164E570E4FBD0AED2E3D380
:101474007F936F93FF93EF93C4D2ADE4B1E184ED16
:101484009FE382D3AF91BF918F919F9122D47F9399
:101494006F93FF93EF93F801A5D443D3A8E1B2E788
:1014A40081E39FE3C8D3AF91BF918F919F9173D391
:1014B40091D52A960895B981A881EC91EA935ED0DA
:1014C400EE2311F01196F9CFE894EC91ED3211F47A
:1014D400689402C0EB3209F4119666277727EC91E1
:1014E400EA9344D0EE2379F0FB01660F771F660F71
:1014F400771F6E0F7F1F660F771FED91FF27E05355
:101504006E0F7F1FECCFFB011EF4E095F095319632
:1015140022960895A991B991E991F99130962AF406
:10152400E095F09531966DE26D93E89480E197E251
:101534000DD088EE93E00AD084E6992707D08AE09C
:1015440005D06E2F10D066276C9308956627E81790
:10155400F90720F06395E81BF90BC9F7662311F42A
:1015640016F008956894605D6D930895E1E0F99133
:10157400F03310F0FA3308F0EE270895E1E0F99122
:10158400F03229F0F93010F0FE3008F0EE2708951B
:1015940034D466277727C5D2DF01CB01089599D3C8
:1015A40089D28F01D801E8EEF3E067D43E2FD80149
:1015B400E8EEF3E067D4DF01E4E6F0E05ED42E2F3A
:1015C400D801E4E6F0E05ED4DF01EAE0F0E055D4CF
:1015D4005E2FD801EAE0F0E055D44E2F3030089564
:1015E400BFD4E0530895AAE0EA020895F5D399D24E
:1015F4000895A0E0B0E088EC92E41DD30895F6DFEE
:10160400A0E0B0E080E291E416D30895EFDFA0E01B
:10161400B0E080E89FE30FD30895E1E0F0E060E0FC
:1016240070E00895EFEFFFEF6FEF7FEF0895DF01B4
:10163400CB010895E0E0F0E060E772E44AD3089556
:10164400AAE9B9E989E19FE3F6D2F1DFE0E0F0EA43
:101654006CE077E43ED30895AC81BD818E819F8197
:1016640008956DD491D20895A885B9858A859B85FE
:101674000895E0E3FAEF67E379E408952AD3A0E05C
:10168400B0E084E092E487D2089514D27DD4E88552
:10169400F9856A857B8549D40895EBDF46D47FDEDE
:1016A400C6DFE0E0F4E661E076E4E8CFE0E0F4E60B
:1016B40061E076E43AD473DEBADFE0E0F0E066EBB2
:1016C40072E4DCCFE0E0F0E066EB72E42ED467DE97
:1016D400A0E0B0E084E092E45ED20895EBD154D46B
:1016E4000895ED81FE816F8178851FD40895A0E06F
:1016F400B0E080E89FE308951A9310E00895A12FC5
:10170400B0E008952DD4EA93A9C8A05FBF4F28D4B0
:101714000895EE0FEA93A2C8A6E1B0E021D408959B
:10172400A85EBF4F1DD40895AEE1B0E019D408956A
:10173400A05EBF4F15D40895A6E2B0E00895A85D59
:10174400BF4F0ED40895AEE2B0E00895EE0FEF5F00
:10175400EA9384C8EA9382C8A4E2B1E001D41E17D4
:101764000895AC56BF4F0895FBD3E0300895FA9323
:10177400EA930895E0E0E0932D030895969A9798EC
:101784000895A1E1B1E0E8D3A62DB0E0A7FDBFEF35
:1017940079D330970895E12FF0E00895E1D3E93546
:1017A4000895A3E2B1E0DCD31E17089596989798A4
:1017B4000895E0E020FCE1E0EA938DC8F0E0E7FD65
:1017C400FFEF089581E894E00197F1F708958FE31E
:1017D40092E00197F1F7C49A82E492E00197F1F75D
:1017E4000895EDE0EA9371CDC2DF82CDE9E0EA939A
:1017F4006CCDEAE3EA9369CDEA9367CDEDE2FCCFE1
:10180400F0E0B5DFFE013396B2DF84DEFE013196EF
:10181400AEDF61CDABE1B1E09FD30895A8DFFE0157
:101824003396A5DF77DEFE013196A1DF54DDE0E2D9
:10183400E3CF96D3E1CF00E010E00895DE011D96DA
:101844000895EA0FFB1F0895F9DFA00FB11FAC91B3
:1018540008950F5F1F4F089540E050E00895FA0186
:10186400EDDFEFDF0F01EADFA00FB11FEC91D00134
:10187400EC934F5F5F4FEDCFF80131969F014E839C
:101884005F83EACFA40FB51F0895E0E27DD30895E6
:101894004F5F5F4F0895E0E377D30895EE81FF81B2
:1018A4004E175F070895CADFEDCFAC91AD320895AE
:1018B400AE81BF81A41BB50B08950F01FA013196C7
:1018C400BDDFAE0FBF1FEC91D0015ED30895FA01C6
:1018D4003196B4DFAE0FBF1FEC91E05384CEFA0112
:1018E4003296ACDFAE0FBF1FEC91A02DAE0FE0E33C
:1018F4002FD3EA1BE05DDB0147D308950F01D3CF5B
:10190400EC91D00141D308958901A6CFE0E03CD306
:101914000895DE0118960895FA01FBDF92DF0F01A6
:101924008DDFA00FB11FEC91D001EC93B1CFF80182
:1019340031969F010895FE01389619DFBCCD1CD362
:1019440089017CDFA00FB11FEC9108951DD3F8012C
:1019540032969F010895890171DFA00FB11FEC91A8
:101964000895FED2DA012ADFAE17BF0708950F01EA
:1019740065DFA00FB11FC4CFDE015E960895F801A4
:10198400DE01169624D2AE0FBF1F0895F5DFA00F17
:10199400B11FAC91AE320895EFDFA00FB11FAC912F
:1019A4000895EA8FFB8F6C8F7D8F0895EE81FF8100
:1019B400688579850895EE83FF836887798708951C
:1019C400EA85FB856C857D850895AE81BF81888518
:1019D40099850895CCDE1AC0EAEEEDBDE7EEECBDC4
:1019E400089594D20895A1D296DC9AD20895EC81F8
:1019F400FD816E817F810895E0E0F0E060E070E0B9
:101A04000895EA81FB816C817D810895E991F991C2
:101A1400309639F08DEC9AE00197F1F7A89531975B
:101A2400C9F70895A991B991E991F99169917991C9
:101A340077FB660F771F88277E57880B7D938C93DF
:101A44007EE7769567950EF0089530976040704074
:101A540009F070580895552342F4503811F4E0FF0A
:101A640004C03196691F791F6BF050E8572711F4B1
:101A74005F93CFC05F3F31F0660F000C57956795B9
:101A8400752F08955F9300200AF0CFC0C8C050E8B6
:101A9400192E1522880F991F9527550F879550E801
:101AA400072E0522660F771F7527550F6795089532
:101AB400689401C0E8945F93F2DF703818F07F3FB8
:101AC40008F4A7C056E1571BAAF4519558300EF4F8
:101AD400593030F0EFEFFFEF6FEF7FE777F91AC07F
:101AE40077275523B9F0EE0FFF1F661F771F5A950E
:101AF400D1F710C07727583028F0EF2FF62F672F33
:101B04005850F9CF552331F076956795F795E795B9
:101B14005A95D1F700200AF44AD15F910895689448
:101B240001C0E894309760407040B1F0002426F082
:101B3400772312F400943BD1172E7EE1112032F06A
:101B44007A95EE0FFF1F661F111CF9CFEF2FF62FAA
:101B5400612D5F938ADF5F9108954F93AF01FD017B
:101B6400DA01AB01BC01CA01402D012C142E4F91A6
:101B74000895EA0FFB1F681F0895E095F09560959E
:101B8400EF5FFF4F6F4F08955F9381DF903871F1DE
:101B940050E8152604C05F937ADF903839F1703825
:101BA40021F1572F591B2BF112F4D7DFFACF5831FB
:101BB40018F0AA27BB278827583028F0AB2FB82F56
:101BC40088275850F9CF552329F08695B795A795BE
:101BD4005A95D9F7502D512572F0CBDF38F467951B
:101BE400F795E795739513F420C0B7DF3EDF5F9157
:101BF4000895D8F7FBCFEA1BFB0B680B51F010F4E8
:101C04000094BBDF662392F3EE0FFF1F661F7A95E5
:101C1400CBF7EE27FF27662777275F910895EFEF2D
:101C2400FFEF6FE77FEF5F910895EFEFFFEF6FE74F
:101C34007FE75F9108955F932ADF703851F39038FE
:101C440041F301240894791F23F41CF300203AF390
:101C5400ECCF0F921F932F933F934F93112722277B
:101C64009927689FA0018F9F302D410D591F6B9FAD
:101C7400300D411D591F8E9F27D0BF9F25D06A9FCD
:101C840023D0BE9F1DD0AF9F1BD0AE9F110D291F27
:101C9400391F491F591FE32FF42F652F522F4F91DE
:101CA4003F912F911F910F9066232AF0550FEE1F3D
:101CB400FF1F661F02C073954BF2CDDE5F9108953E
:101CC400100D211D391F02C0200D311D491F591F40
:101CD40008955F93DCDE703821F411200AF49FCF5D
:101CE400A4CF903809F495CF01240894970B1BF4E2
:101CF400D4F30020F3CF792F1F932F933F934F9367
:101D040011241127222733274427552790E2AE17A1
:101D1400BF078607410730F0AE1BBF0B860B410B94
:101D2400089401C08894551F221F331F111CAA1F39
:101D3400BB1F881F441F9A9551F7F901612D4F91DC
:101D44003F912F911F91662332F0550FEE1FFF1F15
:101D5400661F7A9543F27FDE5F91089599239AF086
:101D6400772342F0971748F029F4AE17BF07860788
:101D740020F031F0989488940895989408940895E4
:101D84001894889408957723C2F7971798F3A9F7BE
:101D9400EA17FB07680788F399F3ECCFEA0FFB1FF8
:101DA400681F791F0895F195E195F0400895F09525
:101DB40060957095E195FF4F6F4F7F4F0895EE2327
:101DC4000E2EEA2F19F0E6950A94E9F70895EE0F1E
:101DD400FF1FEE0FFF1F0895FE2FFF0FFF0B6F2F46
:101DE4007F2F08956F2F660F660B762F0895BA2FF5
:101DF400BB0FBB0B8B2F9B2F0895FA9FF02DEB9FEE
:101E0400F00DEA9FE02DF10D08957A9F702D6B9FE0
:101E1400700DF89F700DE99F700D6A9F602D710D14
:101E2400FB9F600D711DE89F600D711D8827FA9F4F
:101E3400F02D610D781FEB9FF00D611D781FEA9F57
:101E4400E02DF10D681F781F089538D0DEDF0EF401
:101E5400AEDF08950024112490E1AA0FBB1F001CDB
:101E6400111C0E1A1F0A18F40E0E1F1E01C0A160C9
:101E74009A9599F7FD01D001089512D0EBDF0EF485
:101E840092DF0895E894B7FF04C0A095B095119629
:101E94006894F7FD88DFDEDFFD010EF484DF08952A
:101EA400E894F7FF02C07FDF6894B7FF06C0A095EF
:101EB400B095119600F8039400FA0895E89477FF1A
:101EC40002C075DF689497FF0BC00024A095B095FD
:101ED400809590951196801D901D00F8039400FA4A
:101EE4000895ED91FD916D917C9113970895ED9175
:101EF400FD916D917D910895ED93FD936D937C9388
:101F040008957E936E93FE93EE930895E881F9818C
:101F14006A817B810895A881B9818A819B81089512
:101F2400E883F9836A837B8308957A936A93FA93A7
:101F3400EA930895689401C0E89401D0F3DD182E63
:101F4400862F612D192E972F712D1B2EBF2FF12D4A
:101F54001A2EAE2FE12D0895119602D0FE2F11975F
:101F6400E199FECFFF93FFB7F894AEBBBFBBE09AF5
:101F7400EDB3FFBFFF91089507D01196EF93EF2FB4
:101F840003D0EF9111970895E19B02C0A895FCCF6F
:101F94009FB7F894AEBBBFBBE09A8DB3E81719F0B6
:101FA400EDBBE29AE19A9FBF08953097604070407C
:101FB400089500240A160B060806090608955A9384
:101FC4004A933A932A931A930A9308955D814C8114
:101FD4003B812A81198108810895099119910895F5
:00000001FF
