:0C00000041C1FECFFDCFFCCFFBCFFACFFB
:10000C00F9CFF8CF87C8F6CFF5CFF4CFF3CFF2CF37
:10001C00F1CFF0CFEFCFEECFEDCF1027E803640098
:10002C000A00010000100001100001000000303235
:10003C00302E30433031332E3856212157002F418A
:10004C003D30303030303000596F75722050726F47
:10005C005472616B21206D6F64656C204120436F7D
:10006C006E66696775726174696F6E2069733A00A8
:10007C0043616C6C7369676E0044696769205061F9
:10008C00746828732900545820496E74657276611F
:10009C006C007365636F6E6428732900206973208C
:1000AC00746F6F206C6F6E670053796D626F6C208C
:1000BC002F2049636F6E0053796D626F6C20546111
:1000CC00626C65202F204F7665726C617900436FEE
:1000DC006D6D656E74005374617475730053746147
:1000EC0074757320496E74657276616C00747261FC
:1000FC006E736D697373696F6E2873290042415377
:10010C00452D3931203F2028592F4E29004E4F20A4
:10011C0047505320436F6F7264696E61746500556C
:10012C00736520475053203F2028592F4E290044F7
:10013C0069706C6179204261747465727920566FB4
:10014C006C7461676520696E20436F6D6D656E74AC
:10015C00203F2028592F4E29004469706C6179206A
:10016C0054656D706572617475726520696E20439B
:10017C006F6D6D656E74203F2028592F4E290053EA
:10018C00656E6420416C746974756465203F202829
:10019C00592F4E290053656E642054656D7065723D
:1001AC00617475726520616E64204261747465724D
:1001BC007920566F6C7461676520746F20504320F2
:1001CC003F2028592F4E2900454E544552494E4741
:1001DC0020434F4E46494755524154494F4E204DAE
:1001EC004F44452E2E2E00434F4E464947555245FF
:1001FC002E2E2E00534156494E4720434F4E464912
:10020C004755524154494F4E2E2E2E00434F4E46C9
:10021C004947205355434345535320210054656DA2
:10022C007065726174757265202020202020203A40
:10023C00004261747465727920566F6C74616765E5
:10024C002020203A000001002D4E414E00494E4620
:10025C0000000100020038000600BD023A00060052
:10026C00C40240000300CB0246000900CE024A0043
:10027C000100D80252020000F894EE27ECBBF1E02A
:10028C00FBBFEBBFE5BFF8E1F1BDE1BD8DE0A2E046
:10029C00BB27ED938A95E9F780E094E0A0E6ED9317
:1002AC000197E9F7EEE5F2E085919591009761F001
:1002BC00A591B59105901590BF01F00105900D9297
:1002CC000197E1F7FB01F0CFEFE5EDBFE4E0EEBF06
:1002DC00C8EBD2E055C7EFEFE625E093B902E72D66
:1002EC00F070AFEFEA27E093BA02E091B90235D98A
:1002FC00E091BA0232D90895FF9231D91830F4F452
:10030C00E12FA98156DDE0FBF0F8AE3711F42AD9C4
:10031C0005C0E0E0F0FCE1E0EA9314D0F0FE0AC086
:10032C0025D9E091B802EF5FE093B802A091B80232
:10033C00A53011F41AD016D91F5FE0CF1881229680
:10034C00FF900895E88117D9E625F725E093BB02C5
:10035C00F093BC0276946794E091BB02E17021F0BB
:10036C00E8E0F4E86E267F2657C7E1E02E26FED89B
:10037C000895E881E03021F402D9C49A00D903C071
:10038C0003D9C49801D9C49847C711DEE1E0EA93B8
:10039C00BBD2A5E0B0E002D9EFE6F2E163E87FE37F
:1003AC0004D911F4E0E202C0E32FE05DE093BD025A
:1003BC00203011F4303009F002C0E0E202C0E22F2C
:1003CC00E05DE093BE02E52FE05DE093BF02E42F19
:1003DC00E05DE093C10226C0EADDE0E0EA9394D24E
:1003EC00AEE6B0E0DBD8EDECFCEC6CEC72E4DDD806
:1003FC0011F4E0E202C0E32FE05DE093C402203090
:10040C0011F4303009F002C0E0E202C0E22FE05DEE
:10041C00E093C502E52FE05DE093C602E42FE05DBA
:10042C00E093C802CBDD269608952C97C2DDA8EF89
:10043C00B0E0DCD8DED8A9EFB0E0D8D8E00D1E2FA4
:10044C00AAEFB0E0D3D8D5D8ABEFB0E0CFD8E00D61
:10045C000E2FADEFB0E0CAD8CFD8D1D87F936F9321
:10046C00FF93EF93AEEFB0E0C1D8AF91BF918F91F6
:10047C009F91CBD8AFEFB0E06BDDEE3411F4CCD85C
:10048C0001C0CFD83E2FD2D87F936F93FF93EF93B9
:10049C00DBD8AF91BF918F919F91E7D8A0E0B0E0EE
:1004AC0084EB92E4EFD8A0ECBFEF89EB98E4EDD8A5
:1004BC00AFE0B1E0FED805D9A0E1B1E0FAD814D98B
:1004CC00A1E1B1E0F6D823D9A2E1B1E05BC02C9751
:1004DC0070DDA1E0B1E08AD8A4E6EA02202DA2E00A
:1004EC00B1E084D8AAE0EA02F001E20F0E2EA3E0FC
:1004FC00B1E07CD8E00D1E2FA4E0B1E077D879D81C
:10050C00A5E0B1E073D8E00D0E2FA7E0B1E06ED8F6
:10051C0073D875D87F936F93FF93EF93A8E0B1E0F6
:10052C0065D8AF91BF918F919F916FD8A9E0B1E041
:10053C000FDDE53411F475D801C06ED83E2F76D896
:10054C007F936F93FF93EF937FD8AF91BF918F9170
:10055C009F918BD8A0E0B0E084E393E493D8A0EC17
:10056C00BFEF89E398E491D8A3E1B1E0A2D8A9D870
:10057C00A4E1B1E09ED8B8D8A5E1B1E09AD8C7D82B
:10058C00A6E1B1E096DAF8DC1BDD6096089513DD88
:10059C00CAD866277727C4DACAD84CDBBEDCC6D6E5
:1005AC00A0E0B0E48AEF93E445DB83DA8F01D80155
:1005BC00EBE5F0E04ADCEF5DE093CB02D801EBE534
:1005CC00F0E070DCEF5DE093CC02FFDC0895ABD87B
:1005DC00B3D840DCE05DE093D102A5D8ADD870DC97
:1005EC00DF01CB01E0E1F7E260E070E033DCE05DDD
:1005FC00E093D20298D8DF01E0E1F7E250DCDF01B2
:10060C00E8EEF3E00FDCE05DE093D3028CD8DF0181
:10061C00E8EEF3E044DCDF01E4E6F0E003DCE05D6F
:10062C00E093D40280D8DF01E4E6F0E038DCDF01AF
:10063C00EAE0F0E0F7DBE05DE093D50274D8DF018F
:10064C00EAE0F0E02CDCE05DE093D602089587D779
:10065C00173034F47AD8AE5FBF4F7AD81F5FF8CF1B
:10066C00D2C27DD7173034F470D8A75FBF4F70D883
:10067C001F5FF8CFC8C273D716302CF466D86AD86F
:10068C006DD81F5FF9CFA8E1B0E062DCE03310F069
:10069C00EA3328F0E13410F0EB3508F040C060D8B4
:1006AC005DD810E016302CF450D85ED857D81F5FA8
:1006BC00F9CFA0E2B0E04CDCE03310F0EA3328F0E4
:1006CC00E13410F0EB3508F027C052D847D810E0D1
:1006DC0016302CF43AD850D841D81F5FF9CFA8E285
:1006EC00B0E036DCE03310F0EA3328F0E13410F0FF
:1006FC00EB3508F00DC044D82BDC30D810E01630A8
:10070C002CF423D840D82AD81F5FF9CF40D801C089
:10071C0037D81EDC3FD802C02BD83CD802C020D81A
:10072C0039D8E3E01AD7E0EF18D76DC21A938FDFF0
:10073C00A2DFEEE312D710E030D84CF406D832D852
:10074C0034D819F002D82ED803D81F5FF5CF5BC26E
:10075C001A9387DF90DF10E020D82CF4F6D722D83C
:10076C00F7D71F5FF9CF4FC21A93C59AE4E6F0E0B2
:10077C001FD84BD910E01D3224F4E0E0EED61F5FF9
:10078C00FACFEEE7EAD6EED6EFEFFFEF3F013BC232
:10079C001A93FBDD21DE49DE9ADEF9DEC4D73396EF
:1007AC00ABE0B1E0E1DBBFD7EF3FAFEFFA0729F4E5
:1007BC00ABE0B1E0E0E0F0E0D7DB09DFFCD79394ED
:1007CC00D3DFE1E0E91509F492C0E3E0E91511F497
:1007DC00BFDF8EC0E2E0E91519F0F0D709F485C04F
:1007EC0036DF49DFEDE3B9D6A9E1B1E0F1D711F578
:1007FC00A0E0B0E0ADD710E0143034F4A6D7A15F80
:10080C00BE4FA6D71F5FF8CF10E0143034F49DD73D
:10081C00AD5EBE4F9DD71F5FF8CFA1E0B0E098D77B
:10082C0010E0133034F4D7D7E553FD4FD7D71F5F03
:10083C00F8CF27C010E0183034F487D7A850BF4F3A
:10084C0087D71F5FF8CFA0E0B0E082D710E0193057
:10085C0034F47BD7AF5FBE4F7BD71F5FF8CFA1E0DF
:10086C00B0E076D7ACE1B1E0B3D759F410E0193071
:10087C0034F4B1D7E253FD4FB1D71F5FF8CFE0E2AC
:10088C006CD6ABE1B1E0A4D789F410E0163064F477
:10089C00A2D7E354FD4FA081A03221F09CD7E354A2
:1008AC00FD4F9CD71F5FF2CFE0E257D6AAE1B1E033
:1008BC008FD789F410E0163064F48DD7EC53FD4FCC
:1008CC00A081A03221F087D7EC53FD4F87D71F5F53
:1008DC00F2CFE0E242D610E083D734F436D7A05DF5
:1008EC00BF4F36D71F5FF8CF03C068D709F41EDFA0
:1008FC00F2DCEEE732D6EEE730D6E4E6E91509F4A1
:10090C009924C59872D77FC1E881E7B985E28A95A9
:10091C00F1F7369A349BFECF349AE4B1F5B17CC42E
:10092C0073D4EC32E9F708956FD4E432E9F7089503
:10093C006BD4E232E9F708951A93F8943CD758D760
:10094C0057D7E4E5F0E057D753D752D7ECE7F0E0B0
:10095C0052D753D752D751D750D74FD74ED750D74E
:10096C0010E016304CF4F1D6F5D6E03219F0EDD695
:10097C00F1D649D71F5FF5CFF3D6E13328F045D731
:10098C00A6E1B0E033D643D733D7E5E8F0E033D770
:10099C0034D733D732D731D730D72FD731D7A8E187
:1009AC00B0E003D7A1F010E016304CF4CED6DCD674
:1009BC00E03219F0CAD6D8D626D71F5FF5CFD8D6D5
:1009CC00E13328F022D7AEE1B0E010D620D7A0E278
:1009DC00B0E0EBD6B1F0ECE216D710E016304CF4E8
:1009EC00B4D6CAD6E03219F0B0D6C6D60CD71F5F33
:1009FC00F5CFC6D6ADDAE13320F007D7C1D6F6D5A0
:100A0C0006D7A8E2B0E0D1D6B1F0ECE2FCD610E00B
:100A1C0016304CF49AD6B7D6E03219F096D6B3D637
:100A2C00F2D61F5FF5CFB3D693DAE13320F0EDD6D3
:100A3C00AED6DCD5ECD6DCD6E2E9F0E0DCD6DDD601
:100A4C00DCD6DBD6DAD6D9D6D8D6DAD6EAD6EDD6F7
:100A5C00EEE9F0E0D0D6E5D6E031A7E2FA071CF0DB
:100A6C00E8EAF0E0C8D6C4D6E5EBF0E0C4D6C5D6CB
:100A7C00C4D6C3D6C2D6C1D6C0D6C2D6A1E0B0E0C9
:100A8C00DFD6B6D6E3ECF0E0B6D6B7D6B6D6B5D64A
:100A9C00B4D6B3D6B5D6A0E0B0E0D2D6A9D6EAED9E
:100AAC00F0E0A9D6AAD6A9D6A8D6A7D6A6D6A5D6FA
:100ABC00A4D6A6D610E094D65CF447D6A05DBF4F62
:100ACC0074D621F042D6A05DBF4FBAD61F5FF3CFCC
:100ADC008FD6E2EEF0E08FD690D68FD68ED68DD60E
:100AEC008CD68BD68AD68CD610E057D64CF42DD615
:100AFC0059D65BD619F029D655D6A2D61F5FF5CF9D
:100B0C0077D6E9EEF0E077D678D677D676D675D666
:100B1C0074D673D675D6ADE0B1E016DA86D6E9EFA9
:100B2C00F0E069D6ADE0B1E00FDAE436A0E0FA0708
:100B3C001CF0E8EAF0E05FD65BD6E9E0F1E05BD6CA
:100B4C005CD65BD65AD659D658D657D659D6A9E1C3
:100B5C00B1E076D64DD6E9E1F1E04DD64ED64DD684
:100B6C004CD64BD64AD64CD610E0183034F4EDD5D2
:100B7C00A850BF4F65D61F5FF8CFECE244D610E00B
:100B8C00193034F4E2D5AF5FBE4F5AD61F5FF8CFA1
:100B9C002FD6EBE2F1E02FD630D62FD62ED62DD68F
:100BAC002CD62BD62DD6ADE1B1E04AD621D6EBE32F
:100BBC00F1E021D622D621D623D6AAE1B1E040D647
:100BCC0017D6E5E6F1E017D618D617D616D618D6EE
:100BDC00ABE1B1E035D60CD6EBE8F1E00CD60DD696
:100BEC000CD60BD60AD609D60BD6ACE1B1E028D67A
:100BFC00FFD5E1EAF1E0FFD500D602D6AEE1B1E0D7
:100C0C001FD6F3D5789419910895EF97EF97EF9736
:100C1C00EE97D150CCD9F894CED514D6E9D5E4EDD5
:100C2C00F1E0E9D5E5D5E3EFF1E0E5D57DDE80DE59
:100C3C00F8010BD60DD6FF93EF93E6D2AF91BF918F
:100C4C00EC9309D6A43241F006D6A23209F470DE38
:100C5C00EEE2D9D505D6ECCFCBD5E0E0F2E0CBD5A2
:100C6C00F1D501D6F8D5A23211F000D6FBCF0BD6B8
:100C7C004630E0E05E0734F4A0E1B0E00AD60CD6D2
:100C8C000ED6F6CFA6E1B0E00DD6EDD50ED6CCF44F
:100C9C0011D612D679F413D6129721F4E6E1F0E0CE
:100CAC0013D60FC00CD6139729F466E170E016D654
:100CBC001DD607C0FA01E05FFF4F27D628D6EFD527
:100CCC00E5CF29D6C8D5A23219F0C5D5AC3209F476
:100CDC0002C0CCD5F7CFD7D54630E0E05E0734F470
:100CEC00A8E1B0E0D6D5D8D5DAD5F6CFBCD547300B
:100CFC00E0E05E0734F4A0E2B0E0CBD5CDD5CFD5A3
:100D0C00F6CFB1D54730E0E05E0734F4A8E2B0E0AE
:100D1C00C0D5C2D5C4D5F6CFAEE1B0E0C3D530D581
:100D2C00C1D535D5BFD5A8E1B0E0F7D5A0E2B0E08C
:100D3C00F4D5A8E2B0E0F1D5AE81BF8112970CF4E6
:100D4C006BC091D5B2D5CCF4B5D5B6D579F4B7D5B1
:100D5C00129721F4EEE1F0E0B7D50FC0B0D51397A0
:100D6C0029F46EE170E0BAD5C1D507C0FA01E85E8E
:100D7C00FF4FCBD5CCD593D5E5CF6DD5A23209F4A9
:100D8C004BC0C9D568D5A23219F065D5AC3209F47F
:100D9C0002C06CD5F7CF77D588D5CCF48BD58CD554
:100DAC0079F48DD5129721F4E6E2F0E08DD50FC0E1
:100DBC0086D5139729F466E270E090D597D507C0D5
:100DCC00FA01E05EFF4FA1D5A2D569D5E5CF43D599
:100DDC00A23211F1A0D53FD5A23211F047D5FBCFED
:100DEC0052D563D5CCF466D567D579F468D512970E
:100DFC0021F4EEE2F0E068D50FC061D5139729F429
:100E0C006EE270E06BD572D507C0FA01E85DFF4F5A
:100E1C007CD57DD544D5E5CF7ED54530E0E05E0769
:100E2C0034F47ED536D5E0E0EC9339D5F6CF1BD52E
:100E3C0012D5A23219F077D513D5FACF7FD582D53A
:100E4C00A7E1B1E083D5A1E0B0E087D58BD5A0E0D8
:100E5C00B0E083D560D5AFE1B1E08AD534F4A0E33E
:100E6C00B0E017D55AD51BD5F6CFFDD4F4D4A232A9
:100E7C0059F0FA01E05DFF4F81D511D5F1D4E42F83
:100E8C00AFE1B1E079D8F2CF59D545D5A0E2B1E0C8
:100E9C006FD534F4A4E9B0E0FCD43FD500D5F6CF3F
:100EAC00E2D4D9D4A23259F0FA01EC56FF4F66D5F0
:100EBC00F6D4D6D4E42FA0E2B1E05ED8F2CF3ED582
:100ECC002AD54530E0E05E0734F42AD5E2D4E0E0E0
:100EDC00EC93E5D4F6CFC7D4BED4A23219F023D507
:100EEC00BFD4FACF2BD52ED5ADE0B1E02FD5A9E1EB
:100EFC00B1E033D58901AFD4A232C1F0B4D4ABD4B4
:100F0C00AC3239F0FA01E850FF4F38D5C8D4A8D428
:100F1C00F6CF14D500D59FD4A23239F0FA01EF5F89
:100F2C00FE4F2CD5BCD49CD4F6CF08D51BD5ADE147
:100F3C00B1E013D517D5AAE1B1E00FD513D5ABE1CC
:100F4C00B1E00BD50FD5ACE1B1E007D50BD5AEE1D7
:100F5C00B1E012D8F1DC49D44BD44AD4E8E1F2E048
:100F6C004AD446D478942AD82196DE5F08952F97D8
:100F7C001ED8F89449D1E432E9F746D15E2F5734A4
:100F8C0009F0A8C041D140D1E73409F0A2C03CD14E
:100F9C00E73409F09EC038D1E13409F09AC0969834
:100FAC00979ABEDCBDDC4ED40730E0E01E075CF443
:100FBC00F801E850FF4FFF93EF9326D1AF91BF910B
:100FCC00DBD74ED4F1CFACDCEFEFF0E0FF93EF9337
:100FDC001BD1AF91BF91D0D7A3DC34D4D4D45CF463
:100FEC00F801EF5FFE4FFF93EF930ED1AF91BF91DE
:100FFC00C3D736D4F3CF94DCE9E0F1E0FF93EF9361
:10100C0003D1AF91BF91B8D78BDC8ADC89DC88DC4B
:10101C0019D4B9D45CF4F801BAD41AD4FF93EF9371
:10102C00F3D0AF91BF91EC931BD4F3CF0BD406301C
:10103C00E0E01E0734F4AED4B0D4E0E3EC9310D46B
:10104C00F6CF00D4A0D454F5ABD441F1A9D451F0CF
:10105C009ED4A3D4AC91AC3229F099D49ED4AC914B
:10106C00AD3409F419C020E030E02630E0E03E0752
:10107C007CF4F9018FD4ECD30F01F90131968AD4A9
:10108C00AE0FBF1FEC91D001EC932F5F3F4FEDCF14
:10109C007ED483D4EC91EB87E3D3D4CFD3D3063077
:1010AC00E0E01E073CF476D478D4EC91E053EC935A
:1010BC00D7D3F5CFFE0136967BD3D3D1A3E0B0E0E6
:1010CC0099D6ABE0B1E050D790D3E6E9F0E06DD41F
:1010DC001DC01BC0533461F497D0EF3441F494D04D
:1010EC00EE3429F491D0E63411F48FDD0FC00DC02D
:1010FC00553459F489D0E33441F486D0E83429F4DA
:10110C0083D0EF3411F418DC01C034CF789456D767
:10111C00659608950A921A92FA926A937A938A9330
:10112C009A93AA93BA93EA93FA93EFB7EA93ADE141
:10113C00B1E04ED319F49798969803C0979A969865
:10114C00809B15DFA82DE2E068D60E2E6AD3A02D69
:10115C00B0E0A7FDBFEFEA17FB0711F419DB8824F9
:10116C0026D48394E991EFBFF991E991B991A991B2
:10117C009991899179916991F990199009901895A3
:10118C00E0E0E8BBEFEFE7BBE3E0E2BBEEEFE1BB97
:10119C00E0E0EFBDE5E0EEBD0AD4E4E0E9BFE0E05D
:1011AC00EBB9E8E1EAB9E6E8E0BDE0E0E0BDEFE884
:1011BC00E9B9E0E8E8B9E0E0E7B9E4E8E6B9FBD280
:1011CC00E8ECF0E0F2D39698979AE8ECF0E0EDD3E7
:1011DC007894AEE1B1E0FCD2A9F4D7D8FDD808D30D
:1011EC00E9E2F2E008D3EDEBF2E0E2D217D000D363
:1011FC00EDE3F2E000D3E4ECF2E0DAD20FD0E8EE6B
:10120C00F3E0D3D3E6CFFFCF5F9BFECFECB10895D5
:10121C005D9BFECFE881ECB9219608951A93A981C4
:10122C00BA81ED91A983BA831E2FE03019F01A937D
:10123C00EFDFF5CF0EC01A93E981FA813196E9837D
:10124C00FA833197E4911E2FE03019F01A93E0DF06
:10125C00F3CFEAE0D8D21881239608957B816A8176
:10126C00F981E88177FB770F67FD7160972F9E57A7
:10127C0081F078F0983190F4AA27BB27882708943E
:10128C008795B795A7959A95D1F7EA23FB23682301
:10129C0005C0E8947727EE27FF2766276F777695AA
:1012AC0008F4606877F9A991B99189919991EA1735
:1012BC00FB076807790797FB08957ED37FD311F45A
:1012CC007BD30EC0EEF778D332D25DD409C074D381
:1012DC0075D311F471D304C0EEF36ED328D25AD463
:1012EC002496089524976ED358D611F470D31CC04D
:1012FC0069D372D3EDD40CD65FD34FD611F467D328
:10130C0013C001D64ED624F457D307D6D6DF03C06C
:10131C0053D303D6DCDFFCD54FD3AC81BD818E819A
:10132C009F8188D459D3AED12C960895249743D657
:10133C0058D337D62CF0EFEFFFEF6FE77FEF5FC09E
:10134C0055D3EBD5EDB7FEB7319732D21F930F9330
:10135C0068D30F911F914FD344D3E3EFF4E065E3CF
:10136C007FE3FBD430F442D33CD314D444D30150A8
:10137C0010403CD3DCD107D47F936F93FF93EF9352
:10138C0035D3D5D107D4AF91BF918F919F91A0D474
:10139C0032D32CD326D34ED4EA83FB836C837D8348
:1013AC002FD3A6E2B2E485E69FE344D4DF01CB0160
:1013BC00EEE4F1E164E570E465D113D33BD47F93A3
:1013CC006F93FF93EF931CD3ADE4B1E184ED9FE3F6
:1013DC00DAD3AF91BF918F919F917AD47F936F9312
:1013EC00FF93EF93F801F3D49BD3A8E1B2E781E329
:1013FC009FE320D4AF91BF918F919F91CBD3E2D536
:10140C002A960895B981A881EC91EA939CD0EE2399
:10141C0011F01196F9CFE894EC91ED3211F4689437
:10142C0002C0EB3209F4119666277727EC91EA9308
:10143C0082D0EE2379F0FB01660F771F660F771FC2
:10144C006E0F7F1F660F771FED91FF27E0536E0F16
:10145C007F1FECCFFB011EF4E095F09531962296A0
:10146C000895B981A881EC91EA936DD0EE2311F027
:10147C001196F9CFE894EC91ED3211F4689402C016
:10148C00EB3209F411960024112488279927EC914A
:10149C00EA9351D0EE2389F0F001BC011BD01AD095
:1014AC000E0E1F1E861F971F15D0ED91FF27E053C0
:1014BC000E0E1F1E8F1F9F1FEACFF001BC0146F4BA
:1014CC00E095F0956095709588273196681F781F88
:1014DC0022960895000C111C881F991F0895A9913C
:1014EC00B991E991F99130962AF4E095F0953196FD
:1014FC006DE26D93E89480E197E20DD088EE93E075
:10150C000AD084E6992707D08AE005D06E2F10D038
:10151C0066276C9308956627E817F90720F0639502
:10152C00E81BF90BC9F7662311F416F008956894BB
:10153C00605D6D930895E1E0F991F03310F0FA33AA
:10154C0008F0EE270895E1E0F991F03229F0F93036
:10155C0010F0FE3008F0EE270895EA93CDC61A93EA
:10156C0010E00895E0E0E093B8020895E0E020FC7C
:10157C00E1E0EA93FEC6F0E0E7FDFFEF089581E8B5
:10158C0094E00197F1F708958FE392E00197F1F75A
:10159C00C49A82E492E00197F1F7089523D4662768
:1015AC007727BED2DF01CB01089592D382D28F016F
:1015BC00D801E8EEF3E049D43E2FD801E8EEF3E091
:1015CC0071D4DF01E4E6F0E040D42E2FD801E4E63C
:1015DC00F0E068D4DF01EAE0F0E037D45E2FD80108
:1015EC00EAE0F0E05FD44E2F30300895B1D4E053F0
:1015FC000895AAE0EA020895E4D392D20895A0E0F7
:10160C00B0E080E291E416D30895F6DFC3D2EC8704
:10161C00FD876E877F870895E1E0F0E060E070E081
:10162C000895EFEFFFEF6FEF7FEF0895E02FE4DF0A
:10163C00DF01CB01E0E0F0E060E772E449D3A12FD9
:10164C00CBD372D4A7D20895EC85FD856E857F85AA
:10165C00AAE9B9E989E19FE3EDD2DF01CB01E0E032
:10166C00F0E061E675E434D3089594D2EC83FD8305
:10167C006E837F83E32FAC81BD818E819F81BCDF24
:10168C00D9D2089554D47FD20895D4D2E887F9875B
:10169C006A877B87A885B9858A859B85E0E3FAEF05
:1016AC0067E379E415D3A0E0B0E084E092E472D271
:1016BC000895FFD161D4E885F9856A857B852DD4A1
:1016CC000895E0E3FAEF67E379E427D40BDEDF015A
:1016DC00CB01E0E0F4E661E076E4FAD2A0E0B0E021
:1016EC0084E092E457D20895E0E0F4E661E076E419
:1016FC0014D4F8DDDF01CB01E0E0F0E066EB72E43E
:10170C00E7D2A0E0B0E084E092E444D20895E0E0B7
:10171C00F0E066EB72E401D4E5DDA0E0B0E084E03B
:10172C0092E438D20895ABE0B1E00ED40895A0E075
:10173C00B0E080E89FE3089566277727DF01CB01AF
:10174C00E0EAF6E861E070E00895A12FB0E00895BA
:10175C00FFD303CFA05FBF4FFBD30895EE0FFDCE99
:10176C00A6E1B0E0F5D30895A85EBF4FF1D308957C
:10177C00AEE1B0E0EDD30895A05EBF4FE9D308957C
:10178C00A6E2B0E00895A85DBF4FE2D30895AEE2A3
:10179C00B0E00895EE0FEF5FE0CEA0E2B1E0D8D359
:1017AC001E170895AC56BF4F0895D2D3E03008955C
:1017BC00FA93EA930895969A97980895ADE0B1E05C
:1017CC00C3D3A92DB0E0A7FDBFEF6CD3309708951C
:1017DC00BFD3E9350895E12FF0E00895E081BDCE47
:1017EC00AFE1B1E0B5D31E17089596989798089578
:1017FC00EDE0EA930DCDDCDF1ECDE9E0EA9308CDF8
:10180C00EAE3EA9305CDEA9303CDEDE2FCCFF0E0F9
:10181C00CFDFFE013396CCDF62DEFE013196C8DFEE
:10182C00FDCCA7E1B1E090D30895C2DFFE01339661
:10183C00BFDF55DEFE013196BBDFF0DCE0E2E3CF2B
:10184C0087D3E1CF00E010E00895DE011D960895E6
:10185C00EA0FFB1F0895F9DFA00FB11FAC9108959B
:10186C000F5F1F4F089540E050E00895FA01EDDF3F
:10187C00EFDF0F01EADFA00FB11FEC91D001EC9369
:10188C004F5F5F4FEDCFF80131969F014E835F8321
:10189C00EACFA40FB51F0895E0E26ED308954F5F11
:1018AC005F4F0895E0E368D30895EE81FF814E17F2
:1018BC005F070895CADFEDCFAC91AD320895AE81CC
:1018CC00BF81A41BB50B08950F01FA013196BDDF42
:1018DC00AE0FBF1FEC91D0014FD30895FA01319692
:1018EC00B4DFAE0FBF1FEC91E05383CEFA013296FA
:1018FC00ACDFAE0FBF1FEC91A02DAE0FE0E320D3F9
:10190C00EA1BE05DDB0138D308950F01D3CFEC91D6
:10191C00D00132D308958901A6CFE0E02DD30895EC
:10192C00DE0118960895FA01FBDF92DF0F018DDFBF
:10193C00A00FB11FEC91D001EC93B1CFF80131960F
:10194C009F010895FE01389633DF5CCD0DD38901DC
:10195C007CDFA00FB11FEC9108950ED3F8013296E5
:10196C009F010895890171DFA00FB11FEC910895BB
:10197C00EFD2DA0100DEAE17BF0708950F0165DF65
:10198C00A00FB11FC4CF0830E0E01E070895DE01A0
:10199C001C960895DE0116960895A00FB11F0895A8
:1019AC00F6DFFBDFAC91AE32089502DF2EC0EAEE1B
:1019BC00EDBDE7EEECBD0895A1D20895AED24EDC9C
:1019CC00A7D20895EC81FD816E817F810895E0E0BE
:1019DC00F0E060E070E00895A885B9858A859B8564
:1019EC000895AE81BF81888599850895EE81FF8128
:1019FC00688579850895EE83FF83688779870895D4
:101A0C00EA81FB816C817D810895E991F991309691
:101A1C0039F08DEC9AE00197F1F7A8953197C9F759
:101A2C000895A991B991E991F9916991799177FB0F
:101A3C00660F771F88277E57880B7D938C937EE7E4
:101A4C00769567950EF0089530976040704009F0D8
:101A5C0070580895552342F4503811F4E0FF04C037
:101A6C003196691F791F6BF050E8572711F45F937B
:101A7C00CFC05F3F31F0660F000C57956795752FFF
:101A8C0008955F9300200AF0CFC0C8C050E8192E0B
:101A9C001522880F991F9527550F879550E8072E0B
:101AAC000522660F771F7527550F67950895689463
:101ABC0001C0E8945F93F2DF703818F07F3F08F4B0
:101ACC00A7C056E1571BAAF4519558300EF4593063
:101ADC0030F0EFEFFFEF6FEF7FE777F91AC0772762
:101AEC005523B9F0EE0FFF1F661F771F5A95D1F7DC
:101AFC0010C07727583028F0EF2FF62F672F58504B
:101B0C00F9CF552331F076956795F795E7955A956A
:101B1C00D1F700200AF445D15F910895689401C073
:101B2C00E894309760407040B1F0002426F07723A1
:101B3C0012F4009436D1172E7EE1112032F07A95F2
:101B4C00EE0FFF1F661F111CF9CFEF2FF62F612D23
:101B5C005F938ADF5F9108954F93AF01FD01DA0126
:101B6C00AB01BC01CA01402D012C142E4F910895DC
:101B7C00EA0FFB1F681F0895E095F0956095EF5FE5
:101B8C00FF4F6F4F08955F9381DF903871F150E8EC
:101B9C00152604C05F937ADF903839F1703821F143
:101BAC00572F591B2BF112F4D7DFFACF583118F0FD
:101BBC00AA27BB278827583028F0AB2FB82F8827A7
:101BCC005850F9CF552329F08695B795A7955A9576
:101BDC00D9F7502D512572F0CBDF38F46795F79576
:101BEC00E795739513F420C0B7DF3EDF5F9108953E
:101BFC00D8F7FBCFEA1BFB0B680B51F010F40094E9
:101C0C00BBDF662392F3EE0FFF1F661F7A95CBF7AF
:101C1C00EE27FF27662777275F910895EFEFFFEFF9
:101C2C006FE77FEF5F910895EFEFFFEF6FE77FE7CF
:101C3C005F9108955F932ADF703851F3903841F328
:101C4C0001240894791F23F41CF300203AF3ECCF01
:101C5C000F921F932F933F934F931127222799276E
:101C6C00689FA0018F9F302D410D591F6B9F300D28
:101C7C00411D591F8E9F27D0BF9F25D06A9F23D00F
:101C8C00BE9F1DD0AF9F1BD0AE9F110D291F391FBA
:101C9C00491F591FE32FF42F652F522F4F913F915E
:101CAC002F911F910F9066232AF0550FEE1FFF1FE7
:101CBC00661F02C073954BF2CDDE5F910895100D37
:101CCC00211D391F02C0200D311D491F591F0895B8
:101CDC005F93DCDE703821F411200AF49FCFA4CF7F
:101CEC00903809F495CF01240894970B1BF4D4F386
:101CFC000020F3CF792F1F932F933F934F931124F1
:101D0C001127222733274427552790E2AE17BF0708
:101D1C008607410730F0AE1BBF0B860B410B0894B6
:101D2C0001C08894551F221F331F111CAA1FBB1FF3
:101D3C00881F441F9A9551F7F901612D4F913F91DE
:101D4C002F911F91662332F0550FEE1FFF1F661F58
:101D5C007A9543F27FDE5F91089599239AF0772369
:101D6C0042F0971748F029F4AE17BF07860720F00A
:101D7C0031F0989488940895989408940895189440
:101D8C00889408957723C2F7971798F3A9F7EA1761
:101D9C00FB07680788F399F3ECCFF195E195F040D8
:101DAC000895F09560957095E195FF4F6F4F7F4FBB
:101DBC000895EE230E2EEA2F19F0E6950A94E9F712
:101DCC000895FE2FFF0FFF0B6F2F7F2F08956F2F9E
:101DDC00660F660B762F0895BA2FBB0FBB0B8B2F9C
:101DEC009B2F0895FA9FF02DEB9FF00DEA9FE02DAD
:101DFC00F10D089575D0F6DF0EF4CFDF08950024B1
:101E0C0098E0AA0F001C0E1A10F40E0E01C0A1606F
:101E1C009A95B9F7EA2FA02D089556D0F0DF0EF45D
:101E2C00E19508950024112490E1AA0FBB1F001C1A
:101E3C00111C0E1A1F0A18F40E0E1F1E01C0A160F1
:101E4C009A9599F7FD01D00108954AD0EBDF0EF475
:101E5C00A4DF08953F934F935F93002411244427EC
:101E6C00552730E2AA0FBB1F881F991F001C111C9D
:101E7C00441F551F0E1A1F0A460B570B28F40E0E43
:101E8C001F1E461F571F01C0A1603A9559F7FD014F
:101E9C00BC01D001CA015F914F913F910895C2DFFF
:101EAC00FD010895E894B7FF04C0A095B095119674
:101EBC006894F7FD72DFB6DFFD010EF46EDF089556
:101ECC00C9DFFD01BC010895E894E7FF02C0E1956C
:101EDC006894A7FF04C0A19500F8039400FA089534
:101EEC00E894F7FF02C059DF6894B7FF06C0A095CD
:101EFC00B095119600F8039400FA0895E881F981E1
:101F0C006A817B810895A881B9818A819B8108951A
:101F1C00E883F9836A837B8308957A936A93FA93AF
:101F2C00EA930895689401C0E89401D0FADD182E64
:101F3C00862F612D192E972F712D1B2EBF2FF12D52
:101F4C001A2EAE2FE12D0895119602D0FE2F119767
:101F5C00E199FECFFF93FFB7F894AEBBBFBBE09AFD
:101F6C00EDB3FFBFFF91089507D01196EF93EF2FBC
:101F7C0003D0EF9111970895E19B02C0A895FCCF77
:101F8C009FB7F894AEBBBFBBE09A8DB3E81719F0BE
:101F9C00EDBBE29AE19A9FBF089530976040704084
:101FAC00089500240A160B060806090608955A938C
:101FBC004A933A932A931A930A9308955D814C811C
:101FCC003B812A81198108810895099119910895FD
:00000001FF
