:020000000C945E
:10000200F6010C9400000C9400000C9400000C9477
:1000120000000C9400000C9400000C9400000C945E
:1000220000000C9400000C9400000C9426020C9426
:1000320000000C9400000C9400000C9400000C943E
:1000420000000C9400000C9400000C9400000C942E
:1000520000006018067F7F0618601027E80364001E
:100062000A00010000100001100001000000547598
:100072006C6973206B6520454550524F4D20002E10
:100082002E2E202020202020202020202020200072
:10009200536574204B70203A2020202020202020FD
:1000A20000536574204B69203A2020202020202014
:1000B2002000536574204B64203A20202020202009
:1000C200202000536574204D4158205370656564AB
:1000D200203A2000536574204D494E2053706565C7
:1000E20064203A20005761726E6120476172697321
:1000F2002020203A200053656E734C696E65203AC9
:1001020020202020202000536B656E6172696F20D1
:100112003A202020202020002020536574205049BE
:1001220044202020202020200020205365742053CA
:1001320070656564202020202000202053657420F3
:10014200476172697320202020200020204E6F74A6
:100152002055736564202120202020002020536533
:1001620074204D6F64652020202020202020200054
:10017200202053746172742121202020202020002D
:1001820020204B702020204B692020204B6420200F
:10019200002020204D4158202020204D494E202073
:1001A200200020205741524E41203A205075746958
:1001B20068200020205741524E41203A204869745D
:1001C200616D2000202053656E734C203A20202060
:1001D200202020202000536B656E2E20796720207E
:1001E2006470616B653A00204D6F6465203A20208F
:1001F200202020202020200020312E4C69686174AC
:10020200204144430020322E54657374204D6F64A4
:10021200650020332E43656B2053656E736F722029
:100222000020342E4175746F2054756E6520312D77
:10023200310020352E4175746F2054756E65200093
:1002420020362E43656B2050574D20416B746966F2
:100252000020256420256420256420256400205484
:100262006573743A53656E736F72202020200020EC
:1002720062623020206261302020627430002025CA
:100282006420202564202025640020626231202021
:100292006261312020627431002062623220206269
:1002A2006132202062743200206262332020626157
:1002B2003320206274330020626234202062613471
:1002C2002020627434002062623520206261352071
:1002D200206274350020626236202062613620205E
:1002E2006274360020626237202062613720206209
:1002F2007437002564202564202564202564202588
:1003020064202564202564202564002564202020A3
:1003120025640020202020202020202020202020B2
:100322002020200020536B656E6172696F2D53741B
:10033200617274410020204F4B203F002020536BFC
:10034200656E6172696F2D3141002020536B656EBD
:100352006172696F2D3241002020536B656E6172AC
:10036200696F2D3341002020536B656E6172696F96
:100372002D3441002020536B656E6172696F2D35FB
:10038200410020536B656E6172696F2D5374617207
:100392007442002020536B656E6172696F2D314289
:1003A200002020536B656E6172696F2D324200200E
:1003B20020536B656E6172696F2D334200202053AA
:1003C2006B656E6172696F2D3442002020536B653C
:1003D2006E6172696F2D3542000080C0020002001A
:1003E2006E000200A602DC030000F894EE27ECBBCC
:1003F200F1E0FBBFEBBFE5BFF8E1F1BDE1BD8DE090
:10040200A2E0BB27ED938A95E9F780E098E0A0E6A9
:10041200ED930197E9F7EEEDF3E085919591009761
:1004220061F0A591B59105901590BF01F00105907D
:100432000D920197E1F7FB01F0CFEFE5EDBFE8E0A8
:10044200EEBFC0E6D2E00C943D13AA93BA93EA93AE
:10045200FA93EFB7EA93E0918202EF5FE0938202B0
:100462000E946E160E94731614F0AA9A01C0AA98EE
:100472000E9479160E94731614F0AD9A01C0AD98CD
:10048200EFEFE2BFE991EFBFF991E991B991A9913B
:100492001895E881E062E7B988E28A95F1F7369A21
:1004A200349BFECF349AE5B1219608951A930A93AC
:1004B200EA81EE0FEE0FEE0FE0640E2F10E018301F
:1004C20070F40A930395EC81FD813196EC83FD83F0
:1004D2003197E491EA930E94C3151F5FF0CF19810F
:1004E2000881259608951A93A981B0E0E4E6F0E028
:1004F2000E947E16E4E6F0E00E94A41BE983A98133
:10050200B0E0EAE0F0E00E947E16EAE0F0E00E944D
:10051200A41BE983E05D1E2F1A930E94E91518813E
:10052200229608950E948816E0E7F0E00E948D1658
:10053200E1E8F0E00E948D16EA810E949116D1F462
:10054200E9810E94911621F4E881A0E0B0E00FC099
:10055200E230A0E0FA0721F4E881A1E0B0E007C0B0
:10056200E330A0E0FA0729F4E881A2E0B0E00E94BB
:10057200E61B35C0E230A0E0FA0791F4E9810E945F
:10058200911621F4E881A6E0B0E007C0E230A0E0D5
:10059200FA0729F4E881A7E0B0E00E94E61B1FC039
:1005A200E330A0E0FA0791F4E9810E94911621F468
:1005B200E881A8E0B0E007C0E230A0E0FA0729F441
:1005C200E881A9E0B0E00E94E61B09C0E430A0E0A7
:1005D200FA0729F4E881AAE0B0E00E94E61B0E9433
:1005E2009616239608950E94FD1B00E03FEF0E949D
:1005F2009C16ED810E94911621F5EC810E949116C4
:1006020039F4E2E9F0E00E948D16A0E0B0E015C0F6
:10061200E230A0E0FA0739F4E3EAF0E00E948D1636
:10062200A1E0B0E00AC0E330A0E0FA0749F4E4EB4D
:10063200F0E00E948D16A2E0B0E00E94DA1B1E2FAD
:100642004BC0E230A0E0FA07D1F401E0EC810E9455
:10065200911639F4E5ECF0E00E948D16A6E0B0E0C8
:100662000AC0E230A0E0FA0749F4E6EDF0E00E94A9
:100672008D16A7E0B0E00E94DA1B1E2F2DC0E330DA
:10068200A0E0FA07D9F4EC810E94911641F431E01E
:10069200E7EEF0E00E948D16A8E0B0E00BC0E23079
:1006A200A0E0FA0751F433E0E8EFF0E00E948D1683
:1006B200A9E0B0E00E94DA1B1E2F0EC0E430A0E0D9
:1006C200FA0751F4E9E0F1E00E948D16AAE0B0E0E9
:1006D2000E94DA1B1E2F38E0839B37C00E949F16B0
:1006E2000E94A5161A93FFDE859909C00E94DA15A9
:1006F200ED81EA93ED81EA931A9314DF26C086997D
:1007020012C0003049F0103011F41FEF04C0E12F85
:10071200F0E035971E2F07C0303021F0103011F471
:10072200132F01C0115084990FC0003031F01F3FC8
:1007320011F410E001C01B5F07C0303021F0311707
:1007420011F410E001C01F5FC7CF0E94AB160E94D8
:10075200041C269608950E94DA150E94B3160E9480
:100762008816EAE1F1E00E948D160E94A516EBE2DE
:10077200F1E00E948D160E9488160E94B916859992
:1007820005C00E94DA15E1E05E2EC0C0869B0BC058
:10079200849903C00E94DA159AC0839903C00E940B
:1007A200B316C398DACF0E94B3160E948816EAE104
:1007B200F1E00E948D160E94A516EBE2F1E00E9484
:1007C2008D160E94A5160E94B916859905C00E9431
:1007D200DA15E1E04E2EE9C0849BBFCF869903C0B3
:1007E2000E94DA1506C0839903C00E94B316C3980B
:1007F200DACF0E94B3160E948816ECE3F1E00E9461
:100802008D160E94A516EDE4F1E00E948D160E945D
:1008120088160E94B916859905C00E94DA15E1E092
:100822007E2E10C1849903C00E94DA15BCCF869B2C
:1008320006C0839903C00E94B316C398DACF0E9400
:10084200B3160E948816ECE3F1E00E948D160E9416
:10085200A516EDE4F1E00E948D160E94A5160E94F5
:10086200B916859903C00E94DA1540C1849BC1CF95
:10087200869903C00E94DA1506C0839903C00E94BC
:10088200B316C398DCCF0E94B3160E948816EEE519
:10089200F1E00E948D160E94A516E2E7F1E00E94A7
:1008A2008D160E9488160E94B916859903C00E946F
:1008B200DA153AC1849903C00E94DA15C0CF869B2B
:1008C20006C0839903C00E94B316C398DCCF0E946E
:1008D200B3160E948816EEE5F1E00E948D160E9482
:1008E200A516E2E7F1E00E948D160E94A5160E946D
:1008F200B916859903C00E94DA15FAC1849BC3CF49
:10090200869903C00E94DA1528CFE1CF0E949F1674
:100912000E948816E2E8F1E00E948D160E94BD1640
:100922000E94C1160E94C6160E94BD160E94CA16D7
:100932000E94C6160E94BD16A2E0B0E00E94CF1629
:100942000E94BD16E52D0E94911611F4E1E00BC044
:10095200E230A0E0FA0711F4E6E005C0E330A0E0DF
:10096200FA0721F4EBE0EA930E94D216859905C0BA
:10097200E1E0EA935A920E94D716849907C0E3E015
:10098200E51519F4E1E05E2E01C05394869907C083
:10099200E1E0E51519F4E3E05E2E01C05A94839973
:1009A20003C00E94DA15D9CEB1CF0E949F160E94D1
:1009B2008816E3E9F1E00E948D160E94BD160E949E
:1009C200BD160E94BD16A6E0B0E00E94CF160E949E
:1009D200BD160E94BD160E94BD16A7E0B0E00E949F
:1009E200CF160E94BD160E94BD16E42D0E949116DC
:1009F20011F4E2E005C0E230A0E0FA0721F4E9E0F8
:100A0200EA930E94D216859905C0E2E0EA934A92DF
:100A12000E94D716849907C0E2E0E41519F4E1E0D8
:100A22004E2E01C04394869907C0E1E0E41519F403
:100A3200E2E04E2E01C04A94839903C00E94DA1567
:100A4200B2CEB3CF0E949F160E948816A8E0B0E0F3
:100A52000E94DA1BE13019F4E4EAF1E002C0E5EBAE
:100A6200F1E0FA93EA930E9414160E94A516E6ECAE
:100A7200F1E00E948D16EAE00E94DA16A9E0B0E0E9
:100A82000E94DA1BEA932FDDE72D0E94911619F4DA
:100A9200E0E0EA9307C0E230A0E0FA0741F4E0E0C8
:100AA200EA93E1E0EA930E94C9150E94B91685997A
:100AB20005C0E3E0EA937A920E94D716849907C0B0
:100AC200E2E0E71519F4E1E07E2E01C07394869905
:100AD20007C0E1E0E71519F4E2E07E2E01C07A9446
:100AE200839903C00E94DA1584CEACCF0E949F1670
:100AF2000E948816E8EDF1E00E948D160E94A5166C
:100B0200AAE0B0E00E94DA1BEA93EDDC859906C008
:100B1200E4E0EA93E0E0EA930E94D716839903C0E7
:100B22000E94DA158CCEE2CF0E94B316849911C0CE
:100B32000E94DF16E63031F4ABE0B0E0E1E00E9463
:100B4200E61B06C00E94DF16EF5F0E94E61BE15023
:100B520012C0869910C00E94DF16E13031F4ABE07A
:100B6200B0E0E6E00E94E61B06C00E94DF16E150FC
:100B72000E94E61BEF5F0E94DF16E13051F40E94F3
:100B82009C160E94E4160E94A516EAEFF1E00E946C
:100B92008D160E94DF16E23051F40E949C160E94CC
:100BA200E4160E94A516E7E0F2E00E948D160E946C
:100BB200DF16E33051F40E949C160E94E4160E9454
:100BC200A516E4E1F2E00E948D160E94DF16E430E1
:100BD20051F40E949C160E94E4160E94A516E3E2BC
:100BE200F2E00E948D160E94DF16E53051F40E9459
:100BF2009C160E94E4160E94A516E4E3F2E00E940D
:100C02008D160E94DF16E63051F40E949C160E9457
:100C1200E4160E94A516E2E4F2E00E948D16859980
:100C220061C00E94DF160E949116E9F5E2E00E947F
:100C3200E7160E94EC16E3E5F2E0FA93EA930E94CB
:100C4200F1160E94F5160E94FB160E94F5160E94EC
:100C5200FF160E94F5160E9403170E94F5160E94C5
:100C620007170E940716E1E00E94DA160E94EC16AE
:100C7200E4E5F2E0FA93EA930E940C170E94F5165B
:100C82000E9410170E94F5160E9414170E94F51672
:100C92000E9418170E94F5160E9407170E94071655
:100CA2000E94AB16C3CFE230A0E0FA0711F485D15F
:100CB20019C0E330A0E0FA0711F47FD113C0E43089
:100CC200A0E0FA0711F491D10DC0E530A0E0FA07D7
:100CD20011F4B8D342CDE630A0E0FA0719F419D1E5
:100CE2003FD13BCD839903C00E94DA15CCCD1CCFF6
:100CF2000E94DA15089566240E940C179E2E0E9407
:100D020010178E2E0E941417BE2E0E941817AE2E98
:100D12000E94F116DE2E0E94FB16CE2E0E94FF16B6
:100D2200E09380020E940317E09381020E941C1745
:100D3200E91520F4689420F8E1E003C0E89420F873
:100D4200E0E06E2A0E942117E81520F4689421F849
:100D5200E2E003C0E89421F8E0E06E2A0E94261740
:100D6200EB1520F4689422F8E4E003C0E89422F83A
:100D7200E0E06E2A0E942B17EA1520F4689423F80B
:100D8200E8E003C0E89423F8E0E06E2A0E943017FE
:100D9200ED1520F4689424F8E0E103C0E89424F807
:100DA200E0E06E2A0E943517EC1520F4689425F8CD
:100DB200E0E203C0E89425F8E0E06E2A0E943A17C8
:100DC200A0918002EA1720F4689426F8E0E403C0B8
:100DD200E89426F8E0E06E2A0E943F17A091810273
:100DE200EA1720F4689427F8E0E803C0E89427F8AB
:100DF200E0E06E2AE1E02E26E2E02E26E4E02E2656
:100E0200E8E02E26E0E12E26E0E22E26E0E42E2681
:100E1200E0E82E266094989B02C0E89401C0689492
:100E220030F8999B02C0E89401C0689431F80895A3
:100E320062DFE2E00E94DA1627FE02C0E1E301C0AF
:100E4200E0E3EA930E94E91526FE02C0E1E301C055
:100E5200E0E3EA930E94E91525FE02C0E1E301C046
:100E6200E0E3EA930E94E91524FE02C0E1E301C037
:100E7200E0E3EA930E94E91523FE02C0E1E301C028
:100E8200E0E3EA930E94E91522FE02C0E1E301C019
:100E9200E0E3EA930E94E91521FE02C0E1E301C00A
:100EA200E0E3EA930E94E91520FE02C0E1E301C0FB
:100EB200E0E3EA930E94E9150895AF9AAB9AAE98DF
:100EC20021C0AF98AB98AE9A22C020C0AF98AE9A1C
:100ED20008951A9310E0E9811E1770F40E944417D6
:100EE2000E944B17AA9AAD9AAF9AAB9AAE9AAC9A55
:100EF2000E9452171F5FEFCF188122960895AF9874
:100F0200AE9AAB9AAC980895AF9AAE98AB98AC9A59
:100F120008951A930A9378940E945817CEDF00E03E
:100F220010E00F3FE0E01E07ACF40E94B316A4E805
:100F3200B2E00E946217A6E8B2E00E9462170E9425
:100F42009C160E94EC160E9468170E9407160F5FFB
:100F52001F4FE7CF0E945817F894099119910895ED
:100F62001A930A9378940E944B170E944417A9DFA0
:100F720000E010E00F3FE0E01E07DCF40E94B31631
:100F8200A4E8B2E0ED91FD913197FE93EE93A6E8CD
:100F9200B2E0ED91FD913197FE93EE930E949C1683
:100FA2000E94EC160E9468170E9407160F5F1F4FDF
:100FB200E1CF0E945817F8949EC31A930A939BDEBE
:100FC2000E94DA150E94B3160E948816E0E6F2E04B
:100FD2000E948D1600E010E00033E5E71E0724F4BE
:100FE20027DF0F5F1F4FF8CF86C30E947B170E9437
:100FF200DA1500E010E00E9403170E94C0172CF4DB
:10100200E02FA4E2B0E00E94E61B0E94CB170E94F0
:10101200D017EA17FB072CF4E02FACE1B0E00E94F6
:10102200E61B0E94D3170E2E11240E94CB170E949A
:10103200D817A4E1B0E00E94E117E1E7F2E00E94D4
:101042008D16E1E00E94DA160E94EC160E94E71764
:101052000E94D3170E94F5160E94CB170E94F51624
:101062000E941C170E94F5160E94EC170E94F117AD
:10107200859903C00E94B31601C0BBCF0E94FF1620
:101082000E94F917AE17BF072CF4E02FA3E2B0E0DD
:101092000E94E61B0E9400180E94D017EA17FB0765
:1010A2002CF4E02FABE1B0E00E94E61B0E94051891
:1010B2000E2E11240E9400180E94D817A3E1B0E05E
:1010C2000E94E117ECE8F2E00E948D16E1E00E9436
:1010D200DA160E94EC160E94E7170E9405180E9479
:1010E200F5160E9400180E94F5160E9421170E9410
:1010F200F5160E94EC170E94F117859903C00E9411
:101102009F1601C0BBCF0E94FB160E940A18AE17A1
:10111200BF072CF4E02FA2E2B0E00E94E61B0E947F
:1011220011180E94D017EA17FB072CF4E02FAAE14E
:10113200B0E00E94E61B0E9416180E2E11240E9497
:1011420011180E94D817A2E1B0E00E94E117EBE962
:10115200F2E00E948D16E1E00E94DA160E94EC167F
:101162000E94E7170E9416180E94F5160E94111895
:101172000E94F5160E9426170E94F5160E94EC178F
:101182000E941B18859903C00E949F1601C0BBCF05
:101192000E94F1160E941E18AE17BF072CF4E02F12
:1011A200A1E2B0E00E94E61B0E9425180E94D0171F
:1011B200EA17FB072CF4E02FA9E1B0E00E94E61B3E
:1011C2000E942A180E2E11240E9425180E94D81758
:1011D200A1E1B0E00E94E117EAEAF2E00E948D1676
:1011E200E1E00E94DA160E94EC160E94E7170E94C4
:1011F2002A180E94F5160E9425180E94F5160E94D0
:101202002B170E94F5160E94EC170E941B18859955
:1012120003C00E949F1601C0BBCF0E9418170E94F4
:101222002F18AE17BF072CF4E02FA0E2B0E00E9407
:10123200E61B0E9436180E94D017EA17FB072CF40F
:10124200E02FA8E1B0E00E94E61B0E943B180E2EA0
:1012520011240E9436180E94D817A0E1B0E00E9423
:10126200E117E9EBF2E00E948D16E1E00E94DA1646
:101272000E94EC160E94E7170E943B180E94F51686
:101282000E9436180E94F5160E9430170E94F51629
:101292000E94EC170E941B18859903C00E949F169A
:1012A20001C0BBCF0E9414170E944018AE17BF079F
:1012B2002CF4E02FAFE1B0E00E94E61B0E94471839
:1012C2000E94D017EA17FB072CF4E02FA7E1B0E049
:1012D2000E94E61B0E944C180E2E11240E944718F1
:1012E2000E94D817AFE0B0E00E94E117E8ECF2E00C
:1012F2000E948D16E1E00E94DA160E94EC160E940E
:10130200E7170E944C180E94F5160E9447180E9487
:10131200F5160E9435170E94F5160E94EC170E94DE
:101322001B18859903C00E949F1601C0BBCF0E9463
:1013320010170E945118AE17BF072CF4E02FAEE130
:10134200B0E00E94E61B0E9458180E94D017EA17CC
:10135200FB072CF4E02FA6E1B0E00E94E61B0E94FE
:101362005D180E2E11240E9458180E94D817AEE064
:10137200B0E00E94E117E7EDF2E00E948D16E1E095
:101382000E94DA160E94EC160E94E7170E945D186E
:101392000E94F5160E9458180E94F5160E943A17EC
:1013A2000E94F5160E94EC170E941B18859903C033
:1013B2000E949F1601C0BBCF0E940C170E946218A8
:1013C200AE17BF072CF4E02FADE1B0E00E94E61BA0
:1013D2000E9469180E94D017EA17FB072CF4E02F2D
:1013E200A5E1B0E00E94E61B0E946E180E2E1124A9
:1013F2000E9469180E94D817ADE0B0E00E94E11780
:10140200E6EEF2E00E948D16E1E00E94DA160E94FA
:10141200EC160E94E7170E946E180E94F5160E94B1
:1014220069180E94F5160E943F170E94F5160E9445
:10143200EC170E941B18859903C00E949F1601C0D9
:10144200BBCF57C10E947B1700E010E00E94031738
:101452000E94C0172CF4E02FA4E2B0E00E94E61B29
:101462000E94CB170E94D017EA17FB072CF4E02F3B
:10147200ACE1B0E00E94E61B0E94D3170E2E1124AD
:101482000E94CB170E94D817A4E1B0E00E94E61B8D
:101492000E94FF160E94F917AE17BF072CF4E02F27
:1014A200A3E2B0E00E94E61B0E9400180E94D0173F
:1014B200EA17FB072CF4E02FABE1B0E00E94E61B39
:1014C2000E9405180E2E11240E9400180E94D8179F
:1014D200A3E1B0E00E94E61B0E94FB160E940A18DC
:1014E200AE17BF072CF4E02FA2E2B0E00E94E61B89
:1014F2000E9411180E94D017EA17FB072CF4E02F64
:10150200AAE1B0E00E94E61B0E9416180E2E1124DA
:101512000E9411180E94D817A2E1B0E00E94E61BB7
:101522000E94F1160E941E18AE17BF072CF4E02F7E
:10153200A1E2B0E00E94E61B0E9425180E94D0178B
:10154200EA17FB072CF4E02FA9E1B0E00E94E61BAA
:101552000E942A180E2E11240E9425180E94D817C4
:10156200A1E1B0E00E94E61B0E9418170E942F180A
:10157200AE17BF072CF4E02FA0E2B0E00E94E61BFA
:101582000E9436180E94D017EA17FB072CF4E02FAE
:10159200A8E1B0E00E94E61B0E943B180E2E112427
:1015A2000E9436180E94D817A0E1B0E00E94E61B04
:1015B2000E9414170E944018AE17BF072CF4E02FA8
:1015C200AFE1B0E00E94E61B0E9447180E94D017CC
:1015D200EA17FB072CF4E02FA7E1B0E00E94E61B1C
:1015E2000E944C180E2E11240E9447180E94D817F0
:1015F200AFE0B0E00E94E61B0E9410170E94511853
:10160200AE17BF072CF4E02FAEE1B0E00E94E61B5C
:101612000E9458180E94D017EA17FB072CF4E02FFB
:10162200A6E1B0E00E94E61B0E945D180E2E112476
:101632000E9458180E94D817AEE0B0E00E94E61B44
:101642000E940C170E946218AE17BF072CF4E02FFD
:10165200ADE1B0E00E94E61B0E9469180E94D0171B
:10166200EA17FB072CF4E02FA5E1B0E00E94E61B8D
:101672000E946E180E2E11240E9469180E94D8171B
:10168200ADE0B0E00E94E1170E94EC16E5EFF2E057
:10169200FA93EA930E943F170E94F5160E943A17A6
:1016A2000E94F5160E9435170E94F5160E94301707
:1016B2000E94F5160E942B170E94F5160E9426170B
:1016C2000E94F5160E9421170E94F5160E941C170F
:1016D2000E94F51680E20E945C15A4960E94EC1608
:1016E2000E940716E8E7F0E00E947318859B01C08C
:1016F200ABCE0E94DA15099119910895E62DF0E01A
:10170200EE3FA0E0FA0729F4E9EFFFEF0E94771815
:10171200D3C0E83FA0E0FA0721F0EC3FA0E0FA07CF
:1017220029F4EAEFFFEF0E947718C6C0ED3FA0E070
:10173200FA0729F4EBEFFFEF0E947718BDC0E13FF3
:10174200A0E0FA0721F0E93FA0E0FA0729F4ECEF64
:10175200FFEF0E947718B0C0EB3FA0E0FA0729F430
:10176200EDEFFFEF0E947718A7C0E33EA0E0FA0773
:1017720021F0E33FA0E0FA0729F4EEEFFFEF0E9429
:1017820077189AC0E73FA0E0FA0729F4EFEFFFEFDE
:101792000E94771891C0E73EA0E0FA0731F4E0E03A
:1017A200E0939802E093990287C0EF3EA0E0FA0727
:1017B20029F4E1E0F0E00E9477187EC0E73CA0E067
:1017C200FA0721F0EF3CA0E0FA0729F4E2E0F0E0AA
:1017D2000E94771871C0EF3DA0E0FA0729F4E3E018
:1017E200F0E00E94771868C0EF38A0E0FA0721F015
:1017F200EF39A0E0FA0729F4E4E0F0E00E9477185C
:101802005BC0EF3BA0E0FA0729F4E5E0F0E00E94BC
:10181200771852C0EF31A0E0FA0721F0EF33A0E0D1
:10182200FA0729F4E6E0F0E00E94771845C0EF37A6
:10183200A0E0FA0729F4E7E0F0E00E9477183CC044
:10184200EF3FA0E0FA07A1F4A0919902AA2332F493
:101852000E947C180E94811838DB36C10E948B18C6
:101862000E94F71B24F40E94901830DB2DC125C082
:10187200E03EA0E0FA0721F0E03FA0E0FA0731F4F1
:10188200E1EFFFEF0E94771820DB17C0E730A0E0FE
:10189200FA0721F0EF30A0E0FA0731F4EFE0F0E0D0
:1018A2000E94771813DB09C0E138A0E0FA0721F0A3
:1018B200E33CA0E0FA0709F400DBE0918302F0E0E8
:1018C2000E948B18EA1BFB0BE0939A02F0939B0297
:1018D2000E949218A091A002B091A1020E949718B2
:1018E200E0939202F0939302A0919C02B0919D0228
:1018F2000E949218EA1BFB0BE0939E02F0939F0258
:10190200E091A202F091A302A0919E02B0919F02E7
:101912000E949718E0939402F0939502A0919A0284
:10192200B0919B02EBE0F0E00E949F1BBF010E947E
:101932009F18E4E1F0E00E949F1BDB010E94871BDD
:10194200A091A402B091A5020E94871BE093960287
:10195200F09397020E949218E0939C02F0939D02EA
:10196200E0919402F0919502A0919202B0919302BB
:10197200EA0FFB1FA0919602B0919702EA0FFB1F9C
:10198200E0939002F09391020E949F18E0918802E6
:10199200F0918902EA1BFB0BDF010E94A4180E944E
:1019A2007C18B896A0919002B0919102EA0FFB1FA9
:1019B2000E94AD180E947C180E947A1B0E94971AFE
:1019C200ACEEB1E588E39FE30E941C1BDF01CB0173
:1019D200E0919002F09191020E947A1B0E94971A64
:1019E2000E94CD1B0E94CA1AA4E8B2E00E94601AAB
:1019F200ED93FC93A0918402B0918502A030E1E0C6
:101A0200BE0784F00E946E16EF5FF040A09186023E
:101A1200B0918702AE1BBF0BA0938602B0938702E0
:101A22000E944B17A0918602B0918702A030E1E09C
:101A3200BE0784F00E947916EF5FF040A091840205
:101A4200B0918502AE1BBF0BA0938402B0938502B6
:101A52000E944417A0918502AA235AF40E94B21848
:101A620053DA0E946E16AFEFBFEF0E94871B0E94EF
:101A7200B618A0918702AA235AF40E94B2183FDA3C
:101A82000E947916AFEFBFEF0E94871B0E94AD182C
:101A92000E946E163097C1F4A0919902AA2342F4D3
:101AA2000E94BB180E94C4180E94AD180EDA0CC026
:101AB2000E948B180E94F71B3CF40E94BB180E94E4
:101AC200C4180E94AD1802DA0E94EC16EDE0F3E0B1
:101AD200FA93EA930E946E160E947A1B0E94C81B18
:101AE2000E9479160E947A1B0E94C81B88E00E94FD
:101AF2005C152C960E948816E5E1F3E00E948D1693
:101B02000E9488160E94EC160E940716E1E0F0E09F
:101B12000E947318089530FC03C0EFEFE61509F038
:101B22000EC00E94C618EFEFE61531F40E947C0643
:101B32000E949018E4D9F7CF0E94CA1813C031FC52
:101B420003C0EFEFE61509F00DC00E94C618EFEFD3
:101B5200E61531F40E947C060E949018D5D9F7CF81
:101B62000E94CA185DC00E94CE1830FC03C0EFEF7D
:101B7200E61509F019C00E94CA186FD5E7EEE615FE
:101B820031F0EFEEE61519F0E7EFE61509F409C0BA
:101B92000E947C060E94BB180E94C4180E94D4189E
:101BA200EDCF0E94CA1802C0B6DFDDCF08950E94B1
:101BB200D7180E945E070E94190731FC03C0EFEF9D
:101BC200E61509F00BC00E94CA1846D524FE05C0CE
:101BD2000E94F2180E94F518F9CF02C08FDDEBCFF8
:101BE2000E94FD180E945E070E94190731FC03C083
:101BF200EFEF6E1608F00FC00E94CA18EFEF6E16D4
:101C020018F40E940119FACFEFEFE61519F40E94B9
:101C12000119FACF02C072DDE7CF0E94CA181CD5A3
:101C22000E945E0708950E94D7180E947C0630FE2B
:101C320003C00E94CE18FBCF0FD530FC03C00E9418
:101C4200CE18FBCF30FE03C00E94CE18FBCF04D5C6
:101C52000E94CA180E947C06EFEF6E1648F40E949A
:101C6200051974960E94081974960E940A19F4CFF5
:101C7200EFEFE61549F40E9405193A960E940819F9
:101C82003A960E940A19F4CF0E94FD180E940E197A
:101C9200FDCF0E94121931FE03C00E940E19FBCF24
:101CA2000E942F190E947C0631FE05C00E94321943
:101CB2000E940A19F9CF0E94FD180E947C0627FE95
:101CC20007C00E94F2180E9408190E940A19F7CF51
:101CD2000E947C0627FC07C00E94F2180E94081985
:101CE2000E940A19F7CF0E947C0623FE07C00E94B9
:101CF200F2180E9408190E940A19F7CF0E94FD18D3
:101D02000E947C0631FE03C00E94CE18FBCFA4D4F1
:101D120031FC03C00E94CE18FBCF31FE03C00E94EB
:101D2200CE18FBCF99D431FC03C00E94CE18FBCF52
:101D320010E01A3020F40E94CE181F5FFACF30FE56
:101D420005C00E945E070E941907F9CF0E942F1951
:101D52000E947C0631FE05C00E9432190E940A19B7
:101D6200F9CF0E94FD180E947C06EFEF6E1628F450
:101D72000E9436190E940A19F8CF24FE05C00E945B
:101D820036190E940A19F9CF0E94FD180E947C069A
:101D920031FE03C00E94CE18FBCF5ED431FC03C0DB
:101DA2000E94CE18FBCF0E947C0631FE03C00E9427
:101DB200CE18FBCF51D431FC03C00E94CE18FBCF0A
:101DC20031FE03C00E94CE18FBCF0E942F190E9441
:101DD2007C0631FE05C00E9432190E940A19F9CF11
:101DE2000E947C0620FE07C00E94F2180E94081979
:101DF2000E940A19F7CF0E947C0630FE03C00E949F
:101E0200CE18FBCF0E947C0630FC03C00E94CE1885
:101E1200FBCF10E01A3020F40E94CE181F5FFACFD9
:101E22009EC20E943A190E943F190E94CE1830FCAD
:101E320025C00E94FD180E94C61830FE05C00E94EF
:101E420032190E940A19F9CF0E94FD180E947C06DD
:101E5200EFEF6E1630F40E94561979970E945A19C4
:101E6200F7CF0E947C0624FE06C00E94561979977D
:101E72000E945A19F8CF0E94FD1801C0D6CF0E94C5
:101E8200CE1831FC07C0E8D331FC03C00E94CE1843
:101E9200FBCF01C0F4CF0E94CE1831FC07C0DCD3C7
:101EA20031FC03C00E94CE18FBCF01C0F4CF0E94C8
:101EB2000E1931FC07C0D0D331FC03C00E94CE18EA
:101EC200FBCF01C0F4CF0E94CE1831FC07C0C4D3AF
:101ED20031FC03C00E94CE18FBCF01C0F4CF0E9498
:101EE200CE1831FC07C0B8D331FC03C00E94CE1813
:101EF200FBCF01C0F4CFA0C21A9310E00E94B21827
:101F02000E945D19E1E1F0E00E946319E1E0F0E076
:101F12000E946819E7E0F0E00E946D190E945E07D6
:101F22000E940E190E947C183296E0938A02F09366
:101F32008B020E949F18A030E1E0BE0734F0EFEF61
:101F4200F0E0E0938A02F0938B02EFEFE61561F482
:101F52001F5F1C3448F00E9462077FD3E6E9EA93D0
:101F62000E946A077AD301C0DBCFFAC10E947219BC
:101F7200E230A0F00E947219E330C8F10E94721997
:101F8200E43008F45CC00E947219E53008F480C0A5
:101F92000E947219E63008F4A3C0CAC00E947719E1
:101FA2000E949C16E6E2F3E00E948D160E94A5169E
:101FB2000E9480190E9488160E94B916849903C053
:101FC2000E949F16B5C0869903C00E949F160FC03B
:101FD200859907C00E948319C398C5DD0E9486199E
:101FE200CEC0839903C00E948319C9C0D7CF0E9473
:101FF20090190E949C16EEE3F3E00E948D160E9457
:10200200A5160E9480190E9488160E94B91684990A
:1020120003C00E949F16C2CF869903C00E949F16DA
:102022000EC0859906C00E948319C3980E94861922
:10203200A6C0839903C00E948319A1C0D8CF0E9471
:1020420099190E949C16ECE4F3E00E948D160E94FE
:10205200A5160E9480190E9488160E94B9168499BA
:1020620003C00E949F16C3CF869903C00E949F1689
:102072000FC0859907C00E948319C398D4DD0E94BE
:10208200A2197DC0839903C00E94831978C0D7CF5B
:102092000E94A8190E949C16EAE5F3E00E948D16A0
:1020A2000E94A5160E9480190E9488160E94B916E5
:1020B200849903C00E949F16C2CF869903C00E94D2
:1020C2009F160EC0859906C00E948319C3980E946C
:1020D200A21955C0839903C00E94831950C0D8CF5A
:1020E2000E94B1190E949C16E8E6F3E00E948D1648
:1020F2000E94A5160E9480190E9488160E94B91695
:10210200849903C00E949F16C3CF869903C00E9480
:102112009F160EC0859906C00E948319C39881DE5E
:10212200EBDE2DC0839903C00E94831928C0D8CF4B
:102132000E94BA190E949C16E6E7F3E00E948D16EF
:102142000E94A5160E9480190E9488160E94B91644
:10215200849903C00E949F16C3CF869903C00E9430
:102162009F161CCF859905C00E948319C398C4DEAF
:1021720006C0839903C00E94831901C0D9CF7AC2D5
:102182000E94CE1831FC03C0EFEFE61509F019C02A
:102192000E94CA1862D2E7EEE61531F0EFEEE615BC
:1021A20019F0E7EFE61509F409C00E947C060E94C7
:1021B200BB180E94C4180E945A19EDCF0E94CA1877
:1021C20002C0A9DCDDCF089548D2FECF46D2FECFB1
:1021D2000E94121930FE03C00E940E19FBCF0E940A
:1021E2002F190E947C0630FE05C00E9432190E94FF
:1021F2000A19F9CF0E94FD180E947C0620FE07C032
:102202000E9405190E9408190E940A19F7CF0E941C
:102212007C0620FC07C00E9405190E9408190E9432
:102222000A19F7CF0E947C0624FE07C00E940519F6
:102232000E9408190E940A19F7CF0E94FD180E94F5
:102242007C0630FE03C00E94CE18FBCF05D230FCC4
:1022520003C00E94CE18FBCF30FE03C00E94CE18EE
:10226200FBCFFAD130FC03C00E94CE18FBCF10E0A6
:102272001A3020F40E94CE181F5FFACF30FE05C03C
:102282000E945E070E941907F9CF0E942F190E942F
:102292007C0630FE05C00E9432190E940A19F9CF4D
:1022A2000E94FD180E947C06EFEF6E1628F40E9431
:1022B200C3190E940A19F8CF23FE05C00E94C31950
:1022C2000E940A19F9CF0E94FD180E947C0630FE76
:1022D20003C00E94CE18FBCFBFD130FC03C00E94C6
:1022E200CE18FBCF0E947C0630FE03C00E94CE189F
:1022F200FBCFB2D130FC03C00E94CE18FBCF30FE20
:1023020003C00E94CE18FBCF0E942F190E947C06A8
:1023120030FE05C00E9432190E940A19F9CF0E94AC
:102322007C0627FE07C00E9405190E9408190E9418
:102332000A19F7CF0E947C0631FE03C00E94CE1814
:10234200FBCF0E947C0631FC03C00E94CE18FBCF5B
:1023520010E01A3020F40E94CE181F5FFACF7CD111
:10236200199108950E943A190E943F190E94CE18AD
:1023720031FC25C00E94FD180E94C61831FE05C01E
:102382000E9432190E940A19F9CF0E94FD180E9478
:102392007C06EFEF6E1630F40E94561979970E9470
:1023A200D418F7CF0E947C0624FE06C00E9456195C
:1023B20079970E94D418F8CF0E94FD1801C0D6CF99
:1023C2000E94CE1830FC07C047D130FC03C00E94E7
:1023D200CE18FBCF01C0F4CF0E94CE1830FC07C04C
:1023E2003BD130FC03C00E94CE18FBCF01C0F4CF1A
:1023F2000E940E1930FC07C02FD130FC03C00E948E
:10240200CE18FBCF01C0F4CF0E94CE1830FC07C01B
:1024120023D130FC03C00E94CE18FBCF01C0F4CF01
:102422000E94CE1830FC07C017D130FC03C00E94B6
:10243200CE18FBCF01C0F4CF0FD108955DDD089512
:102442000E947219E230A0F00E947219E330C8F1C2
:102452000E947219E43008F45CC00E947219E530DF
:1024620008F480C00E947219E63008F4A3C0CAC002
:102472000E9477190E949C16E4E8F3E00E948D16F0
:102482000E94A5160E9480190E9488160E94B91601
:10249200849903C00E948319B5C0869903C00E9423
:1024A20083190FC0859907C00E948319C39868DEFB
:1024B2000E94C719CEC0839903C00E948319C9C064
:1024C200D7CF0E9490190E949C16E5E9F3E00E9482
:1024D2008D160E94A5160E9480190E9488160E94DD
:1024E200B916849903C00E948319C2CF869903C08A
:1024F2000E9483190EC0859906C00E948319C39851
:102502000E94C719A6C0839903C00E948319A1C063
:10251200D8CF0E9499190E949C16E3EAF3E00E9428
:102522008D160E94A5160E9480190E9488160E948C
:10253200B916849903C00E948319C3CF869903C038
:102542000E9483190FC0859907C00E948319C398FE
:102552003DDE0E94D1197DC0839903C00E94831978
:1025620078C0D7CF0E94A8190E949C16E1EBF3E035
:102572000E948D160E94A5160E9480190E9488163C
:102582000E94B916849903C00E948319C2CF86990A
:1025920003C00E9483190EC0859906C00E94831948
:1025A200C3980E94D11955C0839903C00E94831910
:1025B20050C0D8CF0E94B1190E949C16EFEBF3E0F5
:1025C2000E948D160E94A5160E9480190E948816EC
:1025D2000E94B916849903C00E948319C3CF8699B9
:1025E20003C00E9483190EC0859906C00E948319F8
:1025F200C398B8DE23DF2DC0839903C00E948319DC
:1026020028C0D8CF0E94BA190E949C16EDECF3E0C4
:102612000E948D160E94A5160E9480190E9488169B
:102622000E94B916849903C00E948319C3CF869968
:1026320003C00E9483191CCF859905C00E9483198B
:10264200C398FCDE06C0839903C00E94831901C0AF
:10265200D9CF0E94DA150EC008C0C39AE4E6F0E0B2
:102662000E947318C3980E949F16C39AE4E6F0E092
:102672000E947318C3980895E0E0EBBBEABBE8BB85
:10268200EFEFE7BBE3E0E5BBECEFE4BBE8E7E2BB7F
:10269200E0E0E1BBE5E0E3BFEFEFE2BFE0E0ECBF8B
:1026A200E1E0E9BFE0E8E8B9E0E0E0BFE0E2E7B995
:1026B200E7E8E6B9E0E1EA930E942516E4E5F0E0F6
:1026C200FA93EA93E0E0EA930E945702C5DFE4EF4F
:1026D200F1E00E947318C39A0E94D719E5E0E3BFA4
:1026E2000E94AC03C39878940E94C116F0E00E9445
:1026F20063190E94CA16F0E00E946819A2E0B0E0D5
:102702000E94DB190E946D190E94C116A3E0B0E07D
:102712000E94E61B0E94CA16A5E0B0E00E94E61BDA
:102722000E94CA16A4E0B0E00E94E61BA6E0B0E058
:102732000E94DB19E0938802F0938902A7E0B0E0DF
:102742000E94DB19E0938C02F0938D020E945D19C6
:10275200A6E0B0E00E94DA1B0E2E1124A7E0B0E042
:102762000E94DB19D001AE1BBF0B0E94A418E0E04F
:10277200E0939802E0939902E0939A02E0939B021D
:10278200E0939C02E0939D020E94961666DF0E94EF
:102792005E070E940E19849908C00E94B3160E9417
:1027A200D7190E94DA15E2DB18C0869908C00E9488
:1027B200B3160E94D7190E94DA1542DE0EC031FC10
:1027C20004C00E940E19C39AFACF30FC04C00E94C2
:1027D2000E19C39AFACFC398DCCFFFCF1A930A938C
:1027E200AA81BB8112960E94C01B309729F1AA814F
:1027F200BB8114960E94C01B8F01309761F002309A
:10280200E0E01E07C0F0F80131978F01AA81BB8179
:102812001496ED93FC93AA81BB8112960E946217D3
:102822003197AC81A083AA81BB810E94C01BFF2388
:1028320012F00E94621706C0AA81BB81EFEFFFEF80
:10284200ED93FC93198108812596089526970E949D
:10285200FB1B10E0AC85BD85E0E0F0E0ED93FC935E
:10286200EA89FB893196EA8BFB8B3197E4912E2F13
:10287200E03011F40C945415E12FE03039F4253294
:1028820011F411E002C00E94DF190CC1E130A9F479
:10289200253219F40E94DF1904C112E040E000E081
:1028A2002D3211F401E0FEC02B3211F44BE2FAC0DA
:1028B200203211F440E2F6C002C0E23039F450E0B6
:1028C20013E0203311F40068EDC004C0E33011F0CE
:1028D2000C945315203310F02A3308F007C0AAE0F5
:1028E2005A9F502DE22FE0535E0FDCC0E22FE336F9
:1028F20049F40E94E819E889F989A481AA930E94FF
:10290200EE19CFC0E33741F40E94E8190E94F6198C
:102912000E9459161E2F0AC0E03761F40E94E8197E
:102922000E94F6190E9463161E2F086002600F773C
:1029320030E035C0E43611F0E93611F4046002C02B
:10294200E53731F4ECE5F0E0EE83FF8315E00DC0EE
:10295200E83511F4086004C0E83711F00C94521500
:10296200E6E6F0E0EE83FF8314E002FF14C00E946B
:10297200E8190E94001AAB85AA233AF4EA85FB857E
:102982000E946E1BEA87FB874DE2403011F01F5F09
:1029920001C00B7F04C00E94E8190E94001A00FDCA
:1029A20011C0151778F407FF08C002FF04C00B7F9F
:1029B200242F115001C020E301C020E20E94DF1940
:1029C2005150EFCF312F01FF17C03030A1F003FF7C
:1029D20006C0EE81FF812591EE83FF8305C0AE81A3
:1029E200BF812D91AE83BF830E94DF19503009F061
:1029F20051503150EACF4BC020E3EE81FF810E945B
:102A0200C41BE887F987EE81FF813296EE83FF834C
:102A1200E885F985AA85BB85AE17BF0750F02F5F01
:102A2200A885B985EA85FB85EA1BFB0BEA87FB874C
:102A3200EFCF2A3328F003FF02C0295F01C0295DCE
:102A420004FD1AC0213320F4A885B985119709F431
:102A520009C0531710F000FF01C013C020E207FFA6
:102A62000BC020E3006102FF07C00B7F4A930E9464
:102A7200EE19503009F051500E94DF19503009F020
:102A820051503150A885B985129708F0B5CF00FF93
:102A920008C0503031F05150E0E2EA930E94EE1942
:102AA200F8CF10E0DDCEAC85BD850E94C01B0E9430
:102AB200021C64960895FF92F82E26970E94FD1B31
:102AC2000E94081A309719F4EFEFFFEF25C0DE01DC
:102AD20016960E946A1B8D010E94081AEE83FF83DC
:102AE200E0E0E887E987DE011A960E946A1B0E94ED
:102AF200C01BFA93EA931A930A93EFEEF3E1FA9367
:102B0200EA93FE013A96FA93EA93A0DE9F01AE8120
:102B1200BF81E0E0EC93F9010E94041C2A96FF9029
:102B22000895E881E07111F0C49A01C0C498E88167
:102B3200E07211F0C59A01C0C598E881E07411F005
:102B4200C69A01C0C698E881E07811F0C79A01C020
:102B5200C79888E08A95F1F7C29A84E18A95F1F7DD
:102B6200C29884E18A95F1F7A1C0E881EA93D9DF9E
:102B7200E881E295E883E881EA93D3DF88EC8A95DD
:102B8200F1F794C0E981EA93F0DF0E940F1A0FC0B7
:102B9200E881F0E0EA55FD4FE081A981EA0FEA936E
:102BA200E4DFE981E093AA02E881E093AB02229696
:102BB2000895E2E00E94161AECE0EA93D6DFE1E023
:102BC2000E94161AE0E0E093AB02E093AA02089595
:102BD200A881AA3031F0E091AC02A091AA02AE170E
:102BE20068F0E0E0EA93E091AB02EF5FE093AB02C2
:102BF200EA93CEDFA881AA3009F458C0E091AA0274
:102C0200EF5FE093AA020E940F1A50C01A93A981A3
:102C1200BA81ED91A983BA831E2FE03019F01A937D
:102C2200D7DFF5CF0EC01A93E981FA813196E98395
:102C3200FA833197E4911E2FE03019F01A93C8DF1E
:102C4200F3CF188123960895BC9ABD9ABE9ABF9A73
:102C5200BA9AB89AB99AC298C098C198E881E09392
:102C6200AC02E058E093A802E881E054E093A902A4
:102C7200E4E1F0E00E9473180E941C1A0E941C1AE0
:102C82000E941C1AE0E2EA934CDF8CE291E0019789
:102C9200F1F7E8E2EA9369DFE4E0EA9366DFE5E868
:102CA200EA9363DFE6E0EA9360DF83DF219608952B
:102CB200A991B991EE27FF276D91662311F0319604
:102CC200FBCF0895AA27BB27E991F991059000202F
:102CD20011F01196FBCFFD010895E0918402F0916D
:102CE20085020895A0918202B0E0EA17FB070895D9
:102CF200E0918602F091870208950E949F1B1E2F89
:102D0200105D1A930E94E915A981BB270895E0E09E
:102D1200EA93EA930C94C915FA93EA930C94141665
:102D2200F0E0E130A0E0FA070895E8ECF0E0FA9371
:102D3200EA930C94251A0E94DA15E9CFE6E9F0E04D
:102D4200FA93EA930C94251AE0E0EA93E1E0EA931D
:102D52000C94C915E4E6F0E0FA93EA930E94251A6E
:102D62000C94DA15EDE7F0E0FA93EA930C94251A45
:102D7200E0E0EA930C94E915E0E2EA930C94E91599
:102D8200A0E0B0E00E94DA1B0895EA930E94740268
:102D9200F3CFA1E0B0E00E94DA1B08950E94DA1B93
:102DA200F4CFE0E0EA930E94C915E2CF0E94F40258
:102DB200BCCFEA93E1E0EA930C94C915ABE0B0E032
:102DC2000E94DA1B0895E9EEF1E0A6CFEA93E0E073
:102DD200EA930C94C915E0E6F2E0FA93EA930895B7
:102DE200E3E0EA930C944A02FF27662777270E94C2
:102DF200C81B0895E2E0EA930C944A02E1E0EA93E8
:102E02000C944A02E0E0EA930C944A0280E10E94A8
:102E12005C156496E0CFE7E0EA930C944A02E6E0A0
:102E2200EA930C944A02E5E0EA930C944A02E4E045
:102E3200EA930C944A02A4E1B0E00E94DA1B0895DE
:102E4200A3E1B0E00E94DA1B0895A2E1B0E00E9483
:102E5200DA1B0895A1E1B0E00E94DA1B0895A0E117
:102E6200B0E00E94DA1B0895AFE0B0E00E94DA1BE6
:102E72000895AEE0B0E00E94DA1B0895ADE0B0E044
:102E82000E94DA1B0895EFEFF0E0E0938602F093E0
:102E920087020895EFEFF0E0E0938402F093850259
:102EA2000895EAE0F0E0FA93EA930C94251AE0E040
:102EB200E0938402E0938502E0938602E093870226
:102EC2000895ED91FD913196FE93EE930895E9E513
:102ED200F2E0FA93EA9301DF0E947A1B0E94C81B78
:102EE20007DF0E947A1B0E94C81B88E00E945C15C3
:102EF2002C9671CF1A930A93A5E1B0E0E7E00E9405
:102F0200E61BA6E1B0E00E94E61BA7E1B0E00E944A
:102F1200E61BA8E1B0E00E94E61BA9E1B0E00E9436
:102F2200E61BAAE1B0E00E94E61BABE1B0E00E9422
:102F3200E61BACE1B0E00E94E61BADE1B0E0E8ECDC
:102F42000E94E61BAEE1B0E00E94E61BAFE1B0E0FA
:102F52000E94E61BA0E2B0E00E94E61BA1E2B0E004
:102F62000E94E61BA2E2B0E00E94E61BA3E2B0E0F0
:102F72000E94E61BA4E2B0E00E94E61B08950E2F19
:102F82001127A4E2B0E00E94DA1BD801F0E0AE17EC
:102F9200BF070895ACE1B0E00E94DA1B0895D801A2
:102FA200F0E00895A4E2B0E00E94DA1B0895F0E098
:102FB200D001AE0FBF1FE2E0F0E00E949F1B089518
:102FC2000E94E61B0E94DA15E1E000CFE0E8F2E0A1
:102FD200FA93EA9308958CE00E945C156096FBCE0A
:102FE2000E940716E2E3F0E0FA93EA930C94251AA2
:102FF2000E2F1127A3E2B0E00E94DA1BD0CFABE183
:10300200B0E00E94DA1B0895A3E2B0E00E94DA1B4E
:1030120008950E2F1127A2E2B0E00E94DA1BBFCF63
:10302200AAE1B0E00E94DA1B0895A2E2B0E00E9499
:10303200DA1B08950E94071634CF0E2F1127A1E242
:10304200B0E00E94DA1BABCFA9E1B0E00E94DA1B2C
:103052000895A1E2B0E00E94DA1B08950E2F112715
:10306200A0E2B0E00E94DA1B9ACFA8E1B0E00E9491
:10307200DA1B0895A0E2B0E00E94DA1B08950E2F39
:103082001127AFE1B0E00E94DA1B89CFA7E1B0E0DF
:103092000E94DA1B0895AFE1B0E00E94DA1B0895A6
:1030A2000E2F1127AEE1B0E00E94DA1B78CFA6E125
:1030B200B0E00E94DA1B0895AEE1B0E00E94DA1B94
:1030C20008950E2F1127ADE1B0E00E94DA1B67CF01
:1030D200A5E1B0E00E94DA1B0895ADE1B0E00E94E4
:1030E200DA1B0895FA93EA930C94251AE093980256
:1030F200F09399020895E0918A02F0918B0208956B
:10310200E0938402F0938502F6DFE0938602F09367
:1031120087020895A0919802B09199020895EBDF79
:10312200EFCFE0919A02F0919B0208950E94871BD3
:10313200DF01E2E0F0E00E949F1B0895A0918A0265
:10314200B0918B020895E8E0F0E00E949F1BE093AB
:103152008E02F0938F020895E0938602F093870225
:103162000895E3E0EA930C946A07E0938402F093F3
:1031720085020895A0918802B0918902E2E0F0E010
:103182000E949F1B0895F1DFF5CF0E942D130C942E
:103192007C06E5E0EA930C946A070E945E070E94AF
:1031A20019070C947F0BD8DF0C948507E0918C02F1
:1031B200F0918D023A97E0938A02F0938B02E1E15B
:1031C200F0E0E093A002F093A102E0E0E093A2021B
:1031D200E093A302E8E0F0E0E093A402F093A502FA
:1031E20008950E94850787CF3A97BFDF84DF3A9719
:1031F2007997B2DF0C947C06EAE0EA930C946A07B2
:103202000E94800778DFF0CF0E94800774CFADDF85
:1032120072CF7997A1DF0C947C060E9419070C9457
:103222007F0B1A93E0918C02F0918D023D97E0930F
:103232008A02F0938B02EBE0F0E0E093A002F093BD
:10324200A102E0E0E093A202E093A302E7E0F0E053
:10325200E093A402F093A5020C945E070E942D1342
:10326200CBCF0E94620747DFD2CF0E94670743DFBE
:10327200CECFE0918C02F0918D0208953597E093C4
:103282008A02F0938B02E1E1F0E0E093A002F09376
:10329200A102E0E0E093A202E093A302EBE0F0E0FF
:1032A200E093A402F093A50208950E947C0623DF16
:1032B200AECF52DF0C948007DCDFE0938A02F093FA
:1032C2008B020895E093A002F093A1020895E09387
:1032D200A202F093A3020895E093A402F093A50240
:1032E2000895ACE0B0E00E94DA1B0895C39AACE006
:1032F200B0E0E1E00E94E61BE2E3F0E0F3CEE7E3B8
:10330200F3E00ACDEAEFF0E0EDCE0E94D80D0E9484
:10331200140E0E944A0E0E94120F0C947D0FC39A43
:10332200ACE0B0E0E2E00E94E61BE2E3F0E0DACEDD
:10333200C39AACE0B0E0E3E00E94E61BE2E3F0E017
:10334200D1CE0E944A0E0E94120F0C947D0FC39A96
:10335200ACE0B0E0E4E00E94E61BE2E3F0E0C2CEC3
:10336200C39AACE0B0E0E5E00E94E61BE2E3F0E0E5
:10337200B9CEC39AACE0B0E0E6E00E94E61BE2E31D
:10338200F0E0B0CE0E946607B6DE41CF0E94E510A3
:103392000E94E7100E94E9100E94B3110C941F12C0
:1033A2000E94E9100E94B3110C941F12E1E0EA930B
:1033B2000C946A070E94DA1BF0E008952A93ED85C7
:1033C200FE85FA93EA93E989FA8909950895E889CD
:1033D200F9893497E88BF98B0895ED85FE85FA9388
:1033E200EA93E989FA8909950895A889B989149611
:1033F2000E94C01BEE83FF83FA93EA930895A88983
:10340200B98914960E94C01BEA87FB870895DE01E2
:103412001C960E946A1B0E94C01B0895C09AE881F4
:10342200EA930E94B615C0980895EA930E94B615D1
:10343200E3E0F0E057CEE0E3EA930E9492158CE2DB
:1034420091E00197F1F70895E991F991309639F0F9
:1034520088EB9BE00197F1F7A8953197C9F708959A
:10346200552342F4503811F4E0FF04C03196691F2D
:10347200791F6BF050E8572711F45F93CAC05F3F82
:1034820031F0660F000C57956795752F08955F937D
:1034920000200AF0CAC0C3C050E8192E1522880FB6
:1034A200991F9527550F879550E8072E0522660F1D
:1034B200771F7527550F67950895689401C0E894A2
:1034C2005F93F2DF703818F07F3F08F4A2C056E134
:1034D200571BAAF4519558300EF4593030F0EFEFE3
:1034E200FFEF6FEF7FE777F91AC077275523B9F01F
:1034F200EE0FFF1F661F771F5A95D1F710C077276F
:10350200583028F0EF2FF62F672F5850F9CF552358
:1035120031F076956795F795E7955A95D1F70020A2
:103522000AF4DFD05F910895689401C0E89430975F
:1035320060407040B1F0002426F0772312F400942A
:10354200D0D0172E7EE1112032F07A95EE0FFF1FB8
:10355200661F111CF9CFEF2FF62F612D5F938ADFC3
:103562005F9108954F93AF01FD01DA01AB01BC01F8
:10357200CA01402D012C142E4F910895EA0FFB1F12
:10358200681F0895E095F0956095EF5FFF4F6F4FCC
:1035920008955F9381DF903849F150E8152670381D
:1035A20021F1572F591B2BF112F4DCDFFACF5831DE
:1035B20018F0AA27BB278827583028F0AB2FB82F3E
:1035C20088275850F9CF552329F08695B795A795A6
:1035D2005A95D9F7502D512572F0D0DF38F46795FE
:1035E200F795E795739513F420C0BCDF43DF5F9135
:1035F2000895D8F7FBCFEA1BFB0B680B51F010F4D0
:103602000094C0DF662392F3EE0FFF1F661F7A95C8
:10361200CBF7EE27FF27662777275F910895EFEF15
:10362200FFEF6FE77FEF5F910895EFEFFFEF6FE737
:103632007FE75F9108955F932FDF703851F39038E1
:1036420041F301240894791F23F41CF300203AF378
:10365200ECCF0F921F932F933F934F931127222763
:103662009927689FA0018F9F302D410D591F6B9F95
:10367200300D411D591F8E9F27D0BF9F25D06A9FB5
:1036820023D0BE9F1DD0AF9F1BD0AE9F110D291F0F
:10369200391F491F591FE32FF42F652F522F4F91C6
:1036A2003F912F911F910F9066232AF0550FEE1F25
:1036B200FF1F661F02C073954BF2D2DE5F91089521
:1036C200100D211D391F02C0200D311D491F591F28
:1036D20008950024AF0DB01D0895F195E195F040D5
:1036E2000895F09560957095E195FF4F6F4F7F4F6C
:1036F20008956F2F660F660B762F0895FA9FF02DAF
:10370200EB9FF00DEA9FE02DF10D08952AD0F6DF30
:103712000EF4E3DF08950024112490E1AA0FBB1FE9
:10372200001C111C0E1A1F0A18F40E0E1F1E01C0D7
:10373200A1609A9599F7FD01D001089512D0EBDFAF
:103742000EF4CBDF0895E894B7FF04C0A095B095BE
:1037520011966894F7FDC1DFDEDFFD010EF4BDDFD7
:103762000895E894F7FF02C0B8DF6894B7FF06C077
:10377200A095B095119600F8039400FA0895ED9182
:10378200FC91119708950590F491E02D08957A9394
:103792006A93FA93EA930895182E862F612D192EB3
:1037A200972F712D1B2EBF2FF12D1A2EAE2FE12D2B
:1037B2000895E199FECFFF93FFB7F894AEBBBFBB6C
:1037C200E09AEDB3FFBFFF910895E19B02C0A89577
:1037D200FCCF9FB7F894AEBBBFBBE09A8DB3E8179E
:1037E20019F0EDBBE29AE19A9FBF089500240A16F0
:1037F2000B0608955A934A933A932A931A930A937B
:1038020008955D814C813B812A8119810881089547
:00000001FF
