:040000000C943F001D
:100004000C9400000C9400000C9400000C9400006C
:100014000C9400000C9400000C9400000C9400005C
:100024000C94D7000C9400000C9400000C94000075
:100034000C947E000C9400000C94A1000C9400001D
:100044000C9400000C9400000C9400000C9400002C
:100054001027E80364000A000100001000011000EA
:10006400010000006465627567207265616479202F
:1000740000000100020066000000F894EE27ECBBCB
:10008400F1E0FBBFEBBFE5BFF8E1F1BDE1BD8DE001
:10009400A2E0BB27ED938A95E9F780E098E0A0E61B
:1000A400ED930197E9F7E6E7F0E0859195910097E4
:1000B40061F0A591B59105901590BF01F0010590EF
:1000C4000D920197E1F7FB01F0CFEFE5EDBFE8E01A
:1000D400EEBFC0E6D2E00C946303AC9AAD98E8811D
:1000E400E062E7B985E28A95F1F7369A349BFECF50
:1000F400349AAC98E5B152C0EA93FA93EFB7EA9315
:100104001A930A931BB10CB1E12FEC7189F4E52D1C
:100114005394F0E0E05AFD4F0083E8E0E51509F45C
:1001240055247394E8E0E71519F47724689420F8CB
:1001340009911991E991EFBFF991E9911895EA9321
:10014400FA93EFB7EA93882061F08A94E92D9394A7
:10015400F0E0E859FD4FE081ECB9E8E0E91509F475
:100164009924E991EFBFF991E9911895E8E0E81530
:10017400E9F3F894882011F45D990DC0E62D639499
:10018400F0E0E859FD4FA881A083E8E0E61509F402
:100194006624839402C0E881ECB97894219608958A
:1001A400EFEFEDBDE0E1ECBD08950A921A92FA92E8
:1001B4006A937A938A939A93AA93BA93EA93FA9353
:1001C400EFB7EA93B394E4E6BE1610F00C944C0136
:1001D400EB2DF0E0E059FD4FFF93EF93E0E0EA935D
:1001E4007CDFF0E0AFEFB0E00E94F803EA1BFB0B0A
:1001F400AF91BF91EC93EB2DF0E0EC52FD4FFF93E8
:10020400EF93E1E0EA9369DFF0E0AFEFB0E00E9442
:10021400F803EA1BFB0BAF91BF91EC93EB2DF0E0DD
:10022400E85CFC4FFF93EF93E2E0EA9356DFAF9173
:10023400BF91EC93EB2DF0E0E456FC4FFF93EF936A
:10024400E3E0EA934ADFAF91BF91EC93869B0EC043
:10025400AB2DBB27EEE1F0E00E94EA03309731F4C6
:10026400E0EBF4E0FA93EA935ED029D2879912C0C6
:10027400AB2DBB27EEE1F0E00E94EA03309751F486
:10028400E0E0F6E9FA93EA934ED0E8E6F0E0FA9378
:10029400EA9365D2E4E6EB15E9F4BB24E0EBF4E081
:1002A400FA93EA9340D0CED0A998A89AEFEFE8BB8E
:1002B400E8EEF3E0FA93EA930E94C7035AD059D0C8
:1002C40058D0E6E9F0E0FA93EA930E94C703E0E02D
:1002D400E8BBA89865DFE991EFBFF991E991B9917D
:1002E400A9919991899179916991F99019900990BD
:1002F4001895E1E0EBBBE0E0EABB0895E0E0E8BB81
:10030400EFEFE7BB0895E0E0E5BBEFEFE4BB089552
:10031400EFEFE2BBE2E0E1BB0895E0E0EFBDE5E032
:10032400EEBD3EDF0895A881B981A03BE4E0BE079D
:1003340061F4E0E0EBB9E8EDEAB9E6E8E0BDE2E05B
:10034400E0BDEFE3E9B9AA9AAB98A881B981A030DE
:10035400E6E9BE0761F4E0E0EBB9E8EDEAB9E6E806
:10036400E0BDE0E0E0BDE1E1E9B9AA98AB9A2296EC
:100374000895E4E2EA93FADEE3E3EA93F7DEE3E5E1
:10038400EA93F4DEE5E4EA93F1DEE3E4EA93EEDEF5
:10039400ECE2EA93EBDEA0E0B0E00E94FF03EA9314
:1003A400E5DEA4E0B0E00E94FF03EA93DFDEA8E00C
:1003B400B0E00E94FF03EA93D9DEA1E0B0E00E941E
:1003C400FF03EA93D3DEA5E0B0E00E94FF03EA93C3
:1003D400CDDEA9E0B0E00E94FF03EA93C7DEA2E00D
:1003E400B0E00E94FF03EA93C1DEA6E0B0E00E9401
:1003F400FF03EA93BBDEAAE0B0E00E94FF03EA93A6
:10040400B5DEA3E0B0E00E94FF03EA93AFDEA7E00D
:10041400B0E00E94FF03EA93A9DEABE0B0E00E94E3
:10042400FF03EA93A3DEECE2EA93A0DEEAE2EA93B6
:100434009DDEEDE0EA939ADE0895E0E2E7B9E7E8AD
:10044400E6B908952497E0E0E883E983EA83EB833F
:100454000E941C0420E030E040E050E0A0E0B0E066
:10046400EFEF0E940B04A4E0B0E0E0E00E940B0474
:10047400A8E0B0E00E940B04A1E0B0E0EFEF0E941E
:100484000B04A5E0B0E0E0E00E940B04A9E0B0E0BA
:100494000E940B04A2E0B0E0EFEF0E940B04A6E080
:1004A400B0E0E0E00E940B04AAE0B0E00E940B047C
:1004B400A3E0B0E0EFEF0E940B04A7E0B0E0E0E0BF
:1004C4000E940B04ABE0B0E00E940B0410E0143671
:1004D40010F00C943703E12FF0E0E059FD4F008059
:1004E400A0E0B0E00E94FF030E1648F4E12FF0E014
:1004F400E059FD4FE081A0E0B0E00E940B04E12F41
:10050400F0E0E059FD4F0080A8E0B0E00E94FF0356
:10051400E01548F4E12FF0E0E059FD4FE081A8E058
:10052400B0E00E940B04E12FF0E0E059FD4FE081C0
:10053400F0E02E0F3F1FE12FF0E0EC52FD4F008062
:10054400A1E0B0E00E94FF030E1648F4E12FF0E0B2
:10055400EC52FD4FE081A1E0B0E00E940B04E12FDA
:10056400F0E0EC52FD4F0080A9E0B0E00E94FF03F0
:10057400E01548F4E12FF0E0EC52FD4FE081A9E0F2
:10058400B0E00E940B04E12FF0E0EC52FD4FE0815B
:10059400F0E04E0F5F1FE12FF0E0E85CFC4F0080BD
:1005A400A2E0B0E00E94FF030E1648F4E12FF0E051
:1005B400E85CFC4FE081A2E0B0E00E940B04E12F74
:1005C400F0E0E85CFC4F0080AAE0B0E00E94FF038A
:1005D400E01548F4E12FF0E0E85CFC4FE081AAE08C
:1005E400B0E00E940B04E12FF0E0E85CFC4FE081F6
:1005F400F0E0A885B985EA0FFB1FE887F987E12FAA
:10060400F0E0E456FC4F0080A3E0B0E00E94FF035A
:100614000E1648F4E12FF0E0E456FC4FE081A3E02D
:10062400B0E00E940B04E12FF0E0E456FC4F0080A0
:10063400ABE0B0E00E94FF03E01548F4E12FF0E0E6
:10064400E456FC4FE081ABE0B0E00E940B04E12FE4
:10065400F0E0E456FC4FE081F0E0AE81BF81EA0FA8
:10066400FB1FEE83FF831F5F32CFD901E4E6F0E086
:100674000E94D703A4E0B0E00E940B04DA01E4E690
:10068400F0E00E94D703A5E0B0E00E940B04A88527
:10069400B985E4E6F0E00E94D703A6E0B0E00E944A
:1006A4000B04AE81BF81E4E6F0E00E94D703A7E02B
:1006B400B0E00E940B040E9423042A960895A99A8C
:1006C400089517DE1BDE1FDE23DEE0EBF4E0FA9371
:1006D400EA9329DEB2DE21DEA4E0B0E0E0E00E948D
:1006E4000B04A0E0B0E0EFEF0E940B04A8E0B0E040
:1006F400E0E00E940B04A5E0B0E00E940B04A1E03E
:10070400B0E0EFEF0E940B04A9E0B0E0E0E00E944B
:100714000B04A6E0B0E00E940B04A2E0B0E0EFEF0F
:100724000E940B04AAE0B0E0E0E00E940B04A7E002
:10073400B0E00E940B04A3E0B0E0EFEF0E940B04D2
:10074400ABE0B0E0E0E00E940B04BB24E4E0E9BFCE
:10075400E0E8E8B9E0E0E0BF7894FFCFFFCF1A9378
:10076400E981FA813196E983FA833197E4911E2F66
:10077400E03021F01A930E94B800F2CFEAE0EA9345
:100784000E94B800188123960895E991F991309652
:1007940039F08DEC9AE00197F1F7A8953197C9F7F4
:1007A4000895F195E195F04008950024112490E115
:1007B400AA0FBB1F001C111C0E1A1F0A18F40E0EE0
:1007C4001F1E01C0A1609A9599F7FD01D0010895FB
:1007D400E894B7FF04C0A095B09511966894F7FD0E
:1007E400E0DFE3DFFD010EF4DCDF08951B2EBF2FF5
:1007F400F12D1A2EAE2FE12D0895E199FECFFF932E
:10080400FFB7F894AEBBBFBBE09AEDB3FFBFFF9157
:100814000895E19B02C0A895FCCF9FB7F894AEBBA6
:10082400BFBBE09A8DB3E81719F0EDBBE29AE19AE9
:100834009FBF08955A934A933A932A931A930A931B
:1008440008955D814C813B812A8119810881089535
:00000001FF
