:060000000C94F6010C94C3
:1000060000000C9400000C9400000C9400000C946A
:1000160000000C9400000C9400000C9400000C945A
:1000260000000C9400000C9426020C9400000C9422
:1000360000000C9400000C9400000C9400000C943A
:1000460000000C9400000C9400000C940000601852
:10005600067F7F0618601027E80364000A00010087
:100066000010000110000100000054756C69732037
:100076006B6520454550524F4D20002E2E2E2020D8
:1000860020202020202020202020200053657420BE
:100096004B70203A20202020202020200053657419
:1000A600204B69203A202020202020202000536564
:1000B60074204B64203A202020202020202000534A
:1000C6006574204D4158205370656564203A2000C0
:1000D600536574204D494E205370656564203A205F
:1000E600005761726E612047617269732020203A61
:1000F600200053656E734C696E65203A20202020DF
:10010600202000536B656E6172696F203A202020B3
:1001160020202000202053657420504944202020B0
:1001260020202020002020536574205370656564CC
:10013600202020202000202053657420476172690A
:100146007320202020200020204E6F7420557365D8
:1001560064202120202020002020536574204D6F2C
:100166006465202020202020202020002020537499
:1001760061727421212020202020200020204B7035
:100186002020204B692020204B64202000202020A6
:100196004D4158202020204D494E2020200020206F
:1001A6005741524E41203A2050757469682000200C
:1001B600205741524E41203A20486974616D200013
:1001C600202053656E734C203A20202020202020CA
:1001D6002000536B656E2E20796720206470616B5A
:1001E600653A00204D6F6465203A202020202020AB
:1001F6002020200020312E4C696861742041444340
:100206000020322E54657374204D6F6465002033D0
:100216002E43656B2053656E736F72200020342E5B
:100226004175746F2054756E6520312D310020356F
:100236002E4175746F2054756E65200020362E434E
:10024600656B2050574D20416B746966002025640C
:100256002025642025642025640020546573743AA3
:1002660053656E736F72202020200020626230205A
:100276002062613020206274300020256420202511
:1002860064202025640020626231202062613120D2
:1002960020627431002062623220206261322020A6
:1002A6006274320020626233202062613320206251
:1002B600743300206262342020626134202062742C
:1002C6003400206262352020626135202062743558
:1002D6000020626236202062613620206274360079
:1002E6002062623720206261372020627437002541
:1002F6006420256420256420256420256420256447
:100306002025642025640025642020202564002003
:1003160020202020202020202020202020202000F7
:1003260020536B656E6172696F2D537461727441EF
:100336000020204F4B203F002020536B656E6172DA
:10034600696F2D3141002020536B656E6172696FB4
:100356002D3241002020536B656E6172696F2D331B
:1003660041002020536B656E6172696F2D34410028
:100376002020536B656E6172696F2D3541002053E5
:100386006B656E6172696F2D5374617274420020E1
:1003960020536B656E6172696F2D314200202053C8
:1003A6006B656E6172696F2D3242002020536B655A
:1003B6006E6172696F2D3342002020536B656E614A
:1003C60072696F2D3442002020536B656E6172692D
:1003D6006F2D3542000080C0020002006E00020050
:1003E600A402DC030000F894EE27ECBBF1E0FBBFAF
:1003F600EBBFE5BFF8E1F1BDE1BD8DE0A2E0BB27B3
:10040600ED938A95E9F780E098E0A0E6ED930197F1
:10041600E9F7EEEDF3E085919591009761F0A591EE
:10042600B59105901590BF01F00105900D920197C9
:10043600E1F7FB01F0CFEFE5EDBFE8E0EEBFC0E688
:10044600D2E00C940B14AA93BA93EA93FA93EFB7FB
:10045600EA93E0918202EF5FE09382020E942D17F9
:100466000E94321714F0AA9A01C0AA980E9438175F
:100476000E94321714F0AD9A01C0AD98EFEFE2BFBB
:10048600E991EFBFF991E991B991A9911895E881A0
:10049600E062E7B988E28A95F1F7369A349BFECF97
:1004A600349AE5B1219608951A930A93EA81EE0FDC
:1004B600EE0FEE0FE0640E2F10E0183070F40A9382
:1004C6000395EC81FD813196EC83FD833197E491B0
:1004D600EA930E9482161F5FF0CF19810881259644
:1004E60008951A93A981B0E0E4E6F0E00E943D1772
:1004F600E4E6F0E00E94D31AE983A981B0E0EAE0DD
:10050600F0E00E943D17EAE0F0E00E94D31AE9838A
:10051600E05D1E2F1A930E94A81618812296089550
:100526000E944717E0E7F0E00E944C17E1E8F0E090
:100536000E944C17EA810E945017D1F4E9810E946B
:10054600501721F4E881A0E0B0E00FC0E230A0E04F
:10055600FA0721F4E881A1E0B0E007C0E330A0E0AB
:10056600FA0729F4E881A2E0B0E00E94081B35C032
:10057600E230A0E0FA0791F4E9810E94501721F4D5
:10058600E881A6E0B0E007C0E230A0E0FA0729F46F
:10059600E881A7E0B0E00E94081B1FC0E330A0E09E
:1005A600FA0791F4E9810E94501721F4E881A8E046
:1005B600B0E007C0E230A0E0FA0729F4E881A9E03C
:1005C600B0E00E94081B09C0E430A0E0FA0729F455
:1005D600E881AAE0B0E00E94081B0E945517239606
:1005E60008950E941F1B00E03FEF0E945B17ED81FC
:1005F6000E94501721F5EC810E94501739F4E2E968
:10060600F0E00E944C17A0E0B0E015C0E230A0E098
:10061600FA0739F4E3EAF0E00E944C17A1E0B0E0F3
:100626000AC0E330A0E0FA0749F4E4EBF0E00E94E8
:100636004C17A2E0B0E00E94FC1A1E2F4BC0E2301D
:10064600A0E0FA07D1F401E0EC810E94501739F4DA
:10065600E5ECF0E00E944C17A6E0B0E00AC0E230FC
:10066600A0E0FA0749F4E6EDF0E00E944C17A7E097
:10067600B0E00E94FC1A1E2F2DC0E330A0E0FA075E
:10068600D9F4EC810E94501741F431E0E7EEF0E036
:100696000E944C17A8E0B0E00BC0E230A0E0FA07D9
:1006A60051F433E0E8EFF0E00E944C17A9E0B0E027
:1006B6000E94FC1A1E2F0EC0E430A0E0FA0751F487
:1006C600E9E0F1E00E944C17AAE0B0E00E94FC1AB3
:1006D6001E2F38E0839B37C00E945E170E94641766
:1006E6001A93FFDE859909C00E949916ED81EA9357
:1006F600ED81EA931A9314DF26C0869912C0003062
:1007060049F0103011F41FEF04C0E12FF0E03597E7
:100716001E2F07C0303021F0103011F4132F01C006
:10072600115084990FC0003031F01F3F11F410E0D2
:1007360001C01B5F07C0303021F0311711F410E003
:1007460001C01F5FC7CF0E946A170E94261B26960C
:1007560008950E9499160E9472170E944717EAE1AF
:10076600F1E00E944C170E946417EBE2F1E00E9450
:100776004C170E9447170E947817859905C00E945A
:100786009916E1E05E2EC0C0869B0BC0849903C01B
:100796000E9499169AC0839903C00E947217C39843
:1007A600DACF0E9472170E944717EAE1F1E00E9431
:1007B6004C170E946417EBE2F1E00E944C170E946E
:1007C60064170E947817859905C00E949916E1E082
:1007D6004E2EE9C0849BBFCF869903C00E9499160E
:1007E60006C0839903C00E947217C398DACF0E948D
:1007F60072170E944717ECE3F1E00E944C170E9423
:100806006417EDE4F1E00E944C170E9447170E941E
:100816007817859905C00E949916E1E07E2E10C1D1
:10082600849903C00E949916BCCF869B06C0839903
:1008360003C00E947217C398DACF0E9472170E94F3
:100846004717ECE3F1E00E944C170E946417EDE4B1
:10085600F1E00E944C170E9464170E947817859950
:1008660003C00E94991640C1849BC1CF869903C0DC
:100876000E94991606C0839903C00E947217C398F6
:10088600DCCF0E9472170E944717EEE5F1E00E9446
:100896004C170E946417E2E7F1E00E944C170E9491
:1008A60047170E947817859903C00E9499163AC186
:1008B600849903C00E949916C0CF869B06C083996F
:1008C60003C00E947217C398DCCF0E9472170E9461
:1008D6004717EEE5F1E00E944C170E946417E2E725
:1008E600F1E00E944C170E9464170E9478178599C0
:1008F60003C00E949916FAC1849BC3CF869903C090
:100906000E94991628CFE1CF0E945E170E944717D2
:10091600E2E8F1E00E944C170E947C170E948017C3
:100926000E9485170E947C170E9489170E948517CE
:100936000E947C17A2E0B0E00E948E170E947C17EE
:10094600E52D0E94501711F4E1E00BC0E230A0E063
:10095600FA0711F4E6E005C0E330A0E0FA0721F457
:10096600EBE0EA930E949117859905C0E1E0EA93CE
:100976005A920E949617849907C0E3E0E51519F488
:10098600E1E05E2E01C05394869907C0E1E0E515CB
:1009960019F4E3E05E2E01C05A94839903C00E94C5
:1009A6009916D9CEB1CF0E945E170E944717E3E988
:1009B600F1E00E944C170E947C170E947C170E944F
:1009C6007C17A6E0B0E00E948E170E947C170E945A
:1009D6007C170E947C17A7E0B0E00E948E170E9449
:1009E6007C170E947C17E42D0E94501711F4E2E058
:1009F60005C0E230A0E0FA0721F4E9E0EA930E949C
:100A06009117859905C0E2E0EA934A920E949617EB
:100A1600849907C0E2E0E41519F4E1E04E2E01C026
:100A26004394869907C0E1E0E41519F4E2E04E2EFE
:100A360001C04A94839903C00E949916B2CEB3CFDF
:100A46000E945E170E944717A8E0B0E00E94FC1AB9
:100A5600E13019F4E4EAF1E002C0E5EBF1E0FA93E3
:100A6600EA930E94D3160E946417E6ECF1E00E9416
:100A76004C17EAE00E949917A9E0B0E00E94FC1A20
:100A8600EA932FDDE72D0E94501719F4E0E0EA9370
:100A960007C0E230A0E0FA0741F4E0E0EA93E1E0C3
:100AA600EA930E9488160E947817859905C0E3E0AC
:100AB600EA937A920E949617849907C0E2E0E715B6
:100AC60019F4E1E07E2E01C07394869907C0E1E037
:100AD600E71519F4E2E07E2E01C07A94839903C0EB
:100AE6000E94991684CEACCF0E945E170E944717CB
:100AF600E8EDF1E00E944C170E946417AAE0B0E00E
:100B06000E94FC1AEA93EDDC859906C0E4E0EA93BC
:100B1600E0E0EA930E949617839903C00E94991613
:100B26008CCEE2CF0E947217849911C00E949E1744
:100B3600E63031F4ABE0B0E0E1E00E94081B06C00D
:100B46000E949E17EF5F0E94081BE15012C0869913
:100B560010C00E949E17E13031F4ABE0B0E0E6E051
:100B66000E94081B06C00E949E17E1500E94081BA7
:100B7600EF5F0E949E17E13051F40E945B170E94BE
:100B8600A3170E946417EAEFF1E00E944C170E9437
:100B96009E17E23051F40E945B170E94A3170E9431
:100BA6006417E7E0F2E00E944C170E949E17E330BC
:100BB60051F40E945B170E94A3170E946417E4E198
:100BC600F2E00E944C170E949E17E43051F40E94F6
:100BD6005B170E94A3170E946417E3E2F2E00E94EB
:100BE6004C170E949E17E53051F40E945B170E9435
:100BF600A3170E946417E4E3F2E00E944C170E94D8
:100C06009E17E63051F40E945B170E94A3170E94BC
:100C16006417E2E4F2E00E944C17859961C00E94D5
:100C26009E170E945017E9F5E2E00E94A6170E945F
:100C3600AB17E3E5F2E0FA93EA930E94B0170E943D
:100C4600B4170E94BA170E94B4170E94BE170E94DA
:100C5600B4170E94C2170E94B4170E94C6170E94BA
:100C6600C616E1E00E9499170E94AB17E4E5F2E090
:100C7600FA93EA930E94CB170E94B4170E94CF17EB
:100C86000E94B4170E94D3170E94B4170E94D71768
:100C96000E94B4170E94C6170E94C6160E946A17C1
:100CA600C3CFE230A0E0FA0711F48BD119C0E330CC
:100CB600A0E0FA0711F485D113C0E430A0E0FA07EA
:100CC60011F497D10DC0E530A0E0FA0711F4BED3B8
:100CD60042CDE630A0E0FA0719F41DD145D13BCD4F
:100CE600839903C00E949916CCCD1CCF0E949916F9
:100CF600089566240E94CB179E2E0E94CF178E2E33
:100D06000E94D317BE2E0E94D717AE2E0E94B01790
:100D1600DE2E0E94BA17CE2E0E94BE17E0938002E6
:100D26000E94C217E09381020E94DB17E91520F4A6
:100D3600689420F8E1E003C0E89420F8E0E06E2A29
:100D46000E94E017E81520F4689421F8E2E003C059
:100D5600E89421F8E0E06E2A0E94E517EB1520F4EE
:100D6600689422F8E4E003C0E89422F8E0E06E2AF2
:100D76000E94EA17EA1520F4689423F8E8E003C015
:100D8600E89423F8E0E06E2A0E94EF17ED1520F4B0
:100D9600689424F8E0E103C0E89424F8E0E06E2AC1
:100DA6000E94F417EC1520F4689425F8E0E203C0DD
:100DB600E89425F8E0E06E2A0E94F917A0918002D7
:100DC600EA1720F4689426F8E0E403C0E89426F8CD
:100DD600E0E06E2A0E94FE17A0918102EA1720F435
:100DE600689427F8E0E803C0E89427F8E0E06E2A64
:100DF600E1E02E26E2E02E26E4E02E26E8E02E268E
:100E0600E0E12E26E0E22E26E0E42E26E0E82E267D
:100E16006094989B02C0E89401C0689430F8999B4E
:100E260002C0E89401C0689431F8089562DFE2E0F8
:100E36000E94991727FE02C0E1E301C0E0E3EA93AE
:100E46000E94A81626FE02C0E1E301C0E0E3EA9391
:100E56000E94A81625FE02C0E1E301C0E0E3EA9382
:100E66000E94A81624FE02C0E1E301C0E0E3EA9373
:100E76000E94A81623FE02C0E1E301C0E0E3EA9364
:100E86000E94A81622FE02C0E1E301C0E0E3EA9355
:100E96000E94A81621FE02C0E1E301C0E0E3EA9346
:100EA6000E94A81620FE02C0E1E301C0E0E3EA9337
:100EB6000E94A8160895AF9AAB9AAE9825C0AF982F
:100EC600AB98AE9A26C024C0AF98AE9A08951A93EE
:100ED60010E0E9811E1770F40E9403180E940A1898
:100EE600AA9AAD9AAF9AAB9AAE9AAC9A0E9411188A
:100EF6001F5FEFCF0E9417180E941D1818812296B7
:100F06000895AF98AE9AAB9AAC980895AF9AAE98FA
:100F1600AB98AC9A08951A930A930E941D180E94E2
:100F26001718C9DF00E010E00F3FE0E01E07ACF441
:100F36000E947217A4E8B2E00E942318A6E8B2E065
:100F46000E9423180E945B170E94AB170E94291863
:100F56000E94C6160F5F1F4FE7CF0E941D180E9402
:100F660017180991199108951A930A930E940A185D
:100F76000E940318A4DF00E010E00F3FE0E01E0728
:100F8600DCF40E947217A4E8B2E0ED91FD9131976E
:100F9600FE93EE93A6E8B2E0ED91FD913197FE93B4
:100FA600EE930E945B170E94AB170E9429180E94BD
:100FB600C6160F5F1F4FE1CF0E941D180E9417181B
:100FC6009EC31A930A9395DE0E9499160E94721781
:100FD6000E944717E0E6F2E00E944C1700E010E09E
:100FE6000033E5E71E0724F421DF0F5F1F4FF8CF1C
:100FF60086C30E943C180E94991600E010E00E94E9
:10100600C2170E9481182CF4E02FA4E2B0E00E94DF
:10101600081B0E948C180E949118EA17FB072CF4F3
:10102600E02FACE1B0E00E94081B0E9494180E2E3F
:1010360011240E948C180E949918A4E1B0E00E9425
:10104600A218E1E7F2E00E944C17E1E00E9499172E
:101056000E94AB170E94A8180E9494180E94B41709
:101066000E948C180E94B4170E94DB170E94B417C6
:101076000E94AD180E94B218859903C00E9472178B
:1010860001C0BBCF0E94BE170E94BA18AE17BF0799
:101096002CF4E02FA3E2B0E00E94081B0E94C118C6
:1010A6000E949118EA17FB072CF4E02FABE1B0E0A1
:1010B6000E94081B0E94C6180E2E11240E94C118F9
:1010C6000E949918A3E1B0E00E94A218ECE8F2E0B1
:1010D6000E944C17E1E00E9499170E94AB170E94EC
:1010E600A8180E94C6180E94B4170E94C1180E9430
:1010F600B4170E94E0170E94B4170E94AD180E9410
:10110600B218859903C00E945E1701C0BBCF0E942A
:10111600BA170E94CB18AE17BF072CF4E02FA2E235
:10112600B0E00E94081B0E94D2180E949118EA178C
:10113600FB072CF4E02FAAE1B0E00E94081B0E94F6
:10114600D7180E2E11240E94D2180E949918A2E1D7
:10115600B0E00E94A218EBE9F2E00E944C17E1E031
:101166000E9499170E94AB170E94A8180E94D718D0
:101176000E94B4170E94D2180E94B4170E94E51765
:101186000E94B4170E94AD180E94DC18859903C00E
:101196000E945E1701C0BBCF0E94B0170E94DF18E5
:1011A600AE17BF072CF4E02FA1E2B0E00E94081BA7
:1011B6000E94E6180E949118EA17FB072CF4E02F0C
:1011C600A9E1B0E00E94081B0E94EB180E2E112424
:1011D6000E94E6180E949918A1E1B0E00E94A218A8
:1011E600EAEAF2E00E944C17E1E00E9499170E9499
:1011F600AB170E94A8180E94EB180E94B4170E9411
:10120600E6180E94B4170E94EA170E94B4170E94BB
:10121600AD180E94DC18859903C00E945E1701C0B4
:10122600BBCF0E94D7170E94F018AE17BF072CF449
:10123600E02FA0E2B0E00E94081B0E94F7180E946F
:101246009118EA17FB072CF4E02FA8E1B0E00E9402
:10125600081B0E94FC180E2E11240E94F7180E94EB
:101266009918A0E1B0E00E94A218E9EBF2E00E9412
:101276004C17E1E00E9499170E94AB170E94A8182C
:101286000E94FC180E94B4170E94F7180E94B41717
:101296000E94EF170E94B4170E94AD180E94DC1836
:1012A600859903C00E945E1701C0BBCF0E94D31769
:1012B6000E940119AE17BF072CF4E02FAFE1B0E092
:1012C6000E94081B0E9408190E949118EA17FB0742
:1012D6002CF4E02FA7E1B0E00E94081B0E940D1934
:1012E6000E2E11240E9408190E949918AFE0B0E052
:1012F6000E94A218E8ECF2E00E944C17E1E00E947E
:1013060099170E94AB170E94A8180E940D190E94F7
:10131600B4170E9408190E94B4170E94F4170E947D
:10132600B4170E94AD180E94DC18859903C00E946C
:101336005E1701C0BBCF0E94CF170E941219AE17CD
:10134600BF072CF4E02FAEE1B0E00E94081B0E941C
:1013560019190E949118EA17FB072CF4E02FA6E151
:10136600B0E00E94081B0E941E190E2E11240E9436
:1013760019190E949918AEE0B0E00E94A218E7ED94
:10138600F2E00E944C17E1E00E9499170E94AB1709
:101396000E94A8180E941E190E94B4170E941919CB
:1013A6000E94B4170E94F9170E94B4170E94AD1844
:1013B6000E94DC18859903C00E945E1701C0BBCF4E
:1013C6000E94CB170E942319AE17BF072CF4E02FFB
:1013D600ADE1B0E00E94081B0E942A190E949118F4
:1013E600EA17FB072CF4E02FA5E1B0E00E94081BEA
:1013F6000E942F190E2E11240E942A190E94991854
:10140600ADE0B0E00E94A218E6EEF2E00E944C17B2
:10141600E1E00E9499170E94AB170E94A8180E944B
:101426002F190E94B4170E942A190E94B4170E940D
:10143600FE170E94B4170E94AD180E94DC18859909
:1014460003C00E945E1701C0BBCF57C10E943C1863
:1014560000E010E00E94C2170E9481182CF4E02FD1
:10146600A4E2B0E00E94081B0E948C180E9491180A
:10147600EA17FB072CF4E02FACE1B0E00E94081B52
:101486000E9494180E2E11240E948C180E949918FE
:10149600A4E1B0E00E94081B0E94BE170E94BA1881
:1014A600AE17BF072CF4E02FA3E2B0E00E94081BA2
:1014B6000E94C1180E949118EA17FB072CF4E02F2E
:1014C600ABE1B0E00E94081B0E94C6180E2E112444
:1014D6000E94C1180E949918A3E1B0E00E94081B5F
:1014E6000E94BA170E94CB18AE17BF072CF4E02F44
:1014F600A2E2B0E00E94081B0E94D2180E94911836
:10150600EA17FB072CF4E02FAAE1B0E00E94081BC3
:101516000E94D7180E2E11240E94D2180E949918E4
:10152600A2E1B0E00E94081B0E94B0170E94DF18DB
:10153600AE17BF072CF4E02FA1E2B0E00E94081B13
:101546000E94E6180E949118EA17FB072CF4E02F78
:10155600A9E1B0E00E94081B0E94EB180E2E112490
:101566000E94E6180E949918A1E1B0E00E94081BAB
:101576000E94D7170E94F018AE17BF072CF4E02F71
:10158600A0E2B0E00E94081B0E94F7180E94911882
:10159600EA17FB072CF4E02FA8E1B0E00E94081B35
:1015A6000E94FC180E2E11240E94F7180E9499180A
:1015B600A0E1B0E00E94081B0E94D3170E94011907
:1015C600AE17BF072CF4E02FAFE1B0E00E94081B76
:1015D6000E9408190E949118EA17FB072CF4E02FC5
:1015E600A7E1B0E00E94081B0E940D190E2E1124DF
:1015F6000E9408190E949918AFE0B0E00E94081BEB
:101606000E94CF170E941219AE17BF072CF4E02FC5
:10161600AEE1B0E00E94081B0E9419190E949118C1
:10162600EA17FB072CF4E02FA6E1B0E00E94081BA6
:101636000E941E190E2E11240E9419190E94991833
:10164600AEE0B0E00E94081B0E94CB170E9423194F
:10165600AE17BF072CF4E02FADE1B0E00E94081BE7
:101666000E942A190E949118EA17FB072CF4E02F12
:10167600A5E1B0E00E94081B0E942F190E2E11242E
:101686000E942A190E949918ADE0B0E00E94A218A3
:101696000E94AB17E5EFF2E0FA93EA930E94FE1779
:1016A6000E94B4170E94F9170E94B4170E94F417FB
:1016B6000E94B4170E94EF170E94B4170E94EA17FF
:1016C6000E94B4170E94E5170E94B4170E94E01703
:1016D6000E94B4170E94DB170E94B41780E20E9492
:1016E6001B16A4960E94AB170E94C616E8E7F0E008
:1016F6000E943419859B01C0ABCE0E9499160991B0
:1017060019910895E62DF0E0EE3FA0E0FA0729F4DE
:10171600E6EFFFEF0E943819C1C0E83FA0E0FA07E4
:1017260021F0EC3FA0E0FA0729F4EAEFFFEF0E9470
:101736003819B4C0ED3FA0E0FA0729F4EBEFFFEF4C
:101746000E943819ABC0E13FA0E0FA0721F0E93F5B
:10175600A0E0FA0729F4ECEFFFEF0E9438199EC0CB
:10176600EB3FA0E0FA0729F4EDEFFFEF0E943819EE
:1017760095C0E33EA0E0FA0721F0E33FA0E0FA07B8
:1017860029F4EEEFFFEF0E94381988C0E73FA0E08A
:10179600FA0729F4EFEFFFEF0E9438197FC0E73E02
:1017A600A0E0FA0731F4E0E0E0939602E0939702B6
:1017B60075C0EF3EA0E0FA0729F4E1E0F0E00E94F0
:1017C60038196CC0E73CA0E0FA0721F0EF3CA0E036
:1017D600FA0729F4E2E0F0E00E9438195FC0EF3D15
:1017E600A0E0FA0729F4E3E0F0E00E94381956C0B9
:1017F600EF38A0E0FA0721F0EF39A0E0FA0729F464
:10180600E4E0F0E00E94381949C0EF3BA0E0FA0797
:1018160029F4E5E0F0E00E94381940C0EF31A0E07D
:10182600FA0721F0EF33A0E0FA0729F4E6E0F0E04A
:101836000E94381933C0EF37A0E0FA0729F4EAE02E
:10184600F0E00E9438192AC0EF3FA0E0FA07A1F4A1
:10185600A0919702AA2332F40E943D190E944219D0
:1018660032DB0DC10E944C190E94191B24F40E9400
:1018760051192ADB04C113C0E03CA0E0FA0721F0AD
:10188600E330A0E0FA0709F404C0E03EA0E0FA075E
:1018960009F404C0E730A0E0FA0709F40CDBE09194
:1018A6008302F0E00E944C19EA1BFB0BE0939802BE
:1018B600F09399020E945319A0919E02B0919F0243
:1018C6000E945819E0939002F0939102A0919A0217
:1018D600B0919B020E945319EA1BFB0BE0939C02FA
:1018E600F0939D02E091A002F091A102A0919C02CA
:1018F600B0919D020E945819E0939202F0939302D0
:10190600A0919802B0919902EBE0F0E00E94CE1A05
:10191600BF010E946019E4E1F0E00E94CE1ADB01EB
:101926000E94B61AA091A202B091A3020E94B61A12
:10193600E0939402F09395020E945319E0939A0261
:10194600F0939B02E0919202F0919302A091900293
:10195600B0919102EA0FFB1FA0919402B0919502FB
:10196600EA0FFB1FE0938E02F0938F020E9460192C
:10197600E0918802F0918902EA1BFB0BDF010E94CD
:101986006519E0918E02F0918F020E946019EA0FAC
:10199600FB1F0E946E19A0918E02B0918F020E94C9
:1019A6003D19EA1BFB0B0E947319A0918402B091AA
:1019B6008502A030E1E0BE0784F00E942D17EF5F9C
:1019C600F040A0918602B0918702AE1BBF0BA09398
:1019D6008602B09387020E940A18A0918602B091EF
:1019E6008702A030E1E0BE0784F00E943817EF5F5F
:1019F600F040A0918402B0918502AE1BBF0BA0936C
:101A06008402B09385020E940318A0918502AA233E
:101A16005AF40E9478197ADA0E942D17AFEFBFEFB9
:101A26000E94B61A0E947319A0918702AA235AF43B
:101A36000E94781966DA0E943817AFEFBFEF0E944E
:101A4600B61A0E946E190E942D173097C1F4A09104
:101A56009702AA2342F40E947C190E9485190E94CB
:101A66006E1931DA0CC00E944C190E94191B3CF405
:101A76000E947C190E9485190E946E1925DA0E941F
:101A8600AB17EDE0F3E0FA93EA930E942D170E945C
:101A9600A91A0E94F71A0E9438170E94A91A0E94D2
:101AA600F71A88E00E941B162C960E944717E5E15C
:101AB600F3E00E944C170E9447170E94AB170E9442
:101AC600C616E5E0F0E00E943419089530FC03C024
:101AD600EFEFE61509F00CC00E948719EFEFE61547
:101AE60021F40E948B190DDAF9CF0E948E1911C0CC
:101AF60031FC03C0EFEFE61509F00BC00E94871911
:101B0600EFEFE61521F40E948B1900DAF9CF0E9457
:101B16008E1982C10E94921930FC03C0EFEFE615C0
:101B260009F017C00E948E1964D6E7EEE61531F06B
:101B3600EFEEE61519F0E7EFE61509F407C00E9487
:101B460098190E9485190E949B19EFCF0E948E1941
:101B560002C0BCDFDFCF08950E94921930FC03C09B
:101B6600EFEFE61509F027C00E949E19EFEFE61584
:101B7600F9F40E9498190E9485190E94A11930FC57
:101B860002C031FE01C013C00E94A419E7EEE6159B
:101B960031F0EFEEE61519F0E7EFE61509F407C0A8
:101BA6000E9498190E9485190E94A119EFCFDECFD5
:101BB6000E948E192FC031FC03C0EFEFE61509F025
:101BC60028C00E949E1995D8EFEFE615F9F40E94F9
:101BD60098190E9485190E949B1930FC02C031FE9B
:101BE60001C013C00E94A419E7EEE61531F0EFEE2E
:101BF600E61519F0E7EFE61509F407C00E949819F3
:101C06000E9485190E94A119EFCFDECF0E948E197E
:101C160001C0A2CF0E94921931FC03C0EFEFE61576
:101C260009F017C00E948E19E4D5E7EEE61531F0EB
:101C3600EFEEE61519F0E7EFE61509F407C00E9486
:101C460098190E9485190E949B19EFCF0E948E1940
:101C560001C0E0CF0E94921931FC03C0EFEFE615F8
:101C660009F017C00E948E19C4D5E7EEE61531F0CB
:101C7600EFEEE61519F0E7EFE61509F407C00E9446
:101C860098190E9485190E94A119EFCF0E948E19FA
:101C960002C01CDFDFCF0E94921931FC05C030FC68
:101CA60003C0EFEF6E1608F021C00E948E19A1D571
:101CB600EFEF6E1638F40E9498190E9485190E945B
:101CC6009B19F6CFE7EEE61531F0EFEEE61519F0C3
:101CD600E7EFE61509F407C00E9498190E948519D6
:101CE6000E949B19EFCF0E948E1901C0D4CF089590
:101CF6000E94921930FC02C031FE01C037C030FC90
:101D060002C031FE01C001C0FACF30FE02C031FC74
:101D160001C003C00E949219F8CF30FC02C031FE08
:101D260001C023C00E948E190E94A719EFEF6E16FC
:101D360038F40E9498190E9485190E949B19F6CFC3
:101D46000E947C06E7EEE61531F0EFEEE61519F097
:101D5600E7EFE61509F407C00E9498190E94851955
:101D66000E949B19EFCF0E948E1901C0C1CF0E941D
:101D7600921930FC03C0EFEFE61509F017C00E9478
:101D86009E1937D5E7EEE61531F0EFEEE61519F0B8
:101D9600E7EFE61509F407C00E9498190E94851915
:101DA6000E94A119EFCF0E948E1934C031FC03C0E6
:101DB600EFEFE61509F02EC00E949E190E947C06E0
:101DC600EFEFE61529F50E9498190E9485190E94E1
:101DD6009B1930FC03C0EFEFE61509F018C00E940E
:101DE6008E190E94A719E7EEE61531F0EFEEE6151B
:101DF60019F0E7EFE61509F407C00E9498190E944A
:101E060085190E94A119EFCF0E948E1905C0D8CF5F
:101E16000E948E1950D8ABCF4ED808951A930E94BF
:101E2600AB190E94B21931FE03C00E949219FBCF72
:101E36000E949E190E947C0631FE05C00E94C419AC
:101E46000E947C06F9CF0E9478190E947C06EFEF6B
:101E56006E1628F40E94C7190E947C06F8CF0E94CD
:101E66007C0623FE05C00E94C7190E947C06F9CF96
:101E76000E948E190E947C0631FE03C00E949219B0
:101E8600FBCFB6D431FC03C00E949219FBCF31FEC2
:101E960003C00E949219FBCFABD431FC03C00E9451
:101EA6009219FBCF10E01E3120F40E9492191F5F99
:101EB600FACF30FE05C00E945E070E941907F9CFCF
:101EC6000E949E190E947C0631FE05C00E94C4191C
:101ED6000E947C06F9CF0E948E190E947C06EFEFC5
:101EE6006E1630F40ED80E9451190E947C06F7CF68
:101EF60024FE06C006D80E9451190E947C06F8CF1F
:101F06000E948E190E947C0631FE03C00E9492191F
:101F1600FBCF6ED431FC03C00E949219FBCF31FE79
:101F260003C00E949219FBCF0E949E190E947C0654
:101F360031FE05C00E94C4190E947C06F9CFEFEF5E
:101F46006E1628F40E94C7190E947C06F8CFEFEFA0
:101F5600E61529F40E94C7190E947C06F8CF10E006
:101F6600123320F40E9492191F5FFACF41D41991BF
:101F760008950E94AB19E1E1F0E00E94CA19E0E081
:101F8600E093A002E093A102EBE0F0E00E94CF19FB
:101F96000E94921930FC23C00E948E190E94871954
:101FA60030FE05C00E94C4190E947C06F9CF0E942B
:101FB6008E190E947C06EFEF6E1628F40E948B198C
:101FC6000E948407F8CF0E947C0624FE05C00E946A
:101FD6008B190E948407F9CF0E948E1901C0D8CFB1
:101FE6000E94921931FC09C003D40E94AB1931FC3E
:101FF60003C00E949219FBCF01C0F2CF0E94921932
:1020060031FC09C0F5D30E94D41931FC03C00E94EB
:102016009219FBCF01C0F2CF0E94921931FC0BC07E
:10202600E7D3E8E7F0E00E94DB1931FC03C00E9429
:102036009219FBCF01C0F0CF0E94921931FC0BC060
:10204600D7D3E2E8F0E00E94DB1931FC03C00E941E
:102056009219FBCF01C0F0CF0E94921931FC0BC040
:10206600C7D3ECE8F0E00E94DB1931FC03C00E9404
:102076009219FBCF01C0F0CFBBD308950E94D419AB
:102086000E94B2190E9492190E943D1934960E942C
:10209600DB19EFEFE61549F40E948407AAD3E6E9B7
:1020A600EA930E946A07A5D301C0ECCF08950E9467
:1020B600E019E230A0F00E94E019E330C8F10E9476
:1020C600E019E43008F45CC00E94E019E53008F439
:1020D60080C00E94E019E63008F4A3C0CAC00E947E
:1020E600E5190E945B17E6E2F3E00E944C170E9496
:1020F60064170E94EE190E9447170E947817849968
:1021060003C00E94F119B5C0869903C00E94F11957
:102116000FC0859907C00E94F119C398FBDC0E9485
:10212600F419CEC0839903C00E94F119C9C0D7CF54
:102136000E94FE190E945B17EEE3F3E00E944C1723
:102146000E9464170E94EE190E9447170E94781792
:10215600849903C00E94F119C2CF869903C00E94D8
:10216600F1190EC0859906C00E94F119C3980E9404
:10217600F419A6C0839903C00E94F119A1C0D8CF53
:102186000E94071A0E945B17ECE4F3E00E944C17CA
:102196000E9464170E94EE190E9447170E94781742
:1021A600849903C00E94F119C3CF869903C00E9487
:1021B600F1190FC0859907C00E94F119C39898DDDF
:1021C6000E94101A7DC0839903C00E94F11978C03D
:1021D600D7CF0E94161A0E945B17EAE5F3E00E9429
:1021E6004C170E9464170E94EE190E9447170E941E
:1021F6007817849903C00E94F119C2CF869903C04B
:102206000E94F1190EC0859906C00E94F119C39863
:102216000E94101A55C0839903C00E94F11950C03C
:10222600D8CF0E941F1A0E945B17E8E6F3E00E94CF
:102236004C170E9464170E94EE190E9447170E94CD
:102246007817849903C00E94F119C3CF869903C0F9
:102256000E94F1190EC0859906C00E94F119C39813
:1022660088DE0CDF2DC0839903C00E94F11928C0B7
:10227600D8CF0E94281A0E945B17E6E7F3E00E9477
:102286004C170E9464170E94EE190E9447170E947D
:102296007817849903C00E94F119C3CF869903C0A9
:1022A6000E94F1191CCF859905C00E94F119C398A7
:1022B600E5DE06C0839903C00E94F11901C0D9CF9B
:1022C6000E949916A3C20E94921931FC03C0EFEF37
:1022D600E61509F017C00E948E198BD2E7EEE615B7
:1022E60031F0EFEEE61519F0E7EFE61509F407C051
:1022F6000E9498190E9485190E94A119EFCF0E9489
:102306008E1902C0E3DBDFCF08950E94921930FCDC
:1023160003C0EFEFE61509F024C00E949E19EFEF07
:10232600E615E1F40E9498190E9485190E94A119E8
:1023360031FC13C00E94A419E7EEE61531F0EFEE6A
:10234600E61519F0E7EFE61509F407C00E9498199B
:102356000E9485190E949B19EFCFE1CF0E948E192A
:102366002DC031FC03C0EFEFE61509F026C00E9430
:102376009E190E947C06EFEFE615E1F40E9498197B
:102386000E9485190E949B1930FC13C00E94A41953
:10239600E7EEE61531F0EFEEE61519F0E7EFE61594
:1023A60009F407C00E9498190E9485190E949B197A
:1023B600EFCFE1CF0E948E1901C0A7CF0E949219DC
:1023C60030FC03C0EFEFE61509F017C00E948E1926
:1023D60010D2E7EEE61531F0EFEEE61519F0E7EF6D
:1023E600E61509F407C00E9498190E9485190E94F3
:1023F600A119EFCF0E948E1901C0E0CF0E94921959
:1024060030FC03C0EFEFE61509F017C00E948E19E5
:10241600F0D1E7EEE61531F0EFEEE61519F0E7EF4D
:10242600E61509F407C00E9498190E9485190E94B2
:102436009B19EFCF0E948E1902C048DBDFCF0E94A6
:10244600921931FC05C030FC03C0EFEF6E1608F0A0
:1024560021C00E948E19CDD1EFEF6E1638F40E947E
:1024660098190E9485190E94A119F6CFE7EEE61584
:1024760031F0EFEEE61519F0E7EFE61509F407C0BF
:102486000E9498190E9485190E94A119EFCF0E94F7
:102496008E1901C0D4CF08950E94921930FC02C053
:1024A60031FE01C039C030FC02C031FE01C003C09C
:1024B6000E949219F8CF30FE02C031FC01C003C061
:1024C6000E949219F8CF30FC02C031FE01C023C031
:1024D6000E948E190E94A719EFEF6E1638F40E941B
:1024E60098190E9485190E94A119F6CF0E947C06B0
:1024F600E7EEE61531F0EFEEE61519F0E7EFE61533
:1025060009F407C00E9498190E9485190E94A11912
:10251600EFCF0E948E1901C0BFCF0E94921931FCE5
:1025260003C0EFEFE61509F017C00E949E1961D1AE
:10253600E7EEE61531F0EFEEE61519F0E7EFE615F2
:1025460009F407C00E9498190E9485190E949B19D8
:10255600EFCF0E948E1934C030FC03C0EFEFE615B2
:1025660009F02EC00E949E190E947C06EFEFE61528
:1025760029F50E9498190E9485190E94A11931FC1B
:1025860003C0EFEFE61509F018C00E948E190E94ED
:10259600A719E7EEE61531F0EFEEE61519F0E7EFCD
:1025A600E61509F407C00E9498190E9485190E9431
:1025B6009B19EFCF0E948E1906C0D8CF0E948E19A4
:1025C6000E945E07AACF0E945E07089512D1FECF31
:1025D60010D1FECF0ED1FECF0E94E019E230A0F05E
:1025E6000E94E019E330C8F10E94E019E43008F4D3
:1025F6005CC00E94E019E53008F480C00E94E01932
:10260600E63008F4A3C0CAC00E94E5190E945B1711
:10261600E4E8F3E00E944C170E9464170E94EE194A
:102626000E9447170E947817849903C00E94F119E7
:10263600B5C0869903C00E94F1190FC0859907C0DD
:102646000E94F119C3983FDE0E94311ACEC08399C9
:1026560003C00E94F119C9C0D7CF0E94FE190E947B
:102666005B17E5E9F3E00E944C170E9464170E948D
:10267600EE190E9447170E947817849903C00E949A
:10268600F119C2CF869903C00E94F1190EC085992F
:1026960006C00E94F119C3980E94311AA6C08399F8
:1026A60003C00E94F119A1C0D8CF0E94071A0E9448
:1026B6005B17E3EAF3E00E944C170E9464170E943E
:1026C600EE190E9447170E947817849903C00E944A
:1026D600F119C3CF869903C00E94F1190FC08599DD
:1026E60007C00E94F119C398D7DE0E943B1A7DC02D
:1026F600839903C00E94F11978C0D7CF0E94161A99
:102706000E945B17E1EBF3E00E944C170E946417EE
:102716000E94EE190E9447170E947817849903C0F9
:102726000E94F119C2CF869903C00E94F1190EC00A
:10273600859906C00E94F119C3980E943B1A55C09C
:10274600839903C00E94F11950C0D8CF0E941F1A66
:102756000E945B17EFEBF3E00E944C170E94641790
:102766000E94EE190E9447170E947817849903C0A9
:102776000E94F119C3CF869903C00E94F1190EC0B9
:10278600859906C00E94F119C39822DF23DF2DC068
:10279600839903C00E94F11928C0D8CF0E94281A35
:1027A6000E945B17EDECF3E00E944C170E94641741
:1027B6000E94EE190E9447170E947817849903C059
:1027C6000E94F119C3CF869903C00E94F1191CCF4C
:1027D600859905C00E94F119C398FCDE06C083994D
:1027E60003C00E94F11901C0D9CF0E9499160EC0EC
:1027F60008C0C39AE4E6F0E00E943419C3980E9428
:102806005E17C39AE4E6F0E00E943419C39808956F
:10281600E0E0EBBBEABBE8BBEFEFE7BBE3E0E5BB21
:10282600ECEFE4BBE8E7E2BBE0E0E1BBE4E0E3BFFA
:10283600EFEFE2BFE0E0ECBFE1E0E9BFE0E8E8B9D6
:10284600E0E0E0BFE0E2E7B9E7E8E6B9E0E1EA9315
:102856000E94E416E4E5F0E0FA93EA93E0E0EA93F6
:102866000E945702C5DFE4EFF1E00E943419C39AD3
:102876000E94411AE4E0E3BF78940E94AC03C39837
:102886000E948017F0E00E94CA190E9489170E94D0
:10289600451AA2E0B0E00E944B1A0E94CF190E948E
:1028A6008017A3E0B0E00E94081B0E948917A5E0EC
:1028B600B0E00E94081B0E948917A4E0B0E00E94C5
:1028C600081BA6E0B0E00E944B1AE0938802F09342
:1028D6008902A7E0B0E00E944B1A0E94DB19A6E02D
:1028E600B0E00E94FC1A0E2E1124A7E0B0E00E9470
:1028F6004B1AD001AE1BBF0B0E946519E0E0E093B6
:102906009602E0939702E0939802E0939902E0938F
:102916009A02E0939B020E9455176BDF0E945E07A6
:102926000E9419070E94850BD1D8849908C00E947D
:1029360072170E94411A0E949916B9DB0BC086993C
:1029460008C00E9472170E94411A0E94991644DE1E
:1029560001C0E6CFFFCF1A930A93AA81BB811296D4
:102966000E94EF1A309729F1AA81BB8114960E9422
:10297600EF1A8F01309761F00230E0E01E07C0F0D9
:10298600F80131978F01AA81BB811496ED93FC93D0
:10299600AA81BB8112960E9423183197AC81A0832D
:1029A600AA81BB810E94EF1AFF2312F00E9423180E
:1029B60006C0AA81BB81EFEFFFEFED93FC9319816F
:1029C60008812596089526970E941D1B10E0AC8568
:1029D600BD85E0E0F0E0ED93FC93EA89FB89319652
:1029E600EA8BFB8B3197E4912E2FE03011F40C9497
:1029F6001316E12FE03039F4253211F411E002C04C
:102A06000E944F1A0CC1E130A9F4253219F40E9434
:102A16004F1A04C112E040E000E02D3211F401E04B
:102A2600FEC02B3211F44BE2FAC0203211F440E220
:102A3600F6C002C0E23039F450E013E0203311F45E
:102A46000068EDC004C0E33011F00C941216203378
:102A560010F02A3308F007C0AAE05A9F502DE22F43
:102A6600E0535E0FDCC0E22FE33649F40E94581AA9
:102A7600E889F989A481AA930E945E1ACFC0E33738
:102A860041F40E94581A0E94661A0E9418171E2FB7
:102A96000AC0E03761F40E94581A0E94661A0E9422
:102AA60022171E2F086002600F7730E035C0E4362B
:102AB60011F0E93611F4046002C0E53731F4ECE5B3
:102AC600F0E0EE83FF8315E00DC0E83511F40860F1
:102AD60004C0E83711F00C941116E6E6F0E0EE8338
:102AE600FF8314E002FF14C00E94581A0E94701A55
:102AF600AB85AA233AF4EA85FB850E94A51AEA87E4
:102B0600FB874DE2403011F01F5F01C00B7F04C010
:102B16000E94581A0E94701A00FD11C0151778F409
:102B260007FF08C002FF04C00B7F242F115001C00D
:102B360020E301C020E20E944F1A5150EFCF312FFF
:102B460001FF17C03030A1F003FF06C0EE81FF8100
:102B56002591EE83FF8305C0AE81BF812D91AE83A3
:102B6600BF830E944F1A503009F051503150EACFBE
:102B76004BC020E3EE81FF810E94F31AE887F987B4
:102B8600EE81FF813296EE83FF83E885F985AA857B
:102B9600BB85AE17BF0750F02F5FA885B985EA85BC
:102BA600FB85EA1BFB0BEA87FB87EFCF2A3328F06E
:102BB60003FF02C0295F01C0295D04FD1AC021334D
:102BC60020F4A885B985119709F409C0531710F0A8
:102BD60000FF01C013C020E207FF0BC020E3006125
:102BE60002FF07C00B7F4A930E945E1A503009F01D
:102BF60051500E944F1A503009F051503150A8855B
:102C0600B985129708F0B5CF00FF08C0503031F0F3
:102C16005150E0E2EA930E945E1AF8CF10E0DDCE52
:102C2600AC85BD850E94EF1A0E94241B6496089508
:102C3600FF92F82E26970E941F1B0E94781A309743
:102C460019F4EFEFFFEF25C0DE0116960E94A11AD8
:102C56008D010E94781AEE83FF83E0E0E887E9871A
:102C6600DE011A960E94A11A0E94EF1AFA93EA93BD
:102C76001A930A93EEEAF4E1FA93EA93FE013A967E
:102C8600FA93EA93A0DE9F01AE81BF81E0E0EC9368
:102C9600F9010E94261B2A96FF900895E881E071AB
:102CA60011F0C49A01C0C498E881E07211F0C59A87
:102CB60001C0C598E881E07411F0C69A01C0C698B3
:102CC600E881E07811F0C79A01C0C79888E08A9534
:102CD600F1F7C29A84E18A95F1F7C29884E18A9560
:102CE600F1F7A1C0E881EA93D9DFE881E295E883AC
:102CF600E881EA93D3DF88EC8A95F1F794C0E981FD
:102D0600EA93F0DF0E947F1A0FC0E881F0E0EC55ED
:102D1600FD4FE081A981EA0FEA93E4DFE981E093C0
:102D2600A802E881E093A90222960895E2E00E94B3
:102D3600861AECE0EA93D6DFE1E00E94861AE0E02C
:102D4600E093A902E093A8020895A881AA3031F081
:102D5600E091AA02A091A802AE1768F0E0E0EA931B
:102D6600E091A902EF5FE093A902EA93CEDFA88182
:102D7600AA3009F458C0E091A802EF5FE093A802D8
:102D86000E947F1A50C01A93A981BA81ED91A98336
:102D9600BA831E2FE03019F01A93D7DFF5CF0EC095
:102DA6001A93E981FA813196E983FA833197E4919E
:102DB6001E2FE03019F01A93C8DFF3CF188123963F
:102DC6000895BC9ABD9ABE9ABF9ABA9AB89AB99A09
:102DD600C298C098C198E881E093AA02E058E093AF
:102DE600A602E881E054E093A702E4E1F0E00E9445
:102DF60034190E948C1A0E948C1A0E948C1AE0E2E6
:102E0600EA934CDF8CE291E00197F1F7E8E2EA936E
:102E160069DFE4E0EA9366DFE5E8EA9363DFE6E08C
:102E2600EA9360DF83DF21960895A991B991EE2791
:102E3600FF276D91662311F03196FBCF0895AA27DF
:102E4600BB27E991F9910590002011F01196FBCF6F
:102E5600FD010895E0918402F09185020895A09104
:102E66008202B0E0EA17FB070895E0918602F0912E
:102E7600870208950E94CE1A1E2F105D1A930E9493
:102E8600A816A981BB270895E0E0EA93EA930C947B
:102E96008816FA93EA930C94D316F0E0E130A0E09A
:102EA600FA070895E8ECF0E0FA93EA930C94951A81
:102EB6000E949916E9CFE6E9F0E0FA93EA930C94BA
:102EC600951AE0E0EA93E1E0EA930C948816E4E6CA
:102ED600F0E0FA93EA930E94951A0C949916EDE79E
:102EE600F0E0FA93EA930C94951AE0E0EA930C94D6
:102EF600A816E0E2EA930C94A816A0E0B0E00E94BF
:102F0600FC1A0895EA930E947402F3CFA1E0B0E0A0
:102F16000E94FC1A08950E94FC1AF4CFE0E0EA939E
:102F26000E948816E2CF0E94F402BCCFEA93E1E049
:102F3600EA930C948816ABE0B0E00E94FC1A089560
:102F4600E9EEF1E0A6CFEA93E0E0EA930C94881666
:102F5600E0E6F2E0FA93EA930895E3E0EA930C944C
:102F66004A02FF27662777270E94F71A0895E2E0AC
:102F7600EA930C944A02E1E0EA930C944A02E0E0F8
:102F8600EA930C944A0280E10E941B166496E0CFF5
:102F9600E7E0EA930C944A02E6E0EA930C944A02CC
:102FA600E5E0EA930C944A02E4E0EA930C944A02C0
:102FB600A4E1B0E00E94FC1A0895A3E1B0E00E94EB
:102FC600FC1A0895A2E1B0E00E94FC1A0895A1E15E
:102FD600B0E00E94FC1A0895A0E1B0E00E94FC1A3D
:102FE6000895AFE0B0E00E94FC1A0895AEE0B0E0AC
:102FF6000E94FC1A0895ADE0B0E00E94FC1A089504
:10300600EFEFF0E0E0938602F09387020895EFEF8A
:10301600F0E0E0938402F09385020895EAE0F0E0A0
:10302600FA93EA930C94951AE0E0E0938602E09313
:1030360087020895E0E0E0938402E0938502089514
:10304600ED91FD913196FE93EE930895E9E5F2E058
:10305600FA93EA93FFDE0E94A91A0E94F71A05DF87
:103066000E94A91A0E94F71A88E00E941B162C9645
:103076006FCF1A930A93A5E1B0E0E7E00E94081B20
:10308600A6E1B0E00E94081BA7E1B0E00E94081B81
:10309600A8E1B0E00E94081BA9E1B0E00E94081B6D
:1030A600AAE1B0E00E94081BABE1B0E00E94081B59
:1030B600ACE1B0E00E94081BADE1B0E0E8EC0E9494
:1030C600081BAEE1B0E00E94081BAFE1B0E00E9431
:1030D600081BA0E2B0E00E94081BA1E2B0E00E943B
:1030E600081BA2E2B0E00E94081BA3E2B0E00E9427
:1030F600081BA4E2B0E00E94081B08950E2F1127BA
:10310600A4E2B0E00E94FC1AD801F0E0AE17BF07B7
:103116000895ACE1B0E00E94FC1A0895D801F0E0F1
:103126000895A4E2B0E00E94FC1A0895F0E0D001F0
:10313600AE0FBF1FE2E0F0E00E94CE1A08950E9493
:10314600081B0E949916E1E0FECEE0E8F2E0FA9351
:10315600EA9308958CE00E941B166096F9CE0E94B1
:10316600C616E2E3F0E0FA93EA930C94951A0E2F52
:103176001127A3E2B0E00E94FC1AD0CFABE1B0E089
:103186000E94FC1A0895A3E2B0E00E94FC1A08957A
:103196000E2F1127A2E2B0E00E94FC1ABFCFAAE1CF
:1031A600B0E00E94FC1A0895A2E2B0E00E94FC1A68
:1031B60008950E94C61632CF0E2F1127A1E2B0E065
:1031C6000E94FC1AABCFA9E1B0E00E94FC1A089558
:1031D600A1E2B0E00E94FC1A08950E2F1127A0E28A
:1031E600B0E00E94FC1A9ACFA8E1B0E00E94FC1A57
:1031F6000895A0E2B0E00E94FC1A08950E2F112750
:10320600AFE1B0E00E94FC1A89CFA7E1B0E00E94CE
:10321600FC1A0895AFE1B0E00E94FC1A08950E2F43
:103226001127AEE1B0E00E94FC1A78CFA6E1B0E02B
:103236000E94FC1A0895AEE1B0E00E94FC1A0895BF
:103246000E2F1127ADE1B0E00E94FC1A67CFA5E171
:10325600B0E00E94FC1A0895ADE1B0E00E94FC1AAD
:103266000895FA93EA930C94951AE0939602F093D4
:1032760097020895E0918A02F0918B020895E093F7
:103286008402F0938502F6DFE0938602F0938702CC
:103296000895A0919602B09197020895EBDFEFCFC3
:1032A600E0919802F091990208950E94B61ADF0102
:1032B600E2E0F0E00E94CE1A0895A0918A02B09151
:1032C6008B020895E8E0F0E00E94CE1AE0938C02AB
:1032D600F0938D020895E0938602F0938702089595
:1032E600E0938402F09385020895E3E0EA930C9458
:1032F6006A07A0918802B0918902E2E0F0E00E949C
:10330600CE1A0895EDDFF5CF0E94FB130C947C06D0
:103316000E947C06C3CFE5E0EA930C946A070E94FC
:103326005E070E9419070C94850B0E947C06E1CF6C
:10333600D2DF0C9489070E94FB13EDCFCCDF0C94EF
:1033460084070E94FC13E7CF0E94FC130C947C06B2
:10335600E4E6F0E0E0938A02F0938B020895EBE056
:10336600F0E0E0939E02F0939F02E0E0E093A0027B
:10337600E093A102E7E0F0E0E093A202F093A3025B
:1033860008950E9462078ACF0E94890787CFE0933B
:103396009E02F0939F020895E093A202F093A30287
:1033A6000895EEE6F0E0E0938A02F0938B0208952A
:1033B600E0938A02F0938B020895ACE0B0E00E949D
:1033C600FC1A0895C39AACE0B0E0E1E00E94081B45
:1033D600E2E3F0E046CFE7E3F3E05BCDEAEFF0E0CF
:1033E60040CF0E94AF0D0E947B0E0E94110F0E94DB
:1033F600BC0F0C944110C39AACE0B0E0E2E00E942E
:10340600081BE2E3F0E02DCFC39AACE0B0E0E3E0C6
:103416000E94081BE2E3F0E024CF0E94110F0E94F5
:10342600BC0F0C944110C39AACE0B0E0E4E00E94FB
:10343600081BE2E3F0E015CFC39AACE0B0E0E5E0AC
:103446000E94081BE2E3F0E00CCFC39AACE0B0E0C8
:10345600E6E00E94081BE2E3F0E003CF0E94881139
:103466000E944F120E94E9120E94EB120C94ED1278
:103476000E94E9120E94EB120C94ED12E1E0EA932D
:103486000C946A07F0E0E093A002F093A10208957D
:103496000E94FC1AF0E008952A93ED85FE85FA93C2
:1034A600EA93E989FA8909950895E889F9893497AB
:1034B600E88BF98B0895ED85FE85FA93EA93E98901
:1034C600FA8909950895A889B98914960E94EF1A70
:1034D600EE83FF83FA93EA930895A889B98914962F
:1034E6000E94EF1AEA87FB870895DE011C960E9468
:1034F600A11A0E94EF1A0895C09AE881EA930E94E1
:103506007516C0980895EA930E947516E3E0F0E0F8
:10351600A8CEE0E3EA930E9451168CE291E001976F
:10352600F1F70895E991F991309639F088EB9BE02F
:103536000197F1F7A8953197C9F708950024AF0DC3
:10354600B01D0895F195E195F04008956F2F660F2F
:10355600660B762F0895FA9FF02DEB9FF00DEA9FEC
:10356600E02DF10D08952AD0F6DF0EF4EBDF089575
:103576000024112490E1AA0FBB1F001C111C0E1A77
:103586001F0A18F40E0E1F1E01C0A1609A9599F726
:10359600FD01D001089512D0EBDF0EF4D3DF0895BC
:1035A600E894B7FF04C0A095B09511966894F7FD0E
:1035B600C9DFDEDFFD010EF4C5DF0895E894F7FFED
:1035C60002C0C0DF6894B7FF06C0A095B0951196FB
:1035D60000F8039400FA0895ED91FC91119708956F
:1035E6000590F491E02D08957A936A93FA93EA93FD
:1035F6000895E199FECFFF93FFB7F894AEBBBFBB2A
:10360600E09AEDB3FFBFFF910895E19B02C0A89534
:10361600FCCF9FB7F894AEBBBFBBE09A8DB3E8175B
:1036260019F0EDBBE29AE19A9FBF089500240A16AD
:103636000B0608955A934A933A932A931A930A9338
:1036460008955D814C813B812A8119810881089505
:00000001FF
