:1000000028C0FECF54C0FCCFFBCF56C0F9CFF8CFED
:10001000F7CFF6CFF5CFF4CFF3CFF2CFF1CFF0CFCC
:10002000EFCFEECFEDCF070A0D0E0F0E0D0A07052D
:100030000201000102051027E80364000A00010024
:100040000010000110000100000001000300480042
:100050000000F894EE27ECBBE5BFF8E1A4B7A77F5A
:10006000A4BFF1BDE1BD8DE0A2E0ED938A95E9F773
:1000700080E8A0E6ED938A95E9F7EAE4F0E085915F
:100080009591009761F0A591B59105901590BF01EC
:10009000F00105900D920197E1F7FB01F0CFE0E050
:1000A000E3BBE4BBE5BBEFEDEDBFC0E848C27CD2EB
:1000B000EAEFF0E088D209C077D2959A1BD19598E3
:1000C00088D281D2EFEFEDBDECBDE991EFBFF991A0
:1000D000E991B991A9919991899179916991F99051
:1000E0001990099018951A93C39AE4E6F0E074D237
:1000F00010E01D3224F4E0E072D21F5FFACFEFEF80
:10010000FFEF2F01EEE76BD26CD210E0153134F423
:100110006CD2A050B0406CD21F5FF8CFE3E05FD24A
:10012000E0EF5DD2E1E25BD210E0183034F45DD252
:10013000AB5EBF4F5DD21F5FF8CFECE550D210E051
:10014000193034F452D2A35EBF4F52D21F5FF8CFA2
:10015000ECE645D2EFE243D2E1E441D2EDE33FD217
:1001600010E0163034F441D2AA5DBF4F41D21F5F78
:10017000F8CFA3E3B0E0D7D2E53049F410E0173070
:1001800034F433D2A45DBF4F33D21F5FF8CF0FD00A
:10019000EEE725D210E01F3024F4E0E020D21F5F0C
:1001A000FACFE2E3F0E018D2C39819910895EFEF87
:1001B000E425E0938100E52DF070AFEFEA27E093AE
:1001C0008200E09181000BD2E091820008D2089574
:1001D000FF921A9310E0183014F5E12FA98148D24C
:1001E000E0FBF0F8AE3711F4FCD105C0E0E0F0FC24
:1001F000E1E0EA9318D0F0FE0EC0E0E09899E1E06B
:10020000EA9351D0E0918000EF5FE0938000A091ED
:100210008000A53011F41CD0E4D11F5FDCCF188121
:100220002296FF900895E881F0E0E7FDFFEFE425D6
:10023000F525E0938300F093840056944794E09171
:100240008300E17021F0E8E0F4E84E265F2629C043
:10025000989902C0989A01C09898E0E09899E1E0D6
:10026000EA9321D00895E881E17011F4C79801C0A4
:10027000C79AE881E595E17011F4C69801C0C69A65
:10028000E881E595E595E17011F4C59801C0C59A3E
:10029000E881E595E595E595E17011F4C49801C014
:1002A000C49A219608951A93E981E03051F410E040
:1002B000103134F49FD18AEA8A95F1F71F5FF8CFA5
:1002C00012C010E01F3034F495D18CE58A95F1F717
:1002D0001F5FF8CF10E01C3034F48CD18CE58A9588
:1002E000F1F71F5FF8CF18812296089559D1EC32AB
:1002F000E9F708952C9732D253D1E432E9F750D17F
:100300004FD14ED1E73409F017C14AD1E73409F093
:1003100013C146D1E13409F00FC1E8DFE7DF71D145
:100320000730E0E01E0744F4E02FEB57EF9338D19D
:10033000AF91EC9369D1F4CFD9DF32D1E0938C0047
:10034000D5DF5FD164D144F4E02FE357EF9328D198
:10035000AF91EC9359D1F6CFC9DF22D1E09395004C
:10036000C5DFC4DFC3DFC2DF4CD151D144F4E02F7D
:10037000EA56EF9315D1AF91EC9346D1F6CF41D128
:1003800046D15CF4F801EB5EFF4F0F01A5E8A00F2A
:10039000EC91D001D3D138D1F3CF33D10930E0E0A3
:1003A0001E074CF4D801A35EBF4FE02FE357E08156
:1003B000C5D12AD1F3CF25D12ED13CF430D1E0E301
:1003C000F0E0ED93FC9320D1F7CF1BD120D18CF539
:1003D0002CD179F12AD151F0A6E9A00FAC91AC3221
:1003E00029F0A6E9A00FAC91AD3409F420C020E0BB
:1003F00030E02630E0E03E079CF4E22FAC2FAC5F0B
:10040000EE0FEA0F0E2EE22FEF5FAC2FAC5FEE0F78
:10041000AE0F85D1A02DED93FC932F5F3F4FE9CF19
:10042000A6E9A00FEC91F0E0E7FDFFEF03D1ECD0DF
:10043000CDCFE7D0F0D044F4F2D0ED91FD91F0971C
:10044000FE93EE93E1D0F6CFEC81FD81A0EAB6E811
:1004500017D1EC83FD83EE81FF81A0E1B7E210D1DB
:10046000EE83FF83E885F985A8EEB3E009D1E8873C
:10047000F987EA85FB85A4E6B0E002D1EA87FB872D
:10048000EC85FD85AAE0B0E0FBD0EC87FD87EE812E
:10049000FF81AC81BD81D1D0A885B985CED0AA8598
:1004A000BB85CBD0AC85BD85C8D0CAD0C6D0C2D0A4
:1004B000EE85FF85A3E0B0E0E3D0C5D0C6D003D180
:1004C000EC83FD83BDD0C1D026D1BDD0E0E1F7E201
:1004D000E7D0EE83FF83B4D0E0E1F7E219D1B3D0E7
:1004E000E8EEF3E0DDD0E887F987AAD0E8EEF3E0A4
:1004F0000FD1A9D0E4E6F0E0D3D0EA87FB87A0D003
:10050000E4E6F0E005D19FD0EAE0F0E0C9D0EC8766
:10051000FD8796D0EAE0F0E0FBD08CD072D07BD0A3
:100520005CF4F801EA5DFF4F0F0179D0EC91E05DDA
:10053000D00104D169D0F3CF16D160960895E0E8D8
:10054000E6BDE0E0E6BDE8BBE8EFE7BBE9E0E2BB23
:10055000E0E3E1BBE0E0EBB9E0E1EAB9E6E0E3B912
:10056000E0E0E2B9EFE8E9B9E0E8E8B9EBBFE8E0DC
:10057000E5BFE0E8EABFE5E0EEBDEBEAEDBDE0EAAD
:10058000ECBDE0E8E9BF3324959A23D025D0949AB6
:1005900020D022D095981DD01FD07894FFCFFFCFC8
:1005A0005F9BFECFECB108950A921A92FA926A9379
:1005B0007A938A939A93AA93BA93EA93FA93EFB7AA
:1005C000EA9394980895FA93EA9346D08CDD949A2E
:1005D0000895E4EFF1E00895FA93EA933DC0EA93B9
:1005E000F7CDE0E0E09380000895A12FB0E00895FA
:1005F0009AD0F5CFE12FF0E0EA5DFF4FE491EA9366
:1006000032CE00E010E008950F5F1F4F08950830CC
:10061000E0E01E0708950630E0E01E070895E02F91
:10062000AC2FAC5FEE0FAE0F0895A6E9A00FAC9112
:10063000AE320895EE87FF870895EA0FFB1F0895F5
:10064000AE85BF850895F6DFFBCF88279927E0EABE
:10065000F6E861E070E00895E991F991309639F09B
:100660008DEC9AE00197F1F7A8953197C9F70895B5
:10067000EE230E2EEA2F19F0E6950A94E9F7089575
:100680000A2E1B2E81E1AA27BB1B05C010F4A00D6A
:10069000B11DB695A795F795E7958A95B9F7089591
:1006A0000024112490E1AA0FBB1F001C111C0E1A7C
:1006B0001F0A18F40E0E1F1E01C0A1609A9599F72B
:1006C000FD01D00108953F934F935F9300241124BF
:1006D0004427552730E2AA0FBB1F881F991F001C13
:1006E000111C441F551F0E1A1F0A460B570B28F4E6
:1006F0000E0E1F1E461F571F01C0A1603A9559F7E5
:10070000FD01BC01D001CA015F914F913F91089555
:10071000C7DFFD010895D7DFFD01BC010895ED910C
:10072000FC91AA950895E199FECFFF93FFB7F89445
:10073000AEBBE09AEDB3FFBFFF910895E19B02C00D
:10074000A895FCCF9FB7F894AEBBE09A8DB3E8179D
:1007500019F0EDBBE29AE19A9FBF08953A932A936C
:100760001A930A9308953B812A811981088108957B
:00000001FF
