:0C0000000C9488010C9400000C9400008B
:10000C000C9400000C9400000C9400000C94000064
:10001C000C9400000C9400000C943E050C94000011
:10002C000C9400000C9400000C9400000C94000044
:10003C000C9400000C9400000C9400000C94000034
:10004C000C9400000C9400006018067F7F0618606A
:10005C001027E80364000A000100001000011000E2
:10006C000100800080008000800080008000800003
:10007C0080008000800080008000800080000500EF
:10008C0064009C00808054756C6973206B652045FE
:10009C004550524F4D20002E2E2E20202020202067
:1000AC002020202020202000536574204B70203A03
:1000BC00202020202020202000536574204B692014
:1000CC003A202020202020202000536574204B64EF
:1000DC00203A202020202020202000536574204D21
:1000EC004158205370656564203A20005365742094
:1000FC004D494E205370656564203A20005761725B
:10010C006E612047617269732020203A200053658C
:10011C006E734C696E65203A2020202020200053FD
:10012C006B656E6172696F203A20202020202000C0
:10013C00202053657420504944202020202020206A
:10014C0000202053657420537065656420202020A6
:10015C002000202053657420476172697320202091
:10016C002020002020536B656E6172696F20202067
:10017C002020200020205374617274212120202023
:10018C002020200020204B702020204B6920202094
:10019C004B642020002020204D4158202020204D51
:1001AC00494E2020200020205741524E41203A2019
:1001BC005075746968200020205741524E41203AF6
:1001CC0020486974616D2000202053656E734C20AB
:1001DC003A202020202020202000536B656E2E20FA
:1001EC00796720206470616B653A002564202020BB
:1001FC0025640020202020202020202020202020CA
:10020C00202020002020626172755F62656C616A3B
:10021C0061722020002020202020206279203A20AA
:10022C002020202020002044494F4E59534955533B
:10023C00204956414E20002048414E44494B4F2006
:10024C00474553414E470054454B4E494B20464978
:10025C0053494B41203130002D2D2D2D2D2D2D5559
:10026C00474D2D2D2D2D2D2D00524F424F524143D8
:10027C004520554E5920273130002D2D2D2D2D2D5B
:10028C002D2D2D2D2D2D2D2D2D2D000080C001005F
:10029C002D4E414E0000010060016E000100610115
:1002AC007000010062017200010063017400010022
:1002BC0064017600010065017800010066017A0096
:1002CC00010067017C00010068017E0001006901EA
:1002DC00800001006A01820001006B0184000100B2
:1002EC006C01860001006D0188000100A6018A00E6
:1002FC0002000C0090000200C00198020100C9012C
:10030C009A020000F894EE27ECBBF1E0FBBFEBBFC8
:10031C00E5BFF8E1F1BDE1BD8DE0A2E0BB27ED93B7
:10032C008A95E9F780E094E0A0E6ED930197E9F770
:10033C00E2EAF2E085919591009761F0A591B59173
:10034C0005901590BF01F00105900D920197E1F712
:10035C00FB01F0CFEFE5EDBFE4E0EEBFC0E6D1E08E
:10036C000C9475051A930A93EA81F0E00E94C50774
:10037C00E0640E2F10E0183070F40A930395EC81B2
:10038C00FD813196EC83FD833197E491EA930E94D1
:10039C0079061F5FF0CF19810881259608951A936D
:1003AC00E9810E944107E4E6F0E00E944407E4E69C
:1003BC00F0E00E94E407E9830E944107EAE0F0E0E4
:1003CC000E944407EAE0F0E00E94E407E9830E94FF
:1003DC005107F0961E2F1A930E94BF0618810C9499
:1003EC00AB060E945407E2E9F0E00E945907E3EAE9
:1003FC00F0E00E945907EA810E945D07E1F40E9437
:10040C005107E130A0E0FA0721F4E881A0E0B0E068
:10041C000FC0E230A0E0FA0721F4E881A1E0B0E0DF
:10042C0007C0E330A0E0FA0729F4E881A2E0B0E0CD
:10043C000E94130839C0E230A0E0FA07A1F40E9430
:10044C005107E130A0E0FA0721F4E881A3E0B0E025
:10045C0007C0E230A0E0FA0729F4E881A4E0B0E09C
:10046C000E94130821C0E330A0E0FA07A1F40E9417
:10047C005107E130A0E0FA0721F4E881A5E0B0E0F3
:10048C0007C0E230A0E0FA0729F4E881A6E0B0E06A
:10049C000E94130809C0E430A0E0FA0729F4E881AF
:1004AC00A7E0B0E00E9413080E9462070C94F506C6
:1004BC000E94240800E03FEF0E94AD060E94540702
:1004CC00ED810E945D0721F5EC810E945D0739F4F6
:1004DC00E4EBF0E00E945907A0E0B0E015C0E23078
:1004EC00A0E0FA0739F4E5ECF0E00E945907A1E02E
:1004FC00B0E00AC0E330A0E0FA0749F4E6EDF0E022
:10050C000E945907A2E0B0E00E9407081E2F4BC0C2
:10051C00E230A0E0FA07D1F401E0EC810E945D0723
:10052C0039F4E7EEF0E00E945907A3E0B0E00AC00E
:10053C00E230A0E0FA0749F4E8EFF0E00E94590736
:10054C00A4E0B0E00E9407081E2F2DC0E330A0E00D
:10055C00FA07D9F4EC810E945D0741F431E0E9E03F
:10056C00F1E00E945907A5E0B0E00BC0E230A0E03A
:10057C00FA0751F433E0EAE1F1E00E945907A6E0F2
:10058C00B0E00E9407081E2F0EC0E430A0E0FA076E
:10059C0051F4EBE2F1E00E945907A7E0B0E00E94B1
:1005AC0007081E2F38E0B09B3EC00E9468070E94CF
:1005BC006E071A93F4DEB19909C00E94AD06ED8165
:1005CC00EA93ED81EA931A930CDF2DC0B29916C011
:1005DC00003069F0103011F41FEF08C0A12FB0E00B
:1005EC00E5E0F0E00E940008EA1B1E2F07C0303047
:1005FC0021F0103011F4132F01C01150B39912C017
:10060C00003049F01F3F11F410E004C0E12FF0E07E
:10061C0035961E2F07C0303021F0311711F410E041
:10062C0001C01F5FC0CFE4E6F0E00E9474070E9497
:10063C00AD060E942908269608950E94AD060E94D8
:10064C0078070E945407ECE3F1E00E9459070E94DE
:10065C006E07EDE4F1E00E9459070E9454070E94D6
:10066C007B07B19906C00E94AD06E1E0E0939801CA
:10067C0087C0B29B06C0B39903C00E94AD0664C08C
:10068C00DECF0E9478070E945407ECE3F1E00E9451
:10069C0059070E946E07EDE4F1E00E9459070E9491
:1006AC006E070E947B07B19906C00E94AD06E1E07F
:1006BC00E0939901BEC0B39BC2CFB29903C00E9414
:1006CC00AD0601C0DECF0E9478070E945407EEE50C
:1006DC00F1E00E9459070E946E07EFE6F1E00E94DC
:1006EC0059070E9454070E947B07B19906C00E94CB
:1006FC00AD06E1E0E0939A01F3C0B39903C00E9408
:10070C00AD06BFCFB29B01C0DECF0E9478070E941E
:10071C005407EEE5F1E00E9459070E946E07EFE6E0
:10072C00F1E00E9459070E946E070E947B07B19965
:10073C0003C00E94AD0635C1B39BC5CFB29903C0AF
:10074C000E94AD0601C0E1CF0E9478070E945407B9
:10075C00E0E8F1E00E9459070E9454070E947B07D1
:10076C00B19903C00E94AD0639C1B39903C00E9470
:10077C00AD06CBCFB29903C00E94AD0660CFE4CFDB
:10078C000E9468070E945407E0E9F1E00E945907B3
:10079C000E947F07A0E0B0E00E9483070E947F07C1
:1007AC00A1E0B0E00E9483070E947F07A2E0B0E0C6
:1007BC000E9483070E947F07E09198010E945D07C9
:1007CC0011F4E1E00BC0E230A0E0FA0711F4E6E02E
:1007DC0005C0E330A0E0FA0721F4EBE0EA930E94B5
:1007EC008907B19906C0E1E0EA93E09198010E9473
:1007FC008E07B3990BC0A0919801A33011F4E1E0DE
:10080C0003C0E0919801EF5FE0939801B2990BC09F
:10081C00A0919801A13011F4E3E003C0E09198019C
:10082C00E150E0939801B09903C00E94AD0607CF48
:10083C00A7CF0E9468070E945407E1EAF1E00E94EA
:10084C0059070E947F070E947F070E947F07A3E041
:10085C00B0E00E9483070E947F070E947F070E94DE
:10086C007F07A4E0B0E00E9483070E947F070E94EC
:10087C007F07E09199010E945D0711F4E2E005C049
:10088C00E230A0E0FA0721F4E9E0EA930E9489073C
:10089C00B19906C0E2E0EA93E09199010E948E07BB
:1008AC00B3990BC0A0919901A23011F4E1E003C0FF
:1008BC00E0919901EF5FE0939901B2990BC0A0917F
:1008CC009901A13011F4E2E003C0E0919901E150EB
:1008DC00E0939901B09903C00E94AD06D2CEA9CF86
:1008EC000E9468070E945407A5E0B0E00E94070828
:1008FC00E13019F4E2EBF1E002C0E3ECF1E0FA9341
:10090C00EA930E94E6060E946E07E4EDF1E00E9475
:10091C005907EAE0EA93E1E0EA930E949506A6E023
:10092C00B0E00E940708EA933ADDE0919A010E9438
:10093C005D0719F4E0E0EA9307C0E230A0E0FA07A3
:10094C0041F4E0E0EA93E1E0EA930E9495060E940C
:10095C007B07B19906C0E3E0EA93E0919A010E940B
:10096C008E07B3990BC0A0919A01A23011F4E1E06B
:10097C0003C0E0919A01EF5FE0939A01B2990BC02A
:10098C00A0919A01A13011F4E2E003C0E0919A0128
:10099C00E150E0939A01B09903C00E94AD0693CE4A
:1009AC009FCF0E9468070E945407E6EEF1E00E9478
:1009BC0059070E946E07A7E0B0E00E940708EA936F
:1009CC00EEDCB19905C0E4E0EA93E0E00E948E070A
:1009DC00B09903C00E94AD0698CEE3CF0E94AD063D
:1009EC000895E2E0EA93E1E0EA930E949506CF9B3A
:1009FC0002C0E1E301C0E0E3EA930E94BF06CE9B94
:100A0C0002C0E1E301C0E0E3EA930E94BF06CD9B84
:100A1C0002C0E1E301C0E0E3EA930E94BF06CC9B75
:100A2C0002C0E1E301C0E0E3EA930E94BF06CB9B66
:100A3C0002C0E1E301C0E0E3EA930E94BF06CA9B57
:100A4C0002C0E1E301C0E0E3EA930E94BF06C99B48
:100A5C0002C0E1E301C0E0E3EA930E94BF06C89B39
:100A6C0002C0E1E301C0E0E3EA930E94BF060895EF
:100A7C00AA93BA93EA93FA93EFB7EA93E0919B01A6
:100A8C00EF5FE0939B01E0919C01F0919D010E942E
:100A9C00920714F0949A01C09498E0919E01F09101
:100AAC009F010E94920714F0959A01C09598EFEF60
:100ABC00E2BFE991EFBFF991E991B991A99118952C
:100ACC00E0E0F0E0E0939E01F0939F01E0939C0145
:100ADC00F0939D0191989698909893980895EFEFC4
:100AEC00EBBBE0E0EABBEFEFE8BBE0E0E7BBE5BB6C
:100AFC00EFEFE4BBE0E0E2BBEFEFE1BBE1E0E3BF33
:100B0C00E0E0E2BFECBFEFBDEEBDEDBDECBDE7BD7F
:100B1C00E6BDEBBDEABDE9BDE8BDE2BDE5BDE4BDAA
:100B2C00E3BDE5BFE4BFE1E0E9BFE0E8E8B9E0E040
:100B3C00E0BFE0E2E7B9E4E8E6B9E0E1EA930E945D
:100B4C000707E4E5F0E0FA93EA93E0E0EA930ADCC5
:100B5C00E0E0E3BFB5DF0E9478070E945407E0E1B4
:100B6C00F2E00E9459070E946E07E1E2F2E00E9457
:100B7C0059070E9498070E94AD060E949B070E948D
:100B8C005407E2E3F2E00E9459070E9498070E9482
:100B9C009B070E945407E3E4F2E00E9459070E946D
:100BAC0098070E949B070E945407E3E5F2E00E941D
:100BBC0059070E946E07E4E6F2E00E9459070E9472
:100BCC0098070E949B070E945407E5E7F2E00E94F9
:100BDC0059070E946E07E6E8F2E00E9459070E944E
:100BEC0098070E94AD0629DDE5E0E3BF7894A0E00C
:100BFC00B0E00E949E07E093B701F093B801A1E02A
:100C0C00B0E00E949E07E093B901F093BA01A2E014
:100C1C00B0E00E949E07E093BB01F093BC01A3E0FF
:100C2C00B0E00E949E073196E093A001F093A101E1
:100C3C00A4E0B0E00E949E07E093A201F093A30110
:100C4C00A3E0B0E00E9407080E2E1124A4E0B0E04F
:100C5C000E949E07D001AE1BBF0BE8E0F0E00E94A3
:100C6C00DF07E093A401F093A501E0E0F0E0E0934E
:100C7C00AF01F093B001E093B101F093B201E093B6
:100C8C00B301F093B401ADDEFECFFFCFFFE0FA95D8
:100C9C00F1F70895A4B3AF70A4BBA99AA898F6DF96
:100CAC00AA9AF4DFA3B3AA98F1DFAA9AEFDFAA9865
:100CBC00A7FDF5CF0895A07FAB2BA5BBAA9A0E94E8
:100CCC004C06AA980E944C060895A998A4B3A76F45
:100CDC00A4BBB5B3BF70A881EEDFA881A295EBDFF2
:100CEC00A99A0C943F070E945006E9810E94A20722
:100CFC00A89AE881EA93E9DF28C0AA9A0E944C06D8
:100D0C00E3B3AA980E944C06E07F08950E944C061B
:100D1C00F4DFAE2FF2DFA998E295EA2B08950E943A
:100D2C0050060E94A707E054FE4FE0810E94410745
:100D3C000E945107EA0FFB1FEA930E946B06E981A0
:100D4C00E093C401E881E093C501229608950E94C6
:100D5C005006E2E00E94A207ECE00E94A207E1E04C
:100D6C00EA930E946B06E0E0E093C501E093C401B6
:100D7C000895EF93FF93A8816894AA3061F0E894EA
:100D8C00E091C401EF5FE093C401E091C601A09132
:100D9C00C401EA1760F4E091C501EF5FE093C5016F
:100DAC00E0E0EA93E091C501EA93B9DF2EF072DF3F
:100DBC00A89AA881AA9389DFFF91EF910C943F0721
:100DCC001A93E981FA813196E983FA833197E49198
:100DDC001E2FE03019F01A93CCDFF3CF1881239635
:100DEC000895AA27BB271197F1F70895A998A4B3E2
:100DFC00A76FA4BBB5B3BF70A8810E946106A99A66
:100E0C0038C0AA98A898E881E093C6010E94A70769
:100E1C00E058FF4FE093C2010E94A707E054FF4F38
:100E2C00E093C3010E94AA070E94AA070E94AA0786
:100E3C00D8DFE0E2EA93DADFD4DFE8E20E94B00721
:100E4C00E4E00E94B007E5E80E94B007A4B3AF70DD
:100E5C00A4BBA99A0E948C06E53011F0E0E009C011
:100E6C000E945006E6E0EA930E946B060E94AD06D3
:100E7C00E1E021960895F0E0DF0108950E94DF077C
:100E8C001E2FE12FF0E0F0961E2F1A930E94BF0642
:100E9C00A981BB270895E981F0E00895E0E0EA9389
:100EAC00EA930C949506FA93EA930C94E606F0E018
:100EBC00E130A0E0FA070895E8ECF0E0FA93EA9349
:100ECC000C94B507E6E9F0E0FA93EA930C94B507B5
:100EDC00E0E0EA93E1E0EA930C949506FA93EA9346
:100EEC000C94B507EDE7F0E0F9CFE0E0EA930C9451
:100EFC00BF06E0E2EA930C94BF060E940708EA934F
:100F0C000E94D501F6CFE0E0EA930E949506EDCF62
:100F1C00EA930E945E02D0CFA0919B01B0E0EA1749
:100F2C00FB070895E4EFF1E0D9CF0E94AD06DACFCC
:100F3C000E940708F0E00895EA930E946B060C9457
:100F4C005006E881F0E008950E94F706E0E3EA938A
:100F5C000C94FC06EA930E946B060C94F706E9913C
:100F6C00F991309639F088EB9BE00197F1F7A89551
:100F7C003197C9F70895F195E195F0400895EE0F7A
:100F8C00FF1FEE0FFF1FEE0FFF1F0895002411240B
:100F9C0090E1AA0FBB1F001C111C0E1A1F0A18F49B
:100FAC000E0E1F1E01C0A1609A9599F7FD01D0018C
:100FBC00089512D0EBDF0EF4DEDF0895E894B7FF4E
:100FCC0004C0A095B09511966894F7FDD4DFDEDFD0
:100FDC00FD010EF4D0DF0895E894F7FF02C0CBDFDB
:100FEC006894B7FF06C0A095B095119600F80394CD
:100FFC0000FA08951B2EBF2FF12D1A2EAE2FE12DC6
:10100C000895E199FECFFF93FFB7F894AEBBBFBB39
:10101C00E09AEDB3FFBFFF910895E19B02C0A89544
:10102C00FCCF9FB7F894AEBBBFBBE09A8DB3E8176B
:10103C0019F0EDBBE29AE19A9FBF08953A932A9377
:10104C001A930A9308953B812A8119810881089586
:00000001FF
