:0C0000000C9435000C9400000C940000DF
:10000C000C9400000C9400000C9400000C94000064
:10001C000C9400000C9400000C9400000C94000054
:10002C000C9400000C9400000C9400000C94000044
:10003C000C9400000C9400000C9400000C94000034
:10004C000C9400000C9400006861656C6C6C6F6F14
:10005C006F6F6F0080C00200600160000000F894B8
:10006C00EE27ECBBF1E0FBBFEBBFE5BFF8E1F1BD68
:10007C00E1BD8DE0A2E0BB27ED938A95E9F780E026
:10008C0094E0A0E6ED930197E9F7E2E6F0E08591C4
:10009C009591009761F0A591B59105901590BF01D0
:1000AC00F00105900D920197E1F7FB01F0CFEFE520
:1000BC00EDBFE4E0EEBFC0E6D1E00C946500E0E0FB
:1000CC00EBBBEABBE8BBE7BBE5BBEFEFE4BBE0E0B7
:1000DC00E2BBE1BBE3BFE2BFECBFEFBDEEBDEDBDEC
:1000EC00ECBDE7BDE6BDEBBDEABDE9BDE8BDE2BDDB
:1000FC00E5BDE4BDE3BDE5BFE4BFE9BFEAB9E0E8B7
:10010C00E8B9E0E0E0BFE6B9EDB9E6BFE0E1EA93BB
:10011C0076D0A7D0A6D0AAD041D0A8D0FBCFFFCF05
:10012C00E881E07111F0AC9A01C0AC98E881E07202
:10013C0011F0AD9A01C0AD98E881E07411F0AE9A5F
:10014C0001C0AE98E881E07811F0AF9A01C0AF9889
:10015C0087E08A95F1F7AA9A82E18A95F1F7AA9835
:10016C0082E18A95F1F77BC0E881EA93D9DFE881D7
:10017C00E295E883E881EA93D3DF88EB8A95F1F77F
:10018C006EC0E881F0E0E05AFE4FE081A981EA0FF1
:10019C00EA93EADF5980488022960895E2E06CD019
:1001AC00ECE0EA93E1DFE1E067D0E0E04E2E5E2E7A
:1001BC000895A881AA3011F0571448F0E0E0EA93B2
:1001CC0043944A92DEDFA881AA3009F448C05394C4
:1001DC00A89AE881EA93C8DFA89841C01A93E981EC
:1001EC00FA813196E983FA833197E4911E2FE0303E
:1001FC0019F01A93DEDFF3CF188123960895A49A91
:10020C00A59AA69AA79AA29AA09AA19AAA98A898EF
:10021C00A9987880E881E058E0936201E881E05485
:10022C00E0936301E4E1F0E0FA93EA930E94520157
:10023C002BD02AD029D0E0E2EA9372DF84E191E05E
:10024C000197F1F7E8E2EA938FDFE4E0EA938CDFC1
:10025C00E5E8EA9389DFE6E0EA9386DF9FDF219603
:10026C000895E4E5F0E0FA93EA93B8CFE8EEF3E012
:10027C00FA93EA930C945201EA9376DFE3E0F0E010
:10028C00FA93EA930C945201E0E3EA9349DF84E198
:10029C0091E00197F1F70895E991F991309639F0D1
:1002AC008DEC9AE00197F1F7A8953197C9F708956D
:00000001FF
