:0E0000000C9442000C9400000C9400000C9430
:10000E0000000C9400000C9400000C9400000C9462
:10001E0000000C9400000C9472000C9400000C94E0
:10002E0000000C9400000C9400000C9400000C9442
:10003E0000000C9400000C9400000C9400000C9432
:10004E0000000C94000004000A00010000000000F3
:10005E000000000080C0010066015400010068012C
:10006E00560001006A015800080004005A00020000
:10007E006C0162000000F894EE27ECBBF1E0FBBFD0
:10008E00EBBFE5BFF8E1F1BDE1BD8DE0A2E0BB271E
:10009E00ED938A95E9F780E094E0A0E6ED93019761
:1000AE00E9F7E4E6F0E085919591009761F0A5916E
:1000BE00B59105901590BF01F00105900D92019735
:1000CE00E1F7FB01F0CFEFE5EDBFE4E0EEBFC0E6F8
:1000DE00D1E00C940501EA93EFB7EA9353945414CC
:1000EE0010F4959A01C09598571410F4949A01C083
:1000FE009498EFEFE51508F45524EFEFE2BFE99180
:10010E00EFBFE9911895E881E062E7B985E38A953A
:10011E00F1F7369A349BFECF349AE5B110C1289789
:10012E006624E8E06E1660F40CD1E0E0F0E00E9488
:10013E002E0210D1EFEFF0E00E942E026394F1CF69
:10014E00AA24BB24E8EEF3E0AE16BF0614F00C941E
:10015E0003016624E8E06E1640F505D1EA0FFB1F99
:10016E00FF93EF936A92CFDFAF91BF91EC93FBD0E9
:10017E00AE0FBF1F0C90EED0FAD0AE17BF072CF407
:10018E00E62DA0E1B0E0F8D0FED0EDD0AE0FBF1F4F
:10019E000C90D7D0ECD0EA17FB072CF4E62DA0E29A
:1001AE00B0E0EAD0F0D06394D5CF6624E8E06E16C6
:1001BE00E0F4E62DA0E0B0E0F0E0EE0FFF1FEA0F56
:1001CE00FB1FBF01BED00E941E020F01C3D00E94B2
:1001DE001E02D001AE0FBF1FE2E0F0E00E940B0244
:1001EE00DB010E942E026394E1CFEAE0F0E0D3D06F
:1001FE00F50131965F01A6CF28960895E0E0EBBB9E
:10020E00EABBEFEFE8BBE0E0E7BBE5BBEFEFE4BB3B
:10021E00E0E0E2BBEFEFE1BBE5E0E3BFEFEFE2BF13
:10022E00E0E0ECBFE1E0E9BFE0E8E8B9E0E0E0BF24
:10023E00E0E2E7B9E4E8E6B9E0E1EA9352D0B0993A
:10024E0006C0EAEFF0E0A7D07724442468DFEAEF97
:10025E00A6D0E8ECA4D0E4EBA2D0E4E6A0D0E0E592
:10026E009ED0EDCFFFCFE881E07111F0AC9A01C0C6
:10027E00AC98E881E07211F0AD9A01C0AD98E881BA
:10028E00E07411F0AE9A01C0AE98E881E07811F0FA
:10029E00AF9A01C0AF988BE08A95F1F7AA9A8BE1DD
:1002AE008A95F1F7AA988BE18A95F1F748C0E88113
:1002BE00EA93D9DFE881E295E883E881EA93D3DF18
:1002CE0088EC90E00197F1F73AC0E2E06DD0ECE0F7
:1002DE00EA93EDDFE1E068D0E0E0E09370018E2E6E
:1002EE000895A49AA59AA69AA79AA29AA09AA19AB4
:1002FE00AA98A898A998E881E0937101E058E09334
:10030E006E01E881E054E0936F01E4E1F0E043D048
:10031E0050D04FD04ED0E0E2EA93A5DF80E991E0D5
:10032E000197F1F7E8E2EA93C2DFE4E0EA93BFDF78
:10033E00E5E8EA93BCDFE6E0EA93B9DFC6DF219693
:10034E000895E62DA0E2B0E0F0E0EE0FFF1FAE0F35
:10035E00BF1F0895E62DA0E1B0E0F0E0EE0FFF1F05
:10036E00AE0FBF1F0895E62DF0E0DE0108950E9446
:10037E001E02A02DB0E00895F0E0EE0FFF1FEA0F71
:10038E00FB1F0F01F0CFAE0FBF1FEC91D001F0E0BD
:10039E000E942E020895FA93EA930C94E8017E2EA1
:1003AE004E2EE8ECF0E0F7CFEA9381DFE3E0F0E0E9
:1003BE00F2CFE0E3EA9357DF80E991E00197F1F79E
:1003CE000895E991F991309639F080EA9FE001970E
:1003DE00F1F7A8953197C9F70895F195E195F04099
:1003EE0008950024112490E1AA0FBB1F001C111CBC
:1003FE000E1A1F0A18F40E0E1F1E01C0A1609A9548
:10040E0099F7FD01D001089504D0EBDF0EF4E5DF7E
:10041E000895E894F7FF02C0E0DF6894B7FF06C0C6
:10042E00A095B095119600F8039400FA08951196D0
:10043E0002D0FE2F1197E199FECFFF93FFB7F894EC
:10044E00AEBBBFBBE09AEDB3FFBFFF91089507D0DF
:10045E001196EF93EF2F03D0EF9111970895E19B33
:10046E0002C0A895FCCF9FB7F894AEBBBFBBE09A75
:10047E008DB3E81719F0EDBBE29AE19A9FBF08958C
:00000001FF
