:1000000025C0FECFFDCFFCCFFBCFFACFF9CFF8CF85
:10001000F7CFF6CFF5CFF4CFF3CFF2CFF1CFF0CFCC
:10002000EFCFEECFEDCFECCFEBCF80C0206C6C6C80
:100030002000206B616A626B616A646276616B6A40
:10004000762000000200E0002A000000F894EE276D
:10005000ECBBF1E0FBBFEBBFE5BFF8E1F1BDE1BDFB
:100060008DE0A2E0BB27ED938A95E9F780E092E06E
:10007000A0E6ED930197E9F7E4E4F0E0859195912E
:10008000009761F0A591B59105901590BF01F00121
:1000900005900D920197E1F7FB01F0CFEFE5EDBF81
:1000A000E2E0EEBFC0EED0E000C0E0E0EBBBEABBB8
:1000B000E8BBE7BBE5BBEFEFE4BBE0E0E2BBE1BBE5
:1000C000E3BFE2BFECBFEFBDEEBDEDBDECBDE7BDF4
:1000D000E6BDEBBDEABDE9BDE8BDE2BDE5BDE4BD01
:1000E000E3BDE5BFE4BFE9BFE0E8E8B9E0E0E0BFB9
:1000F000E0E1EA939AD0C5D0ECE2F0E0C7D0C9D0F5
:10010000C0D0E2E3F0E0C2D0C4D0F5CFFFCFFFE033
:10011000FA95F1F70895A4B3AF70A4BBA99AA89873
:10012000F6DFAA9AF4DFA3B3AA98F1DFAA9AEFDF69
:10013000AA98A7FDF5CF0895A07FAB2BA5BBAA9ADF
:10014000E6DFAA98E4DF0895A998A4B3A76FA4BB3B
:10015000B5B3BF70A881F0DFA881A295EDDFA99AA1
:1001600021960895AA9AD3DFE3B3AA98D0DFE07F5F
:100170000895CDDFF7DFAE2FF5DFA998E295EA2BE2
:100180000895C9DFE881F0E0E052FF4FE081A981E6
:10019000EA0F84D05980488022960895BCDFE2E0BF
:1001A0007DD0B9DFECE07AD0B6DFE1E077D0E0E0F7
:1001B0004E2E5E2E0895EF93FF93A8816894AA3087
:1001C00021F0E8945394751430F44394E0E0EA93FA
:1001D0004A92D7DF2EF09FDFA89AA881AA93B4DFB6
:1001E000FF91EF91219608951A93E981FA81319652
:1001F000E983FA833197E4911E2FE03019F01A93C6
:10020000DADFF3CF188123960895AA27BB27119729
:10021000F1F70895A998A4B3A76FA4BBB5B3BF70B5
:10022000A8818ADFA99A21960895AA98A89878802B
:10023000E881E058E093E200E881E054E093E300D5
:100240002FD02ED02DD0E1DFE0E2EA93E3DFDDDF37
:10025000E8E224D0DADFE4E021D0D7DFE5E81ED001
:10026000D4DFA4B3AF70A4BBA99A83DFE53011F04B
:10027000E0E005C050DFE6E011D090DFE1E021963C
:1002800008958CDFE0E0EA93EA937BCFFA93EA9358
:100290000895AADFE8EEF3E0F9DF06C0EA9354CF51
:1002A000B4DFE0E3EA93B6CFE991F991309639F003
:1002B00088EB9BE00197F1F7A8953197C9F708956E
:00000001FF
