:040000005AC0FECF15
:10000400D0C0FCCFFBCFFACFF9CF81C0F7CFF6CF6A
:10001400F5CFF4CFF3CFF2CFF1CFF0CFEFCFEECFD8
:10002400EDCF82A0AA646A9CE0B28864B084866240
:10003400AE92888A644064AE92888A62406303F018
:1000440079606E686A5C6A70A65E62626064645C11
:1000540064648A48AE92888A645A64408AF0E0CA2A
:10006400E4D2DACADCE8C2D840AC908C4088D2CE64
:10007400D2E0CAC2E8CAE440F6AA92AC6664FA3492
:10008400A827FAF9070A0D0E0F0E0D0A070502013B
:10009400000102051027E80364000A0001000010B3
:1000A4000001100001000000000004000600AA0086
:1000B4000000F894EE27ECBBE5BFF8E1A4B7A77FF6
:1000C400A4BFF1BDE1BD8DE0A2E0ED938A95E9F70F
:1000D40080E8A0E6ED938A95E9F7EEEAF0E08591F1
:1000E4009591009761F0A591B59105901590BF0188
:1000F400F00105900D920197E1F7FB01F0CFE0E0EC
:10010400E3BBE4BBE5BBEFEDEDBFC0E809C1EA9397
:10011400EFB7EA935AD11BB10CB1E12FEC7171F432
:10012400E32DE05800833394E8E0E31509F4332425
:100134005394E8E0E51511F45524989A4ED1E991C9
:10014400EFBFE99118953FD1959A20E030E0203B2C
:10015400E4E03E0764F410E0103130F412D18AEA8E
:100164008A95F1F71F5FF8CF2F5F3F4FF0CF959837
:1001740015C029D1969A20E030E02036E9E03E0708
:1001840064F410E0103130F4FCD08AE48A95F1F77D
:100194001F5FF8CF2F5F3F4FF0CF969819D1249669
:1001A40008950A921A92FA926A937A938A939A9386
:1001B400AA93BA93EA93FA93EFB7EA939698959829
:1001C400EAEFF0E0E5D0EBD0A4D028D098D0E991C4
:1001D400EFBFF991E991B991A99199918991799197
:1001E4006991F990199009901895FF921A9310E06B
:1001F400183080F4E12FA981DED0E0FBF0F8F0FEA6
:1002040005C0E0E09B99E1E0EA935AD0F0FE2CD0DF
:100214001F5FEECF18812296FF9008951A9310E085
:10022400123328F4EEE7EA93E0DF1F5FF9CF10E022
:10023400E6E2F0E0ADD09AD0A12FB0E0AE17BF0750
:1002440048F4E12FF0E0EA5DFF4FE491EA93CDDF5B
:100254001F5FEECF10E01F3028F4EEE7EA93C5DF0E
:100264001F5FF9CF1991089566249B9902C09B9A48
:1002740001C09B98E0E09B99E1E0EA9321D00895C6
:10028400E881E17011F4C49801C0C49AE881E6954C
:10029400E17011F4C59801C0C59AE881E695E69528
:1002A400E17011F4C69801C0C69AE881E695E69516
:1002B400E695E17011F4C79801C0C79A2196089594
:1002C40084D0EA81E03051F410E0103130F459D098
:1002D4008AEA8A95F1F71F5FF8CF0EC000E002307A
:1002E40058F410E0103130F44CD08AE48A95F1F7D8
:1002F4001F5FF8CF0F5FF3CF6DD023960895E0E032
:10030400EBB9E0E9EAB9E6E0E3B9E0E0E2B9EFE845
:1003140005C0E0E0EBB9EAB9E3B9E2B9E9B9089597
:10032400E0E8E6BDE0E0E6BDE8BBE8EFE7BBE1E01E
:10033400E2BBE0E7E1BBE0E8E8B9E0E0E1B9E0E82E
:10034400EBBFE8E0E5BFE0E8EABFD9DF959A23D048
:10035400969A21D095981FD096987894E0EDF7E07E
:1003640017D01DD0F0DE05DFF9CFFFCFAA27BB27BA
:10037400E991F9910590002011F01196FBCFFD0150
:100384000895E12FF0E0E857FF4FE491EA9378CF26
:10039400FA93EA930895E4EFF1E0FADF00C0E991FB
:1003A400F991309639F08DEC9AE00197F1F7A89520
:1003B4003197C9F70895EE230E2EEA2F19F0E6952A
:1003C4000A94E9F708953A932A931A930A9308959D
:1003D4003B812A8119810881089509911991089511
:00000001FF
