:0E00000020C0FECF4CC0FCCFFBCFFACF6FC0AC
:10000E00F8CFF7CFF6CFF5CFF4CFF3CFF2CFF1CFC6
:10001E00F0CFEFCFEECFEDCF070A0D0E0F0E0D0A7C
:10002E0007050201000102050000000004000200A5
:10003E0036000000F894EE27ECBBE5BFF8E1A4B75C
:10004E00A77FA4BFF1BDE1BD8DE0A2E0ED938A953F
:10005E00E9F780E8A0E6ED938A95E9F7EAE3F0E0A8
:10006E0085919591009761F0A591B59105901590A8
:10007E00BF01F00105900D920197E1F7FB01F0CF62
:10008E00E0E0E3BBE4BBE5BBEFEDEDBFC0E861C074
:10009E0094D094989598EAEFF0E09DD04CC0E8810A
:1000AE00E17011F4C79801C0C79AE881E695E17036
:1000BE0011F4C69801C0C69AE881E695E695E170FE
:1000CE0011F4C59801C0C59AE881E695E695E695C6
:1000DE00E17011F4C49801C0C49A219608956DD0B0
:1000EE00F10131961F01D101E4E3F0E0A3D0309786
:1000FE0031F0D101ECE1F0E09DD0309789F4989980
:10010E0008C0E52D6BD05394EFE0E51509F45524A6
:10011E0007C0E42D63D04394EFE0E41509F44424C2
:10012E00E0E4F3E0E215F30521F422243324552410
:10013E004424E5EFE2BFE991EFBFF991E991B9915E
:10014E00A9919991899179916991F9901990099054
:10015E001895E0E8E6BDE0E0E6BDE8BBE8EFE7BBFA
:10016E00E9E0E2BBE0E3E1BBE0E0E0BFE1E0E3BFFA
:10017E00E5EFE2BFE0E0E6BFECBFE0E8EBBFE8E0B2
:10018E00E5BFE0E8EABFE2E0E9BFE0E8E8B9E8E3AE
:10019E00E1BDE8E2E1BD959A27D0949A25D09598D5
:1001AE0023D0949878949898E0EDF7E014D0989A2C
:1001BE00E0EDF7E010D0F7CFFFCF0A921A92FA9245
:1001CE006A937A938A939A93AA93BA93EA93FA9339
:1001DE00EFB7EA930895FA93EA9309C0F0E0EA5D67
:1001EE00FF4FE491EA935BCFE4EFF1E0F4CFE991B6
:1001FE00F991309639F08DEC9AE00197F1F7A895C8
:10020E003197C9F70895F195E195F04008950024CE
:10021E00112490E1AA0FBB1F001C111C0E1A1F0AFD
:10022E0018F40E0E1F1E01C0A1609A9599F7FD01DC
:10023E00D0010895E894B7FF04C0A095B09511962B
:10024E006894F7FDE0DFE3DFFD010EF4DCDF0895D7
:00000001FF
