:040000000C9430002C
:100004000C9400000C9400000C9400000C9400006C
:100014000C9400000C9400000C9400000C9400005C
:100024000C9400000C9400000C9400000C9400004C
:100034000C9460000C9400000C9483000C94000059
:100044000C9400000C9400000C9400000C9400002C
:1000540080C041000200700254000000F894EE27B2
:10006400ECBBF1E0FBBFEBBFE5BFF8E1F1BDE1BDE7
:100074008DE0A2E0BB27ED938A95E9F780E098E054
:10008400A0E6ED930197E9F7E8E5F0E08591959115
:10009400009761F0A591B59105901590BF01F0010D
:1000A40005900D920197E1F7FB01F0CFEFE5EDBF6D
:1000B400E8E0EEBFC0E6D2E00C949A00EA93FA932B
:1000C400EFB7EA931A930A931BB10CB1E12FEC71C9
:1000D40089F4E52DF0E0E05AFD4F00835394E8E005
:1000E400E51509F455247394E8E0E71519F4772429
:1000F400689420F809911991E991EFBFF991E99178
:100104001895EA93FA93EFB7EA93882061F08A94FA
:10011400E92DF0E0E859FD4FE081ECB99394E8E073
:10012400E91509F49924E991EFBFF991E99118953A
:10013400E0E0EBBBEFEFEABBEFE7E8BBE0E8E7BBEF
:10014400E0E0E5BBE4BBE2BBE2E0E1BBE0E0E3BF4F
:10015400E2BFECBFEFBDEEBDEDBDECBDE7BDE6BD5E
:10016400EBBDEABDE9BDE8BDE2BDE5BDE4BDE3BD6F
:10017400E5BFE4BFE9BFEBB9E8EDEAB9E6E8E0BD05
:10018400E0E0E0BDEDE4E9B9E0E8E8B9E0E0E0BFD3
:100194007894E0E1EA930E9488010E943501E0E04E
:1001A400EA93EA930E942501E6E5F0E0FA93EA93E4
:1001B4000E946501FFCFFFCFFFE0FA95F1F70895A4
:1001C400AAB3AF70AABBD99AD8980E94DE00DA9A73
:1001D4000E94DE00A9B3DA980E94DE00DA9A0E9437
:1001E400DE00DA98A7FDF1CF0895A07FAB2BABBB5F
:1001F400DA9A0E94DE00DA980E94DE000895D99807
:10020400AAB3A76FAABBBBB3BF70A8810E94F700B3
:10021400A881A2950E94F700D99A21960895DA9AA6
:100224000E94DE00E9B3DA980E94DE00E07F0895C0
:100234000E94DE000E941101AE2F0E941101D99884
:10024400E295EA2B08950E94E200E881F0E0E0598B
:10025400FD4FE081A981EA0FEA930E940101B98070
:10026400A880229608950E94E200E2E0EA930E94A8
:1002740001010E94E200ECE0EA930E9401010E9465
:10028400E200E1E0EA930E940101E0E0AE2EBE2E1E
:100294000895EF93FF93A8816894AA3021F0E8941D
:1002A400B394DB1438F4A394E0E0EA93AA920E9496
:1002B40025012EF085DFD89AA881AA93A0DFFF91AB
:1002C400EF91219608951A93E981FA813196E98391
:1002D400FA833197E4911E2FE03021F01A930E94A3
:1002E4004B01F2CF188123960895AA27BB271197B3
:1002F400F1F70895D998AAB3A76FAABBBBB3BF708F
:10030400A8810E94F700D99A21960895DA98D8987E
:10031400D880E881E058E0937202E881E054E093E9
:1003240073020E94BF010E94BF010E94BF010E948C
:100334007701E0E2EA930E947C010E947701E8E2FF
:100344000E94C501E4E00E94C501E5E80E94C501E0
:10035400AAB3AF70AABBD99A0E941A01E53011F072
:10036400E0E009C00E94E200E6E0EA930E94010195
:100374000E943501E1E0219608950E947701E0E3AF
:10038400EA930C947C01EA930E9401010C94770196
:00000001FF
